:020000040801F1
:1000000000000220BD6B0108454E0108494E010861
:100010004D4E0108514E0108554E010800000000E8
:10002000000000000000000000000000594E010820
:100030005D4E010800000000056C0108A16A01087E
:10004000056C0108056C0108056C0108056C0108C8
:10005000056C0108056C0108056C0108056C0108B8
:10006000056C0108056C0108056C0108056C0108A8
:10007000056C0108056C0108056C0108056C010898
:10008000056C0108056C0108056C0108056C010888
:10009000056C0108056C0108056C0108056C010878
:1000A000056C0108056C0108056C0108056C010868
:1000B000094E0108056C0108AD4D0108056C0108E9
:1000C000056C0108056C0108056C0108056C010848
:1000D000056C0108E9660108056C0108056C01085A
:1000E000056C0108056C0108056C0108056C010828
:1000F000056C0108056C0108056C0108056C010818
:10010000056C0108056C0108056C0108056C010807
:10011000056C0108056C0108056C0108056C0108F7
:10012000056C0108056C0108056C0108056C0108E7
:10013000056C0108056C0108056C0108056C0108D7
:10014000056C0108056C0108056C0108056C0108C7
:10015000056C0108056C0108056C0108056C0108B7
:10016000056C0108056C0108056C0108056C0108A7
:10017000056C0108056C0108056C0108056C010897
:08018000056C0108056C010883
:1001900010B5054C237833B9044B13B10448AFF3C1
:1001A00000800123237010BD3800002000000000F3
:1001B0006471010808B5034B1BB103490348AFF351
:1001C000008008BD000000003C00002064710108B0
:1001D00001F0FF01102A2BDB10F0070F08D010F8F8
:1001E000013B013A8B422DD010F0070F42B3F6D1FC
:1001F000F0B441EA012141EA014122F007047FF015
:1002000000070023F0E80256083C85EA010586EA6B
:10021000010685FA47F5A3FA87F586FA47F6A5FAA7
:1002200087F68EB9EED1F0BC01F0FF0102F00702B3
:1002300032B110F8013B013A83EA010313B1F8D15E
:100240000020704701387047002D06BF354603383F
:10025000073815F0010F07D1013015F4807F02BF78
:10026000013015F4C03F0130F0BC0138704700BFC9
:10027000EC46A0E8F05F4FF000007047B0E8F05F98
:10028000E546080008BF0120704700BF10F8012BA9
:1002900011F8013B012A28BF9A42F7D0D01A7047C3
:1002A00030B583B004466D464168284605F086FBAC
:1002B00009492078094C2C2200F020FA034695E8E1
:1002C000030003F120025C6082E80300012283F84E
:1002D0002A2003B030BD00BFA1020108E1020108DD
:1002E00070B500F12005044695E8030005F0D0FB49
:1002F000002842D1636A012B95E8030027D005F05E
:10030000F1FB94F82A3094F82B20934229D2218BC8
:100310000133DBB2084480B29A42208384F82A3049
:1003200025D8656A012D2DD0638B834236D8A38BE7
:10033000834233D3002384F82830294802F076F929
:100340006369E26813446361A360012070BD05F036
:10035000C9FB244B94F82B20188094F82A30934240
:10036000D5D301239A42208384F82A30D9D9A368AF
:1003700022691344A360012070BDA3681844A060E3
:10038000012070BD174B1B88323B47F6C6729BB2EB
:10039000934213D8144B00221A80CEE794F82830E9
:1003A00094F829200133DBB29A4284F82830C4D86B
:1003B0000E4804F07BF802F0AFF9BBE70A4E338831
:1003C00001339BB2042B3380B7D9084804F06EF890
:1003D00002F0A2F9064A002315703380ADE700BF92
:1003E000580000205A0000205C000020887101089D
:1003F0005E00002038B515490546007800F05EF92A
:10040000044602F087F804F1200393E8030005F0A6
:1004100085FB6B686361A360AB6823612B7B84F809
:100420002B305A1C84F82A202A69E260D5E905019C
:10043000EA6984F829206083A18303B938BD204686
:100440001F21BDE8384002F071B900BFA1020108C8
:100450002DE9F041214884B002F0F0F830B3FF23D9
:100460001F4D204F204E8DF80F3029460DF10F0003
:1004700000F070F90446C8B194F82A2094F82B30A3
:100480009A42F2D106F066FA94F82B3094F82A20BA
:10049000934203F101010CD006F05EFA29460DF1FA
:1004A0000F0000F057F904460028E5D104B0BDE87C
:1004B000F0816269B4F8188084F82A10019206F07D
:1004C0004BFA3046A7F8008004F022FA019A9DF812
:1004D0000F10434600F0D6FCC7E700BF58000020CD
:1004E000A1020108540000209C71010830B583B0BE
:1004F000FF23124D8DF8073006E093E8030005F066
:100500000DFB94F82B305BB929460DF1070000F084
:1005100021F9044600F120030028EED103B030BDDC
:100520006269E16801330A4484F82A306261A2609A
:100530000021204602F0FAF8E6E700BFA102010818
:1005400008B5044B04482B221A6003F0AFFF02F0F9
:10055000BDF800BF18010020CC71010808B506F0F5
:10056000F1F9034B033020F00300186008BD00BF11
:100570006000002070B50E4E336804461D1806F06A
:10058000E5F985420CD83568E31C23F003032B44BE
:10059000224600212846336006F0DCFD284670BD67
:1005A000044B054828221A6003F080FF02F08EF801
:1005B0006000002018010020E8710108024B1A6851
:1005C00002601860704700BF7000002010B506F090
:1005D000C5F9084B1C682CB122681A6006F0C2F9F4
:1005E000204610BD044B05482A221A6003F05EFF26
:1005F00002F06CF87000002018010020FC71010866
:100600000068B0FA80F04009704700BF006870478A
:1006100003460A68002018601AB14A6813604B60EC
:100620007047C1E900330120704700BF03681A68B2
:1006300002601846704700BF00230360704700BF88
:1006400008B5FF294FF00003C0E9003308DC054B73
:100650001B882BB9044B1A788A42B8BF197008BDA1
:10066000FFF76EFF6C000020740000200F4B18880D
:1006700010B4A0B1013815D00D4A0E4B146893F890
:1006800000C00022234619460132634482420B60B7
:10069000F9D102FB0C42084B002111601C605DF88F
:1006A000044B7047024B1C682246F4E76C000020A4
:1006B00078000020740000207000002008B50B4B6B
:1006C0001B78834209D90A4B1B6853F830208A42B1
:1006D00003EBC00001D1406808BD064B06482D223F
:1006E0001A6003F0E3FE01F0F1FF00BF7C00002080
:1006F00080000020180100201072010870B5104B16
:100700001C7803469C42104611D90E4D1AB2DC00EB
:100710002B6853F8326056B90B4E36883EB943F811
:100720003210FFF727FF2B682344586070BD074B3A
:1007300007482E221A6003F0B9FE01F0C7FF00BF80
:100740007C000020800000206C00002018010020A8
:100750002472010830B50E4A03780E4C126894F8E2
:1007600000E003F1010C5FFA8CF302EBC30205E039
:1007700052F8084B8C4203F1010C06D05FFA8CF35F
:100780009E451546F4D8002030BD0370686830BD22
:10079000800000207C00002038B50A4C236843B953
:1007A0000568E8B2C000FFF7E5FE074B20601D704A
:1007B00038BD064B06482F221A6003F077FE01F081
:1007C00085FF00BF800000207C0000201801002071
:1007D0003872010830B50D4D0D4885B004F098F819
:1007E00029880C4B003918BF01211A68039204466E
:1007F000029101F02BFF034628880090DDE90212E8
:10080000204600F03FFB05B030BD00BF6C0000206B
:1008100050720108640000202DE9F0411E4F3B8812
:10082000064683BB1D4BDFF88C801D78D8F800404E
:10083000032D9CBF04251D7006F088F80023224676
:100840002C44A04213D30133B3F5805FF7D11D468A
:10085000D8F80000201AFFF78DFE114B3D8018607C
:10086000FFF704FF0F4B32681A60BDE8F08113B147
:100870009DB21446ECE70C4B0C4829221A6003F099
:1008800015FE01F023FF084B09482C221A6003F0E3
:100890000DFE01F01BFF00BF6C0000207400002063
:1008A000780000206400002018010020A0720108D8
:1008B0008C7201086000002010B5064804F028F88A
:1008C000044606F091F801462046BDE8104000F0CD
:1008D000D9BA00BFB472010810B582B006F084F82E
:1008E000094A0A4B11681B680446A34288BF0131BC
:1008F0000748019104F00CF80199224602B0BDE8C6
:10090000104000F0BFBA00BF880000208400002023
:10091000C47201082DE9F041264D274E2B68274F60
:1009200001332B603368081A0344B0F5803F0C464E
:10093000336019D23B6800FB00F0FF3003EB10205E
:10094000984238BF4FF0FF3038601D48DFF87C8098
:1009500006F042F8D8F8003001461944204606F067
:100960003FF870B1BDE8F081B0F5801F06D200F10C
:10097000FF023B68120A00FB0230E1E74FF0FF3054
:10098000E2E7104803F0C4FF3B683268296800F0D2
:1009900079FAD8F80030A34203D90B4A136801331F
:1009A00013600023C8F800403B6033602B60BDE853
:1009B000F08100BF680000208C0000209000002023
:1009C000404B4C00DC7201088800002084000020AD
:1009D00008B5044B044831221A6003F067FD01F0AA
:1009E00075FE00BF18010020FC72010801F082BEF4
:1009F00010B50E4B04681B6842689C4282B012D24C
:100A0000D2B21119994201D91A1BD2B208480192E7
:100A100003F07EFF074B019A2344214602B0BDE854
:100A2000104000F02FBA0022F0E700BF288801082C
:100A30000C730108787C0108F8B5877F04469FB1E4
:100A400000252F4601262B46043304EBC30393E80D
:100A5000030005F09FF901357100EBB200B1374397
:100A6000A27F9A42CEB2EFD8227CBA4207D0637CF2
:100A70007B40DB4382EA0701DBB20B4210D194F9E1
:100A80001C30257F6774002B04DB013DEDB2FF2D88
:100A90001ED02577D4E9023213440120A360F8BDAB
:100AA00022EA03023B401343A27C2374072AE6D8C0
:100AB000511C2244A1740848D37401F0B7FDFF23F0
:100AC0002377D4E90232677413440120A360F8BD90
:100AD000014801F0ABFDDCE79400002010B504797B
:100AE000082C09D8221D08490078D200FFF706FE1D
:100AF000064B8477436010BD054B064825221A60DB
:100B000003F0D4FC01F0E2FDDD0A0108390A010816
:100B1000180100203473010870B51149054682B0F0
:100B20000078FFF7CBFD2B79827F9A4204460ED9DD
:100B30006E46D5E9021230461D1D05F003F996E810
:100B4000030004EBC50484E8030002B070BD054B4C
:100B5000054826221A6003F0A9FC01F0B7FD00BF8A
:100B6000DD0A0108180100204873010838B514494E
:100B700005460078FFF7A2FD044601F0CBFC6B6848
:100B8000A360A968E16000232A7CA374E376FE23B6
:100B9000627422742377EB6863771B0607D401B96C
:100BA00038BD20463021BDE8384001F0BFBD054BBF
:100BB000054827221A6003F079FC01F087FD00BF89
:100BC000DD0A0108180100207073010838B51549C5
:100BD00004460078FFF772FD2479C37E054623445E
:100BE000C37605F0B7FEAB7CA34207D8FE230022F4
:100BF000AA742B77BDE8384005F0AEBE1B1BD8B2F7
:100C000005F1130204F112032B44141813F8011F09
:100C100002F8011BA242F9D1A874BDE8384005F0E2
:100C20009BBE00BFDD0A0108F0B51A4885B001F08F
:100C300005FD48B3FF23184D184F8DF80F30294696
:100C40000DF10F00FFF786FD0446E8B1237FFF2B6F
:100C5000F5D105F07FFEA67CC6B1637F237705F052
:100C60007BFE384603F054FE1334227A9DF80F10B1
:100C70000094334600F006F929460DF10F00FFF706
:100C800069FD04460028E1D105B0F0BD05F064FE21
:100C9000D5E700BF94000020DD0A01089473010825
:100CA000704700BF70B514799668651EA4B3814281
:100CB00033D316F8012B042A20D810F8012B02F0A8
:100CC000600CBCF1600F03F1040E02F07F0408D148
:100CD00064F01F0405E010F8012B02F07F0C4CEAD1
:100CE000C4141206F7D41C60B5B1814215D316F8AE
:100CF000012B042A05F1FF357346DED9072A0CD1F2
:100D0000024612F8014B1019884206D89E464EF84A
:100D1000084B5A60002DEAD170BD024803F0C6FBB3
:100D200001F0D4FCC07301082DE9F8438B78052B42
:100D3000064694461C4666D9053B821CD4180B888F
:100D4000CF784D687F2B00F28C80114603F07F0333
:100D500001F8013B002F53D08C42C0F08A802F4411
:100D600030E05CF8043B03F120027F2A22D903F52E
:100D70008052B2F5804F18D303F50022B2F5001F60
:100D80000ED303F18062B2F1805F04D31A0F62F0D8
:100D90007F0201F8012B5A0D62F07F0201F8012B4E
:100DA0009A0B62F07F0201F8012BDA0962F07F02F0
:100DB00001F8012B03F07F0301F8013BBD421FD076
:100DC0008C4256D315F8013B052B30D0C9D9063BD0
:100DD000012B4ED8E0460B4658F8082B611A914279
:100DE00028BF114603F8011B89460A461846DCF85D
:100DF000041006F087F9BD4200EB0901C446DFD1BB
:100E0000891BCC1CE3B21D4A337012787270E51E48
:100E10002946304605F0B4FE030A735526447E2366
:100E200006F8020C06F8013C2046BDE8F8835CF8A1
:100E3000040B03784A1C6BB1944202D817E0944229
:100E40000BD002F8013B10F8013F002BF7D1531AE9
:100E5000013BDBB20B701146B0E7631A013BDBB21A
:100E6000F8E7DA0962F07F028270C21C6DE70023A6
:100E7000F0E7034803F01AFB01F028FC0000002013
:100E8000D87301080FB430B5084D2C7883B0E4B2A4
:100E90003CB9012307A906982B70019105F006FDC6
:100EA0002C7003B0BDE8304004B0704795000020BE
:100EB000014B00221A707047950000202DE9F04B7D
:100EC000804615460C4619B900202860BDE8F08B15
:100ED0002F4E3778FA0711D40429F5D907787B1FEC
:100EE0003B2B05D890F8019029F00F03102B1ED052
:100EF0007E2F36D0337843F00107377022467E21AB
:100F00004046FFF765F950B3A0EB080007F0FE0775
:100F1000013037702860BB071DD447F002033370DF
:100F20001C48FFF7AFFF4FF0FF30BDE8F08BB94230
:100F3000CAD3C31913F8012C7E2AD9D1F91E13F88C
:100F400002BC435C4BEA032B05F01AFE83450DD02F
:100F500098F80070CCE74FF0FF30BDE8F08B2C60C4
:100F6000D9E701232B604FF0FF30AFE70A49327811
:100F70000B782F6022F002024B453270D0D1013342
:100F800003F00F0343F010030B7001209EE700BF36
:100F90009600002000740108000000202DE9F04BAD
:100FA000033900F10209451882B0A94500AF30D2DB
:100FB000DFF8948099F9002099F80040002A6E46E5
:100FC0002BDB09F10100ACB31D4B1B889C4231D2D5
:100FD00008EB0412294693787A609B00073303F4E8
:100FE000FF63ADEB030DEB465B46FFF75BFE2401B1
:100FF000814601F02BFB18B17A68D278D30715D55A
:10100000444405F0B7FCE26858469047B546A94508
:10101000D0D30837BD46BDE8F08B99F80120E40134
:1010200004F47E5409F102001443CCE701F02CFBD8
:10103000B546ECE7034803F039FA01F047FB00BF7F
:10104000BC8D0108F07301082C8801080148FFF7E6
:1010500019BF00BF0074010830B5D0E9004083B06B
:10106000FFF71EFE054605F079FCE3B2012B0FD019
:10107000022B10D02978C9B2019105F073FC074802
:1010800003F046FC019903B0BDE83040FFF7FABE1B
:10109000298889B2F0E72968EEE700BF08740108E3
:1010A00070B50446D0E90050FFF7FAFDA668044683
:1010B00005F054FCEBB2012B07D0022B0BD0F6B29B
:1010C0002670BDE8704005F04DBCB6B22680BDE884
:1010D000704005F047BC2660BDE8704005F042BC9A
:1010E00010B5D0E9004082B0FFF7DAFD0190054865
:1010F00003F00EFC019AE1B202B0BDE81040FFF728
:10110000C1BE00BF1C740108704700BF30B50B4959
:1011100083B0044628220078FFF7F0FA6D460346B4
:101120006168A26828461C4604F00CFE95E803009E
:1011300004F10C0383E8030003B030BD0D11010876
:1011400038B500F10C03044693E8030004F022FED6
:1011500094F8245088B1ED4305F001058DB994F859
:101160002630013B13F0FF0315D0A268A16984F873
:1011700026300A44A260012038BD05F00105002D8B
:10118000EDD00849E26994F8253084F82630C4E9A6
:101190000112012038BD206A94F8271002F0CEFF1A
:1011A000284638BDA911010800F10C0310B504460A
:1011B00093E8030004F0EEFDA36862691A4494F812
:1011C000243030B1DB4303F0010333B1A2600120CE
:1011D00010BD03F00103002BF8D1044BE261636002
:1011E0002046BDE81040FFF7ABBF00BF411101082A
:1011F00038B5174905460078FFF760FA044601F054
:1012000089F96B68A360AB68A3612B7B84F82530F8
:10121000CBB12A69626184F826306A690D4B002AD5
:1012200014BF0322022284F82420287E636002F087
:10123000B1FFEB6984F82730206219212046BDE810
:10124000384001F073BA84F82430236238BD00BFFF
:101250000D110108A9110108F0B50678104985B0F3
:101260003046FFF72BFA044605F074FBE36994F867
:101270002470039305F070FB0A4803F049FB0C341B
:10128000054694E8030004F085FD039B0090C7F336
:10129000400231462846FFF7F5FD05B0F0BD00BF1E
:1012A0000D1101082C74010830B5D0E9011283B08A
:1012B000003A04466D4618BF0122284604F0B6FCE9
:1012C0000F4920783422FFF719FA034695E8030006
:1012D00003F1180282E80300D4E90221003A18BFA2
:1012E000012209B142F0100283F8302022691A620B
:1012F0000C2103F1280003B0BDE83040FFF7A0B98E
:10130000A91201082DE9F84300F1280804464046D7
:10131000FFF776F9002840F0A0804046FFF786F9F5
:1013200085682E1E18BF012604F1180307463246B1
:1013300093E8030004F0C6FC3846FFF73FF9C5B157
:10134000636AAB4215D9276A002F68D1404646F040
:101350000206FFF755F9002800F0878094F8303036
:10136000676103F010033343A66884F830302E44DD
:1013700026E094F83030B5FA85F283F01003C3F319
:10138000001352099A4225D0276A1FB3A16840462C
:1013900046F004060F44FFF733F9002848D094F8CC
:1013A0003030676103F01003334384F83030B30703
:1013B00026D5A6682E443946304605F011FBF8B113
:1013C000636A2B4A5B1BC4E90126C4E9035301206D
:1013D000BDE8F8834046FFF713F9A8B981464046B7
:1013E000FFF714F9476894F83020676146F0040667
:1013F00002F01002164384F83060B9F1000FD8D122
:10140000A7600120BDE8F88394F8303003F01003A2
:101410003343002084F830306061BDE8F883A16870
:10142000404646F006060F44FFF7EAF80028B6D11A
:101430004046FFF7EBF8034638465F68394605F04B
:10144000CFFA06F002090028CDD00A4B0A481E2226
:101450001A6003F02BF801F039F9064B07481D22FA
:101460001A6003F023F801F031F94FF00209B6E7F2
:10147000811401081801002094740108687401089F
:1014800038B5044600F1180393E8030004F0FEFBAE
:1014900094F83030A56883F00103DA074CBFE268A6
:1014A000226984F830305B07154402D4A56001201E
:1014B00038BD6169284605F093FA0028F6D1034B40
:1014C00065696360A560012038BD00BF0513010890
:1014D00038B50D4905460078FFF7F0F8044605F0E9
:1014E00039FA04F12800FFF78BF828B16B686362C2
:1014F000BDE8384005F030BA044B05481F221A6099
:1015000002F0D4FF01F0E2F8A9120108180100204E
:10151000CC740108F8B5234906460078FFF7CEF8E9
:101520000446FFF753F877684760B3688360054661
:1015300005F010FA04F128012846FFF769F8A0B178
:1015400094F830506A071ED445F0040384F8303014
:10155000AB0767610DD4204600F0DCFF124B0F2172
:10156000C4E90137204601F0E1F8BDE8F84005F094
:10157000F3B9A068394605F033FA0028EBD0BDE88E
:10158000F84005F0E9B96069394605F029FA002804
:10159000DAD0064B064820221A6002F087FF01F0DD
:1015A00095F800BFA91201080513010818010020D1
:1015B0009474010800B50346D3E9011285B01B6895
:1015C000039201A8CDE90131FFF7A4FF05B05DF852
:1015D00004FB00BFF8B5244905460078FFF76EF814
:1015E000044600F097FF04F12800FFF709F890B3D4
:1015F0002E7994F83050371E18BF012704F11803D4
:1016000093E803003A4604F05DFB85F01001B6FA5A
:1016100086F35B09C1F300118B4201D0236A2BB919
:1016200005F010053D4384F83050F8BD05F0DCF9B5
:1016300005F01005236A3D43184445F004050B4BA3
:1016400084F83050C4E9013060610E212046BDE8C5
:10165000F84001F06BB8064B064821221A6002F0F0
:1016600025FF01F033F800BFA91201080513010896
:10167000180100200475010830B583B0FF23124D16
:101680008DF8073013E094F8302093E8030002F05F
:10169000100204F017FB94F8303013F0100318BF59
:1016A000112304F1280084F83030FEF7C5FF2946E5
:1016B0000DF10700FFF74EF8044600F1180300286B
:1016C000E1D103B030BD00BFA912010800B5034647
:1016D00083B0D3E90012684604F0A8FA03B05DF8BD
:1016E00004FB00BF024900781022FFF707B800BFD3
:1016F000E51601080149FEF7E1BF00BFE516010844
:1017000030B5C3680D4985B0044603F07F03007807
:101710000193FEF7D3FF02ADD4E901120446019B09
:10172000284604F08DFC95E80300237B43F0020378
:1017300084E80300237305B030BD00BFE51601083F
:10174000037B816043F001030373704770B50E495A
:1017500004460078FEF7B2FF0546A0682479FFF73B
:101760009FFA2A7BD207034606D5A86821461A4667
:10177000BDE8704003F060BD95E803002246BDE877
:10178000704004F0DDBC00BFE51601082DE9F04310
:1017900083B006781949044602AF3046FEF78EFF43
:1017A0000546A06894F80480FFF77AFA247BE21DCE
:1017B00002F4FC72ADEB020D2A7BD20703460DF159
:1017C000080913D5A868CDF800901A46414623466B
:1017D00003F048FD0A4803F09BF84B462246314689
:1017E000FFF750FB0437BD46BDE8F083CDE9004963
:1017F000424695E8030004F0D3FCEBE7E516010848
:10180000347501082DE9F04B84B005463A4900785B
:1018100002AFFEF753FF8046A8682C79FFF740FA25
:10182000EE68F20762D4C6F34706386004EB060B95
:101830002869FFF735FA0BF1070298F80C307B6046
:1018400022F007023B68ADEB020D0DF108091946C5
:1018500005462246484605F055FC7B6813F0010317
:101860007B603B682AD109EB04020192009698E85C
:101870000300224604F094FC6EB3013E2E44013C6A
:101880004C44013D314615F8012F14F8013F23EA7D
:101890000203237016F8012F8D4243EA02032370DE
:1018A000F1D17B68BBB1D8F808004A465FFA8BF1EA
:1018B00003F0C2FC0837BD46BDE8F08B1A4609EBC1
:1018C0000403D8F8080000932146334603F0CAFC0D
:1018D000002ED2D1E7E798E803004B465FFA8BF27F
:1018E00004F02EFC0837BD46BDE8F08B034802F03B
:1018F000DDFD00F0EBFE00BFE51601085C75010898
:1019000070B50A4B1E68002E82B00CDD084D002415
:101910002A7955F8081B684602F00102013404F0E8
:1019200085F9B442F4D102B070BD00BFA88E0108A1
:10193000A88E010882B070B582B06E4686E80600B7
:10194000044696E80300079304F0AAF9E00622D4BF
:10195000A10627D462062CD4230631D405F044F81E
:1019600005461A481A4C05F037F8A4FB003405EB7D
:10197000944401E004F0FEFF05F036F8214605F03E
:101980002FF80028F6D196E8030002B0BDE87040B9
:1019900002B004F085B907AB93E8030004F080F9C6
:1019A000A106D7D509AB93E8030004F079F96206E4
:1019B000D2D50BAB93E8030004F072F92306CDD522
:1019C0000DAB93E8030004F06BF9C7E770820300E6
:1019D00083DE1B432DE9F04B00F1140305468B46D3
:1019E00093E8030096B00CAE05F11C0386E80300F3
:1019F00093E803000EAB83E8030005F1240393E8AA
:101A0000030010AF05F12C0387E8030093E80300FF
:101A10000DF1480805F1340388E8030093E803005A
:101A20000DF1500989E8030001A9099199E8030023
:101A300005AA03AC2B7A0B920A9482E8030098E87B
:101A4000030084E8030097E80300099A82E8030092
:101A50008BEA03000F9B009396E806000E9BFFF7AE
:101A600069FF4FEA0B132B7204F0BEFF04461748C0
:101A700004F0B2FF03461648A0FB032304EB934493
:101A800001E004F077FF04F0AFFF214604F0A8FF67
:101A90000028F6D199E803000B9B2D7A83E8030018
:101AA00098E803000A9B83E8030097E80300099B7A
:101AB00083E803000F9C0E9B96E806008BEA050066
:101AC0000094FFF737FF16B0BDE8F08BB01E04009E
:101AD00083DE1B43F0B5314983B005463C220078D4
:101AE000FEF70CFE6C46064669682046002204F0AC
:101AF0009DF894E8030006F10C0383E8030000223C
:101B00002046A96804F092F894E8030006F1140353
:101B100083E8030000222046E96804F087F894E88F
:101B2000030006F11C0383E8030000222046296914
:101B300004F07CF894E8030006F1240383E8030032
:101B400000222046696904F071F894E8030006F168
:101B50002C0383E8030000222046A96904F066F8FC
:101B600094E8030006F1340383E8030004F0F2FE76
:101B700004F03AFF002104463046FFF72BFF04F043
:101B800033FF074604F0E8FEEB693A1B9A4202D2A3
:101B90002344DB1B736003B0F0BD00BFD51A0108FE
:101BA0002DE9F843174904460078FEF787FD00F158
:101BB0000C038046002293E8030004F083F8D4E984
:101BC0000170FFF76DF817F0FF07D8E900450646EA
:101BD00014D000EB070916F8017B01E004F0CAFEFF
:101BE00004F002FF001B8542F8D839464046FFF753
:101BF000F1FE04F0F9FE4E450446ECD1C8F8004071
:101C0000BDE8F883D51A01082DE9F84317490446C1
:101C10000078FEF753FD00F10C038046012293E8A3
:101C2000030004F04FF8D4E90170FFF739F817F01A
:101C3000FF07D8E90045064614D000EB070916F85F
:101C4000017B01E004F096FE04F0CEFE001B85420D
:101C5000F8D839464046FFF7BDFE04F0C5FE4E45B4
:101C60000446ECD1C8F80040BDE8F883D51A010855
:101C700070B582B0FF231D4D8DF80730002627E098
:101C800093E8030004F01EF804F1140393E8030042
:101C9000002204F017F804F11C0393E8030000226B
:101CA00004F010F804F1240393E80300002204F088
:101CB00009F804F12C0393E80300002204F002F871
:101CC00004F1340393E80300002203F0FBFF2672C3
:101CD00029460DF10700FEF73DFD0022044600F104
:101CE0000C030028CCD102B070BD00BFD51A01088A
:101CF0002DE9F04B00F10C0203460D4692E803007B
:101D000084B06F46143387E8030093E803000DF1B5
:101D1000080B8BE80300DFF88C90DFF88C80082636
:101D20002B0638D404F060FE0446484604F054FE06
:101D3000A8FB002304EB934401E004F01BFE04F035
:101D400053FE214604F04CFE0028F6D197E803002C
:101D500003F0A6FF04F048FE0446484604F03CFEAB
:101D6000A8FB002304EB934401E004F003FE04F01D
:101D70003BFE214604F034FE0028F6D197E803002C
:101D8000013E03F08DFF6D0016F0FF06EDB2C7D1E6
:101D900004B0BDE8F08B9BE80300ED4303F080FF47
:101DA000EDB2BFE7400D030083DE1B43F0B52549CC
:101DB00083B005461C220078FEF7A0FC6E46044660
:101DC000A9683046002203F031FF96E8030004F1D1
:101DD0000C0383E8030000223046E96803F026FF85
:101DE00096E8030004F1140383E80300012230465F
:101DF000696803F01BFFF8212046FFF779FF2021D7
:101E00002046FFF775FF04F0A5FD04F0EDFD00216D
:101E100006462046FFF76CFF04F0E6FD074604F097
:101E20009BFD27602B69BA1B9A4202D23344DB1B0D
:101E300063606869824202D20644F71BA76003B060
:101E4000F0BD00BFAD1D01082DE9F04B17460E4651
:101E500017F801BB056844680BF0F0019146804615
:101E6000FFF746FF01E004F085FD04F0BDFD401BD7
:101E70008442F8D84FEA0B1101F0F0014046FFF719
:101E800037FF04F0B1FD012ED8F8085004461DD0EC
:101E9000B31EDBB20233994417F8016B404606F0DB
:101EA000F001FFF725FF01E004F064FD04F09CFD64
:101EB000001B8542F8D8310101F0F0014046FFF7E0
:101EC00017FF04F091FD4F450446E5D1C8F80040E6
:101ED000BDE8F08B70B50B4904460078FEF7EEFBC9
:101EE000F8210546FFF704FF2679A068FEF7D8FE23
:101EF00006B970BD024631462846BDE87040FFF77E
:101F0000A3BF00BFAD1D010870B50B4904460078A2
:101F1000FEF7D4FBFA210546FFF7EAFE2679A06812
:101F2000FEF7BEFE06B970BD024631462846BDE842
:101F30007040FFF789BF00BFAD1D010830B583B009
:101F4000FF230D4D8DF8073009E093E803001434AA
:101F500003F0B8FE94E80300002203F0B3FE294624
:101F60000DF10700FEF7F6FB0022044600F10C031A
:101F70000028EAD103B030BDAD1D010870B582B0B4
:101F800004466D4641680022284603F04FFEA368D0
:101F90009EB21B0412D406F118020C49207892B2AA
:101FA000FEF7ACFB034695E8030083E80300D4E9A1
:101FB00003129E8299601A6102B070BD044B0548FD
:101FC0001A221A6002F072FA00F080FB7D1F0108ED
:101FD000180100208475010870B511490446007885
:101FE000FEF76CFB0346D4E9026065681C46FEF709
:101FF00057FE2B0401460AD4A28AAB19934206D895
:10200000163532466019BDE8704005F07BB8054BC7
:1020100005481B221A6002F049FA00F057FB00BF86
:102020007D1F010818010020A07501082DE9F04B63
:102030002DED028B0378624988B0184608EE103AFD
:10204000FEF73CFBD0E90354059004F0CDFC401BA7
:10205000844206D904F08EFC04F0C6FC401B844286
:10206000F8D8059D95E8030005F11602AF8A03979D
:1020700006AE86E803000492029204F0B5FCAB6859
:1020800001930446002F50D0DFF84891029B13F8CB
:10209000017B02934FF008083B064A484BD504F0F9
:1020A0009BFCA9FB0035AD0C04F09EFC001B854297
:1020B000FAD804F04FFC04F097FC054696E80300BC
:1020C00003F0E4FD04F048FC019B2C1BA3425FD904
:1020D0003D4804F081FCA9FB00347F00A40C04F00F
:1020E00083FC401B8442FAD804F034FC96E80300D9
:1020F00003F0CCFD04F030FC04F076FC834633485A
:1021000004F06AFCA9FB0034A40C04F06DFCA0EB05
:102110000B008442F9D82C46B8F10108BCD1DDE9A6
:1021200003231344029A9A42B0D104F05DFC059B4C
:102130000122D86036E004F04FFCA9FB0035AD0C5D
:1021400004F052FC001B8542FAD804F003FC04F0B2
:102150004BFC834696E8030003F098FD1B4804F00F
:102160003BFCA9FB0035AD0C04F03EFCA0EB0B00E2
:102170008542F9D896E8030003F088FD04F0ECFBF3
:10218000019BABEB0404A34202D97F005C46C3E78A
:10219000002296E8030003F095FD04F025FC059B62
:1021A0000022D8600A48019202F0B2FB019A18EEB0
:1021B000101A08B0BDEC028BBDE8F04BFEF762BE12
:1021C0007D1F0108D012130010EB0900400D030021
:1021D000C075010883DE1B4330B50C4983B004464B
:1021E0002C220078FEF78AFA6D4603466168A268E1
:1021F00028461C4603F0A6FD95E80300044A04F1B6
:10220000240383E80300626003B030BDD9210108D4
:102210001522010870B58369044600F1240292E892
:10222000030003F00105A66803F0B4FD854203D066
:10223000A369E6610133A3616069314604F0D0FB14
:1022400028B9D4E9023213440120A36070BD94F888
:10225000202023690748334442F0010284F82020FB
:10226000636100F0E3F9D4E9023213440120A36072
:1022700070BD00BF9800002038B50A4905460078B7
:10228000FEF71CFA044600F045F96B68A360AA68E3
:10229000E260EA682046C4E904233821BDE83840FA
:1022A00000F044BAD921010870B51C4886B000F08E
:1022B000C5F980B3FF231A4D1A4E8DF81730294601
:1022C0000DF11700FEF746FA044620B394F82030CB
:1022D000DB07F4D504F03EFB94F82010A268A36954
:1022E000039221F0010184F820100293E46904F0C4
:1022F00033FB304602F00CFBDDE902329DF817108B
:102300000094FEF7BFFD29460DF11700FEF722FAF3
:1023100004460028DAD106B070BD00BF9800002046
:10232000D9210108E475010838B5027B81680446AB
:10233000007903F03BFD0949054620222078FEF78D
:10234000DDF9D4E90412064BC56081824360026165
:10235000BDE838400C211830FEF772B92923010876
:1023600065230108F8B500F1180604463046FEF76B
:102370005DF9078905463946E06803F0F9FD28460E
:10238000FEF71CF93046FEF73BF960B1A38ABB4269
:1023900024D0206900B9F8BDA368114A1844C4E9E3
:1023A00001200120F8BD3046FEF730F9A38A4568C8
:1023B000BB4201D0236913B9A5600120F8BDA06814
:1023C0002946184404F00CFB0028F5D0054B0648BC
:1023D00018221A6002F06AF800F078F90020F8BDBF
:1023E000ED230108180100202076010808B5044BF0
:1023F000044817221A6002F059F800F067F900BF8C
:10240000180100205076010870B51C490546007877
:10241000FEF754F90646FEF7D9F86B684360AB68DF
:102420000381044604F096FA06F118012046FEF7EF
:10243000EFF8054604F090FA05B970BD304600F09B
:1024400069F80F4B72689A4209D063680D4A3046AA
:10245000C6E901232D21BDE8704000F067B961682D
:10246000B06804F0BDFA0028EFD0074B07481922E6
:102470001A6002F01BF800F029F900BF29230108B7
:10248000ED230108652301081801002020760108CA
:1024900070B582B0FF230C4D0C4E8DF8073008E06C
:1024A000E068A18A03F064FD666004F11800FEF79D
:1024B000C3F829460DF10700FEF74CF90446002841
:1024C000EED102B070BD00BF2923010865230108C9
:1024D000027A4168007803F069BC00BF00207047B1
:1024E000084B094810B500221A7204F075FA074A21
:1024F000074994680346234403F100440120936094
:102500008C6010BD04000020A08601001C0000208B
:102510002800002010B5044604F020FA0E490B688C
:10252000A34202D111E0A3420CD01A461B68002B33
:10253000F9D14B68A34204BF084B4B60BDE8104083
:1025400004F010BA23681360F3E7054BA2689A60A1
:1025500022681A600B60ECE7040000201C000020D9
:10256000100000202DE9F8431C4F3E687368304688
:102570003BBB01F0ABF9B568336838B399682846BE
:1025800004F02EFA10B12846BDE8F8837C68336861
:10259000A168D3F808903B60284604F021FA00B106
:1025A0003C68A04624682846A16804F019FA00286F
:1025B000F7D04D4634607E60C8F800602846BDE81C
:1025C000F8839847B56833680028D7D17A689D6842
:1025D0003B60B242D7D17B60D5E700BF040000204A
:1025E000074B084A0849094810B49C6894605DF894
:1025F000044B0A604B601360186004F0FBB900BF25
:102600001C000020100000200400002028000020F2
:10261000014B00221A72704704000020024B187A06
:10262000C043C0F3C010704704000020024B0022DA
:102630001A720123037070470400002003780246D9
:10264000D8B210B10023137001207047024B587AA2
:10265000003818BF012070470400002010B506485C
:1026600002F056F9054B064A06491B6812680978BC
:10267000BDE81040FEF706BC7C760108A0000020F3
:102680009C0000200001002008B50A4802F040F933
:10269000094B0A4A0A491B6809781268FEF7F2FBDF
:1026A000084802F035F9084B997ABDE80840FEF772
:1026B000E9BB00BF7C760108A00000209C00002040
:1026C00000010020B07601080400002000B583B0AE
:1026D000019004F03FF901990148FDF7CFFD00BFDB
:1026E000A400002008B5024801F0E0FEFFF7EEFF6D
:1026F000D476010808B5064A537A23B1022B1CBFD1
:102700000023537208BD034801F0D0FEFFF7DEFF3F
:1027100004000020EC76010808B5034B5B7A03B196
:1027200008BDFFF7D3FF00BF040000202DE9F04BE8
:10273000DFF8949085680E46074604F00FF9D9F843
:1027400000408046A168284604F04AF970B9264640
:1027500024682846A16804F043F90028F7D03C60BB
:1027600037604046BDE8F04B04F0FCB804F03CF99B
:1027700083460146284604F033F958B90D4BC9F891
:1027800000309C4208BF24683C609D601F6004F0DC
:1027900031F9E6E7084B09481D60094BC3F800B062
:1027A000084B1E7001F082FE99F80930002BE5D12C
:1027B000FFF78CFF10000020A00000201077010818
:1027C0009C0000200001002004000020F0B583B030
:1027D00001F002FE02F0DEF902F092FA02F066FB6E
:1027E0002E4802F095F8FEF74DFB04F0B3F82C48A4
:1027F000FDF73EFD044688BB04F0AEF804F0F4F8A3
:10280000284D0446FF2719E004F0EEF8241A04F0DE
:10281000A1F895F90830CBB904F09EF804F0E4F87B
:10282000261801232B7201F003FE04F0DDF80146A7
:1028300004463046FEF76EF802F044FB04F09AF8C6
:1028400095F90830002BDFD12646EAE72F7204F015
:102850008DF895F90830002BF9D1DDE704F07AF80E
:1028600004F0C2F80F4B5A7A014602B99C720D4C23
:10287000019102236372FFF7B3FE01F0BBFD012358
:10288000637204F069F8FFF7E9FE074802F040F8C8
:10289000A27A0199FEF7F6FAAEE700BF20770108A9
:1028A000A4000020040000202C77010838B5074957
:1028B000054650220078FDF721FF0446044B287995
:1028C000636000F0AFFD206138BD00BFAD28010896
:1028D000D528010808B5034604481A7D42F00102D4
:1028E0001A75FFF7A3FE002008BD00BF04010020F9
:1028F00070B5104905460078FDF7E0FE0446002655
:10290000FFF708FE26756B6803B970BDE36004F13C
:10291000160003F01BF804F01DF804F065F8E368F6
:102920001844A06031462046FFF700FFBDE8704024
:1029300004F012B8AD280108F0B5134985B0064679
:102940000078FDF7BBFEB9230546ADF80C3004F066
:102950004BF8012103AB02220746286900F0B8FDBD
:1029600004F042F89DF80D1021F08001202909D8CB
:1029700001EB8104C31B317800943A4605F116003F
:1029800003F002F805B0F0BDAD2801082DE9F043D1
:10299000534885B0FFF752FE88B1FF23514D524E88
:1029A0004F4F8DF8033002E0237DDB070AD4294620
:1029B0000DF10300FDF7CEFE04460028F4D105B06A
:1029C000BDE8F08396E807000DF1040C6346ACE81F
:1029D00003008CF8002020699DF803800922012162
:1029E00000F076FDA27E9DF8061002F11B0311F0A7
:1029F000F000234425D0F02823D0A118FF221A711B
:102A0000DA709A705A70CA76A37E0533DBB22E2B29
:102A1000A37604D9414604F1160002F09DFF237D00
:102A200023F00103237503F095FF03F0DDFFE36856
:102A30001844A06000212046FFF778FE03F08CFFC9
:102A4000B5E79DF808C01CF0F00001D0F028D4D103
:102A50009DF80A0010F0F00E34D19DF80BE0BEF1A5
:102A6000900FCAD19DF80C9029F08009B9F1200F80
:102A7000C3D801F01F0141EA40118000224400F058
:102A800060000CF01F0C9DF805E082F81BE040EAA6
:102A90000C0C9DF8070058709DF809209A70D970A9
:102AA00083F804C0A37E0533DBB22E2BA3760DD8AA
:102AB000B9F11E0F10D9238B013323833846FFF75A
:102AC000B5FD74E7BEF1F00F97D1C6E7414604F1BA
:102AD000160002F041FFEBE7B9F1010F9FD9EDE7D6
:102AE00004010020AD2801087C71010870B5067A48
:102AF000032E044610D8104900785022FDF7FEFD41
:102B000005460E4B20796B6000F08CFC286100F0CC
:102B1000D3FC48B16E7570BD094B0A4814221A6087
:102B200001F0C4FCFFF7D2FD054B074815221A60DF
:102B300001F0BCFCFFF7CAFDED2A01084D2B01088E
:102B400018010020547701087077010810B5037D43
:102B50005A0704460BD5C37D0133C3750648FFF7FA
:102B600065FDD4E9023213440120A36010BD43F097
:102B700004030375F2E700BF0801002010B4847D50
:102B8000521A34B104F1FF3C012101FA0CF10A445C
:102B9000E240FE2A0AD8017F4418033162771A0AFC
:102BA000A377E2775DF8044B01777047037FC21883
:102BB00001219177FF2400215477D17703335DF809
:102BC000044B0377704700BF38B50E4904460078C0
:102BD000FDF774FD0546FFF79DFC00232B75A368E8
:102BE00003B938BD6368AB60A368EB6005F11800FA
:102BF00002F0ACFEE368AB7528464A21BDE83840D8
:102C0000FFF794BDED2A01082DE9F04390F800800C
:102C10003249054685B04046FDF750FD0446A86898
:102C20002F79FEF73DF894F81590B9F1020F05469B
:102C300023D003F0D9FE03463A46206901211C4601
:102C40002B4600F045FC03F0CFFE0646322003F091
:102C5000C3FE331B834288BF0027B9F1010F18BFA1
:102C600026461F4801F054FE00953B463246414639
:102C7000FEF708F905B0BDE8F0830DF108092169F8
:102C8000484600F01DFC99E80300002203F01AF802
:102C900003F0AAFE0646012003F09EFE064401E072
:102CA00003F068FE03F0A0FE0146304603F098FEF4
:102CB0000028F5D003F04EFE99E80300012203F04E
:102CC00001F803F091FE064603F046FE20692B460C
:102CD0003A46012100F0FCFBC3E700BFED2A0108E2
:102CE000907701082DE9F04BC44888B0FFF7A6FCA7
:102CF000002856D0FF23C24E8DF80B3000253146F8
:102D00000DF10B00FDF726FD0446002849D0237D78
:102D10005F07F4D503F01EFE94F817B02575E5752E
:102D2000D4F8088003F018FEE768A8EB07030193C6
:102D3000BBF1000F19D04FF0FF0902E0BBF1010B0E
:102D400013D0237FE1180333DBB2302B81F81D90C1
:102D50008D77CD772377F1D99DF80B1004F118000A
:102D600002F0FAFDBBF1010BEBD194F815B0BBF109
:102D7000000F19D0BBF1010F57D0BBF1020F76D075
:102D8000237F302BBBD904F118009DF80B1002F003
:102D9000E3FD31460DF10B00FDF7DCFC0446002895
:102DA000B5D108B0BDE8F08B4FF03208ADF8148013
:102DB00003F01AFE05AB022201210746206900F04C
:102DC00087FB03F011FE03464046A3EB070803F020
:102DD00003FE80450BD9237FE218FF21033351778F
:102DE000DBB2022182F81FB091772377C9E79DF902
:102DF00014209DF81430002A0BDA237FE218FF21FB
:102E000003335177DBB2032182F81FB09177237728
:102E1000B7E79DF8150001995B0243EA40033A4683
:102E20002046FFF7ABFE237FABE74FF67F63ADF89D
:102E3000143003F0D9FD05AB022200218046206941
:102E400000F046FB03F0D0FDA0EB08080746322057
:102E500003F0C2FD804573D9237FE218FF210333BD
:102E60005177DBB20221D5779177237789E70DF18E
:102E70000C0B2169584600F023FB9BE8030000225D
:102E800002F020FF03F0B0FD8146012003F0A4FD15
:102E9000814401E003F06EFD03F0A6FD01464846C3
:102EA00003F09EFD0028F5D003F054FD9BE80300DD
:102EB000012202F007FF03F097FD814603F04CFD6D
:102EC00042F284330593ADF81C50069520690A221E
:102ED000012105AB00F0FCFA0DF115010DF11B000D
:102EE000052211F8013F4FF0080B5A40530012F031
:102EF000800F08BF520083F01D0314BFDAB2D2B2B4
:102F0000BBF1010BF2D18842EBD1D3439DF81D20D8
:102F1000DBB29A427FF471AF9DF81C30DB0641D5DD
:102F20009DF91630002B53DB237FE218FF2103337A
:102F30005177DBB2042182F81FB09177237720E725
:102F4000C0228DF814208DF8155005AB5946022289
:102F5000206900F0BDFA9DF814309DF8151083EA41
:102F6000010282EA121282EA920282EA520212F00C
:102F700001020CD1580621D5237FE1180333CA770B
:102F8000FF20DBB2052248778A772377F9E6237F93
:102F9000E218FF2103335177DBB20321D577917714
:102FA0002377EEE6237FE218FF2103335177DBB26C
:102FB000052182F81FB091772377E2E6890041EA84
:102FC00083233A4601992046FFF7D8FD237FD8E6B0
:102FD00040F2555003F000FDA7EB0807B9448145C6
:102FE00010D9237FE218FF2103335177DBB201218F
:102FF00082F81FB091772377C3E600BF0801002055
:10300000ED2A01089DF817209DF816309DF81A004A
:10301000520042EA4322237FE11803338A77C0F348
:103020004500DBB2120A4877CA772377A9E600BFCA
:1030300038B50749054654220078FDF75FFB044682
:10304000044B28796360FEF755FB206138BD00BF53
:10305000313001085930010808B5034604481A7E8A
:1030600042F001021A76FFF7E1FA002008BD00BF26
:103070000C01002070B5114905460078FDF71EFBD4
:1030800004460026FFF746FA26766B6803B970BD42
:10309000E36004F11A0002F059FC666103F05AFC87
:1030A00003F0A2FCE3681844A06031462046FFF715
:1030B0003DFBBDE8704003F04FBC00BF313001085C
:1030C00070B5214986B006460078FDF7F7FA3A2335
:1030D0008DF80C3001220DF113030169CDE90023B5
:1030E000044603AB03C903F05BF89DF81330DB061D
:1030F00002D5A38B0133A38372238DF8103003F024
:1031000073FC05AB2269019302230093054604ABCF
:1031100092E80300012203F043F803F065FC9DF8F8
:1031200014C03178431B4FEA0C2C04F11A009DF8AF
:1031300015400CF4F85C44EA0C042A46009402F0B2
:1031400023FC06B070BD00BF313001082DE9F0410D
:10315000364884B0FFF772FA80B1FF23344D334E06
:103160008DF80B3002E0237EDB070AD429460DF1EF
:103170000B00FDF7EFFA04460028F4D104B0BDE8D7
:10318000F081E38A9DF80B802F2B1FD903AF7422A7
:103190008DF80C2022693B4604F11F01302700976F
:1031A000019192E80300012202F0FAFFE38AA77777
:1031B000303BE382414604F11A0002F0CDFBE38A82
:1031C0002F2B21D93046FFF731FACFE7722223693E
:1031D0008DF8082003AF02220092019793E80300C4
:1031E000012202AB02F0DCFF9DF80C309DF80D20AF
:1031F000A08A1B0203F4F85342EA0301884238BF55
:10320000A1822F29E182C2DC237E23F001032376F1
:1032100003F0A0FB03F0E8FBE3681844A060002182
:103220002046FFF783FA03F097FB9FE70C0100208D
:10323000313001082DE9F04190F81080B8F1030F0A
:1032400084B0054631D8007800F0ECF807461C2021
:10325000FDF790F902AE044669683046012202F09B
:1032600071FD96E8030084E803006E46A9683046C5
:10327000002202F0DBFC96E8030004F1080383E877
:1032800003000022E968304602F0D0FC96E8030013
:1032900004F1100383E803002146384684F81880BF
:1032A00004B0BDE8F04100F0F1B8044B044813222B
:1032B0001A6001F0FBF8FFF709FA00BF18010020BF
:1032C000CC770108027E00F1100393E8030002F0BE
:1032D000020202F0F7BC00BF2DE9F04B82B0541E91
:1032E00007460091E4B2002A4DD003F1FF39234490
:1032F000019300F1100600F1080819F8015F4FF082
:10330000080B00241AE096E8030002F0C9FC05F05F
:10331000800298E8030002F0D5FC96E8030002F072
:10332000BFFC97E8030002F035FD6400E4B26D00D5
:103330000443BBF1010BEDB2E4B21DD03B7EDB07D1
:1033400005F08002DFD498E8030002F0BBFC96E8A9
:10335000030002F0A5FC97E8030002F01BFD6400E7
:10336000E4B2044396E8030002F09AFC6D00BBF15E
:10337000010BEDB2E4B2E1D1009B0BB189F8004042
:10338000019B4B45B9D102B0BDE8F08B70B5044646
:1033900082B00F4900781422FDF7B0F9A668616881
:1033A0006D46B6FA86F252090446284602F03EFC03
:1033B00095E8030004F1080383E80300002E94F964
:1033C000103014BF092201221343237402B070BDD0
:1033D0008D330108F8B50D4904460079FDF76EF903
:1033E000267A0B4906F1080207462078FDF786F990
:1033F00005460671E0682F60FDF752FC3246014633
:10340000681DBDE8F84003F07DBE00BF8D330108A4
:10341000D5330108024900781422FDF76FB900BFC7
:103420008D3301080149FDF749B900BF8D3301080B
:1034300070B505461249007882B0FDF73FF92A7A47
:10344000032A044613D8037C13F0060F0FD16E46EF
:10345000EB686968304602F005FF96E80300237CBC
:1034600043F0040384E80300237402B070BD054BED
:10347000054811221A6001F019F8FFF727F900BF7B
:103480008D33010818010020CC77010808B5037CB2
:1034900013F0060F04D143F002030374016008BD6A
:1034A000034B044812221A6001F000F8FFF70EF9EE
:1034B00018010020CC770108007C00F00100704763
:1034C0000831034603C983E803001846704700BF6C
:1034D0002DE9F043057C15F0060F83B004460E4637
:1034E000174699461DD0A9070DD50068FFF7EAFEDB
:1034F000EA0735D420684B463A46314603B0BDE86A
:10350000F043FFF7E9BED0E9000102F0FDFEEB0752
:103510000AD494E803003B46CDF80090324602F00E
:1035200005FF03B0BDE8F08304F10808C5F3C0024D
:1035300098E8030002F0C6FBCDF8009094E8030081
:103540003B463246ED0802F0F1FE98E8030085F0B4
:10355000010202F0010203B0BDE8F04302F0B2BB89
:1035600004F1080898E80300C5F3C00202F0AAFBC2
:1035700020684B463A463146ED08FFF7ADFEE4E7DA
:1035800070B506780F4982B004463046FDF796F8CC
:103590000346D4E901501C46FDF782FBEAB203461C
:1035A00001212046CDE90023FFF792FF064801F0F4
:1035B000AFF9DDE90023314602B0BDE87040FDF708
:1035C00061BC00BF8D330108E077010830B50A49BE
:1035D00083B004460078FDF771F822790192054620
:1035E000A068FDF75DFB019A03460021284603B061
:1035F000BDE83040FFF76CBF8D33010810B582B0D5
:10360000FF23154C8DF8073002E0027CD3071AD453
:1036100021460DF10700FDF79DF80028F5D1FF23A5
:103620000E4C8DF8073003E002790068FFF750FF79
:1036300021460DF10700FDF78DF80021431D0028FC
:10364000F2D102B010BD82F00802083003C8C2F304
:10365000C00202F037FBDBE78D330108D5330108E8
:1036600038B500F1340504462846FCF7C9FF10B10F
:103670000020606138BD2846FCF7D8FFB0F908305B
:10368000426823821344E36094F84430D906054627
:103690000FD5A168438963610A44A2602A7BD207DF
:1036A00011D4226B134423632846FCF787FF0120C3
:1036B00038BDA16943890A44A261A2605A006261CF
:1036C0002A7BD207EDD5216B04F128025B1A236314
:1036D00092E8030002F0DAFAE6E700BF70B500F105
:1036E0002003044693E8030002F0D0FA03F07CF9CB
:1036F0006369E169013BDA07636100EB010503D50A
:10370000A5600126304670BD83B1E268A069B4F9B6
:10371000103010441344A061E360294603F060F9BF
:103720000028EDD1A369A3600126EBE72046FFF74F
:1037300097FF06460028E5D0A068294603F050F917
:103740000028DFD0A3684FF47A705E1B03F044F9C1
:103750004042B042D4DD044B04480E221A6000F00F
:10376000A5FEFEF7B3FF00BF180100200C7801088A
:103770002DE9F04105463249007882B04822FCF735
:10378000BDFFEF68002F044627DD04226E4680F857
:1037900044206968304602F049FA96E8030004F1D3
:1037A000200383E803000022A968304602F03EFAB5
:1037B00096E8030004F1280383E803004FF0404338
:1037C00023632B69E361102104F13400FCF738FF17
:1037D0001C4B636002B0BDE8F0814FF000086E46FC
:1037E00080F8448069684246304602F01FFA96E845
:1037F000030004F1200383E803004246A968304631
:1038000002F014FA96E8030004F1280383E80300A9
:103810004FF0404323632B69E361102104F134002E
:10382000FCF70EFFE369002BD2D1002FD0D094F823
:10383000443043F0100384F8443002B0BDE8F08116
:1038400071370108DD36010838B50446A0F13C05A2
:103850002846FEF75FFE237A54F80C1C002244F839
:10386000342C44F8242C54F8282CD8064CBF891A40
:10387000A1EB520103F01403002943F00803C8BF71
:1038800049420022237205F1280344F80C1C44F835
:10389000282C93E8030002F015FA227AD3060DD5FE
:1038A000083C03E0FCF7C2FEFCF788FE2046FCF76C
:1038B000A7FE03462046002BF4D038BD203595E8FE
:1038C000030002F0040202F0FDF9E9E700F1200331
:1038D00010B5044693E8030002F0D8F96369013B90
:1038E0000AD0D4E90210B4F9102063610144024403
:1038F000C4E90212012010BD2046BDE81040FFF7C8
:10390000AFBE00BF70B5294905460078FCF7D6FE6A
:103910000646FCF75BFE6B6843602B8943810446D7
:10392000002B3BD0EA6802810023037303F012F8F6
:1039300096F8443003F00101C3F34002914205D0F0
:10394000227B42F0010283F0010322737269D2B933
:103950001A0711D406F1340186F844302046FCF7EA
:1039600057FE3046FFF77CFE30461621FEF7DEFE9E
:10397000BDE8704002F0F0BF2046FCF71FFEBDE836
:10398000704002F0E9BF86F8443006F13401204669
:10399000FCF73EFEBDE8704002F0DEBF044B054878
:1039A0000F221A6000F082FDFEF790FE71370108C9
:1039B000180100202478010838B50C490446007825
:1039C000FCF77CFE63680446002B14BF022500252B
:1039D00002F0C0FF94F8443023F002031D4384F842
:1039E0004450BDE8384002F0B7BF00BF713701084E
:1039F00038B50F4905460078FCF760FE04466D684F
:103A000002F0A8FF63695BB994F84430A56023F025
:103A10000803A56184F84430BDE8384002F09CBF3B
:103A2000044B054810221A6000F040FDFEF74EFEE0
:103A300071370108180100203C78010870B506783C
:103A40000F493046FCF73AFE054602F083FF95F831
:103A500044302C6B6A69DB064CBFA41AA4EB5204F9
:103A600002F07AFF002CB8BF6442064800F050FF15
:103A700004F140423146BDE87040FDF703BA00BF93
:103A8000713701086478010838B5084904460078A0
:103A9000FCF714FE0546207900F07CFB05F13C01A3
:103AA000034ABDE8384000F07BBB00BF7137010816
:103AB0004938010830B583B0FF230B4D8DF807302E
:103AC00006E0FCF7B9FD002104F13C00FFF7BCFE65
:103AD00029460DF10700FCF73DFE04463430002C6A
:103AE000EFD103B030BD00BF7137010810B50446F7
:103AF0000648FEF79BFDD4E90231627F42F00102E5
:103B00000B446277A360012010BD00BF10010020AC
:103B100010B5047A032C08D8084900782022FCF755
:103B2000EDFD074B0477436010BD064B06480322AA
:103B30001A6000F0BBFCFEF7C9FD00BF113B010895
:103B4000ED3A0108180100208478010838B50D49C4
:103B500004460078FCF7B2FD0B4B054600221A70B4
:103B6000FEF7D8FC6368AB60A368EB6003B938BDAF
:103B7000E3682B6123696B6128464421BDE8384026
:103B8000FEF7D4BD113B01080D0100202DE9F04BDB
:103B90003D4886B0FEF752FD002849D0FF233B4D3B
:103BA0003B4FDFF8F0808DF81330002629460DF1E9
:103BB0001300FCF7CFFD0446002839D0637FDA07F5
:103BC000F4D502F0C7FE637FD4F8089023F0010318
:103BD000637702F0C1FE237F032BE7D8DFE803F011
:103BE00046392B02A0699DF813B0ADF8146005ABFF
:103BF00002220121FFF76CFCBDF8144064BAA4B2A4
:103C0000384600F085FE23464A4659460096FDF7A1
:103C100039F96307CAD5404600F048FCFEF77CFD41
:103C200029460DF11300FCF795FD04460028C5D187
:103C300006B0BDE8F08B9DF813100391384600F0F4
:103C400067FE039900964A4644F22C03FDF71AF9E1
:103C5000ACE79DF813100391384600F059FE039924
:103C600000964A460023FDF70DF99FE79DF81310D3
:103C70000391384600F04CFE039900964A464FF0F7
:103C8000A073FDF7FFF891E710010020113B010838
:103C9000A4780108E07801082DE9F043044685B0D6
:103CA0001A4900783422FCF729FD94F80890D4F8DA
:103CB0000480E768B9F1000202AE054618BF012290
:103CC0004146304602F03EF896E8030005F1140341
:103CD0006E4683E8030001223946304601F0A6FF14
:103CE00096E8030005F10C0383E80300B9F1000F27
:103CF00008BF012322692A6218BF1123B84508BFF3
:103D000043F020032B7705B0BDE8F083993C010810
:103D100038B5044600F10C0393E8030001F0B6FF48
:103D2000637F94F81CC094F81FE0656A0133DBB22E
:103D30008CF0010C734584F81CC00CF0010C29D2E6
:103D400004EBD30203F0070192F828200A4102F0A5
:103D500001029445294607D016E092F82820024136
:103D600002F0010294450FD10133DBB2734504EB3D
:103D7000D30203F007002944EFD3A368064A0B449B
:103D8000C4E90123012038BDA26863770A44A26018
:103D9000012038BD2946F0E7053E010800F10C037B
:103DA00010B5044693E8030001F070FF02F01CFE1A
:103DB000637F227F0133DBB282F00102012B227785
:103DC000637719D0042B05D8A268236A1344A36033
:103DD000012010BDA368626A1A44801A811C226AFD
:103DE00048BF411D02EBA1011844054A6162084425
:103DF000C4E90120012010BDA268801A6062E4E7D6
:103E0000113D010810B5837F0446B3B1027F9306CC
:103E10000AD4A368606A164A002103EB8003617725
:103E2000C4E90123012010BD00F1140393E803004D
:103E300002F0100201F052FFEBE7037F13F0200FB6
:103E400000F10C0393E803004FF001020CD101F0E4
:103E500039FF237F074803F0300343F0090323773A
:103E6000FEF7E4FB002010BD01F0A8FEF1E700BF63
:103E7000FD3E01081401002000F1140310B50446B2
:103E800093E8030001F086FF637F04EBD30C01226B
:103E900003F0070102FA01F19CF8282078B10A43E7
:103EA000D2B28CF82820A27F0133DBB29A4209D922
:103EB000A268616A63770A44A260012010BD22EA09
:103EC0000102EEE7237F13F0200F04F10C0393E8C7
:103ED00003004FF001020CD101F0F4FE237F0648ED
:103EE00003F0300343F009032377FEF79FFB002024
:103EF00010BD01F063FEF1E71401002000F114038E
:103F000010B5044693E8030001F044FF237F68B135
:103F100043F004032377637F5A1C3F2B62770FD84B
:103F2000A368626A13440120A36010BD5B07F2D549
:103F30006077114B63602046BDE81040FFF79CBFDF
:103F4000237F0022A27713F0200F04F10C0393E8E3
:103F500003004FF001020CD001F030FE237F074830
:103F600003F0300343F009032377FEF75FFB0020E3
:103F700010BD01F0A7FEF1E7793E01081401002011
:103F8000F8B5264905460078FCF798FB037F13F047
:103F90000206044600D0F8BDA8682F79FCF780FE21
:103FA0000A2F2D7B014631D80A2D2FD83A4604F12D
:103FB000280003F0A7F8237F667703F0310343F06E
:103FC0000203ED002377FB00E377A5772FB194F888
:103FD000283003F03F032A2B15D0226A104B62626F
:103FE000636002F0B7FC02F0FFFC0546C82002F057
:103FF000F3FC2844A06033212046FEF797FBBDE880
:10400000F84002F0A9BC074B6360EAE7064B07489B
:1040100002221A6000F04AFAFEF758FB993C0108A8
:10402000113D01089D3D010818010020FC780108A0
:1040300070B5184882B0FEF701FB48B3FF23164D58
:10404000164E8DF8073029460DF10700FCF782FB6C
:104050000446E8B1237F1B07F5D502F07BFC237FE4
:1040600023F00803237702F077FC304600F050FC81
:10407000A27F9DF8071004F12803D208FCF702FF85
:1040800029460DF10700FCF765FB04460028E1D145
:1040900002B070BD14010020993C01081479010898
:1040A00030B583B0FF23114D8DF8073008E003C908
:1040B00001F084FD237F03F0300343F001032377F5
:1040C00029460DF10700FCF745FB00F10C01012228
:1040D00004460B4640B1207F8006E8D493E80300F5
:1040E000012201F0EFFDE5E703B030BD993C010886
:1040F00010B50446074894F8203043F0040384F8D0
:104100002030FEF793FAA368A26913440120A3604C
:1041100010BD00BF1C01002008B52422044900780E
:10412000FCF7ECFA034A044B4260036108BD00BF90
:1041300019410108F14001088541010870B590F866
:104140002030DA0704460E4619D5C06984F82110DC
:1041500023F0050343F0040384F8203050B1002518
:10416000D0E900233146E261C0E900559847E06993
:104170000028F5D1BDE870400148FEF757BA70BD80
:104180001C01002008B503460C38997DFFF7D6FFC7
:10419000002008BD0149FCF791BA00BF1941010890
:1041A00070B50C460546164602F0D8FB636843B965
:1041B0003EB1EB69C4E90036EC61BDE8704002F045
:1041C000D1BB044B044801221A6000F06FF9FEF7DE
:1041D0007DFA00BF180100203879010838B51A4966
:1041E00005460078FCF76AFA044602F0B3FB204665
:1041F000FEF790F904F10C00FEF78CF9E36933B196
:1042000000211A461B68C2E90011002BF9D10022D7
:104210000123238484F822206B68A360AB68C4E97F
:10422000063233B9EB6884F82230BDE8384002F03A
:1042300093BB20461D21FEF779FAEB6884F8223003
:10424000BDE8384002F088BB1941010830B511497A
:1042500083B005460078FCF731FA044602F07AFB99
:1042600094F82030DB0704D403B0BDE8304002F0FE
:1042700073BB04F10C000190FEF74CF96B680198D8
:1042800063611C21FEF752FA03B0BDE8304002F032
:1042900063BB00BF1941010870B50678134984B0AB
:1042A00005463046FCF70AFA044602F053FB29792A
:1042B0002046FFF743FF2046FEF72CF9002504F1C6
:1042C0000C00FEF727F994F8213084F8205003936E
:1042D00002F042FB064800F01BFB039B00952A46B8
:1042E0003146FCF7CFFD04B070BD00BF1941010895
:1042F000607901082DE9F0411E4886B0FEF79EF96D
:10430000A0B3FF231C4E1D4F8DF8173031460DF121
:104310001700FCF71FFA044640B394F820305B07FF
:10432000F4D502F061FB054602F014FB94F82080FE
:1043300094F82130039328F0040284F8202002F03E
:104340000BFB9DF817100291384600F0E1FA039B31
:104350000299009508F00102FCF794FD31460DF139
:104360001700FCF7F7F904460028D6D106B0BDE8DF
:10437000F08100BF1C01002019410108607901088B
:1043800070B5144E82B0FF2331460DF107008DF851
:104390000730FCF7DFF900240546C8B1FEF7BAF88C
:1043A00005F10C00FEF7B6F8EB692BB11A461B6855
:1043B000C2E90044002BF9D1EC612C8485F822403D
:1043C00031460DF10700FCF7C5F905460028E5D197
:1043D00002B070BD1941010808B5FCF7BFF8FDF740
:1043E0008FFA01F0CDFF02F033FBBDE8084002F088
:1043F000A7B900BF08B5FCF75BFDFCF737F9FDF77F
:104400003BF9FFF757FBFFF7BBFFFCF76FF8FFF730
:10441000F5F8FEF73DF8FFF743FEFDF78FFDFDF7DA
:1044200027FC02F0A9FABDE8084002F00FBB00BF6C
:1044300008B502F09FFAFFF75DFF02F09BFAFCF768
:1044400007F802F097FAFCF7EFFB02F093FAFFF798
:10445000EFFD02F08FFAFDF727FF02F08BFAFFF76E
:1044600095FB02F087FAFEF791FA02F083FAFEF765
:1044700039FC02F07FFAFEF769FE02F07BFA01F0E8
:1044800029F802F077FA01F0B3F902F073FA01F0BB
:104490006FFF02F06FFA02F05FFB02F06BFA02F0BE
:1044A000A9F9BDE8084002F065BA00BF10B5C949D6
:1044B0000446FBF7EBFE002800F06281C649204667
:1044C000FBF7E4FE002800F05981C4492046FBF7C1
:1044D000DDFE002800F05881C1492046FBF7D6FEDA
:1044E000002800F04F81BF492046FBF7CFFE00288F
:1044F00000F04C81BC492046FBF7C8FE002800F0C4
:104500004981BA492046FBF7C1FE002800F04481EA
:10451000B7492046FBF7BAFE002800F03981B549BB
:104520002046FBF7B3FE002800F03881B249204650
:10453000FBF7ACFE002800F03381B0492046FBF7C2
:10454000A5FE002800F02E81AD492046FBF79EFE17
:10455000002800F02981AB492046FBF797FE002890
:1045600000F02481A8492046FBF790FE002800F0C7
:104570001F81A6492046FBF789FE002800F01A811A
:10458000A3492046FBF782FE002800F01581A149CF
:104590002046FBF77BFE002800F010819E49204654
:1045A000FBF774FE002800F00B819C492046FBF7C6
:1045B0006DFE002800F0068199492046FBF766FE53
:1045C000002800F0018197492046FBF75FFE002894
:1045D00000F0FE8094492046FBF758FE002800F0CA
:1045E000F58092492046FBF751FE002800F08E81AD
:1045F0008F492046FBF74AFE002800F085818D494F
:104600002046FBF743FE002800F07C818A492046C3
:10461000FBF73CFE002800F0738188492046FBF739
:1046200035FE002800F06A8185492046FBF72EFE02
:10463000002800F0618183492046FBF727FE00280F
:1046400000F0588180492046FBF720FE002800F04A
:104650004F817E492046FBF719FE002800F0468175
:104660007B492046FBF712FE002800F03D81794986
:104670002046FBF70BFE002800F0348176492046E7
:10468000FBF704FE002800F02B8174492046FBF75D
:10469000FDFD002800F0228171492046FBF7F6FD60
:1046A000002800F019816F492046FBF7EFFD002834
:1046B00000F010816C492046FBF7E8FD002800F06F
:1046C00007816A492046FBF7E1FD002800F0FE80E3
:1046D00067492046FBF7DAFD002800F0F5806549C0
:1046E0002046FBF7D3FD002800F0EC80624920460D
:1046F000FBF7CCFD002800F0E38060492046FBF783
:10470000C5FD002800F0DA805D492046FBF7BEFDBC
:10471000002800F0D1805B492046FBF7B7FD002858
:1047200000F0C88058492046FBF7B0FD002800F093
:10473000BF8056492046FBF7A9FD002800F0B6804F
:1047400053492046FBF7A2FD002800F0AD805149F7
:104750002046FBF79BFD002800F0A4804E49204630
:10476000FBF794FD002800F09B804C492046FBF7A6
:104770008DFD002814BFFF20342010BD032010BD84
:10478000022010BD052010BD042010BD062010BD64
:10479000092010BD072010BD082010BD0A2010BD43
:1047A0000B2010BD0C2010BD0D2010BD0E2010BD23
:1047B0000F2010BD102010BD112010BD122010BD03
:1047C000132010BD142010BD152010BD172010BDE2
:1047D000162010BDEC76010810770108D476010888
:1047E000F0730108D8730108C0730108FC72010856
:1047F000A0790108387201082472010810720108BA
:104800008C720108CC710108FC710108A0720108CA
:10481000E87101080475010894740108CC7401085A
:10482000687401083C780108247801080C780108B4
:104830003879010888710108CC7701085C75010896
:10484000207601085076010870730108487301084A
:1048500034730108FC780108A0750108847501080B
:10486000CC790108E07801088478010870770108A4
:1048700054770108DC790108F4790108087A010805
:104880001C7A01083C7A0108547A0108607A010810
:10489000747A0108847A0108987A0108C47A0108B8
:1048A000332010BD322010BD312010BD302010BD8E
:1048B0002F2010BD2E2010BD2D2010BD2C2010BD8E
:1048C0002B2010BD2A2010BD292010BD282010BD8E
:1048D000272010BD262010BD252010BD242010BD8E
:1048E000232010BD222010BD212010BD202010BD8E
:1048F0001F2010BD1E2010BD1D2010BD1C2010BD8E
:104900001B2010BD1A2010BD192010BD182010BD8D
:1049100010B56C490446FBF7B9FC002800F0A280F2
:1049200069492046FBF7B2FC002800F099806749EE
:104930002046FBF7ABFC002800F098806449204635
:10494000FBF7A4FC002800F08F8062492046FBF7AB
:104950009DFC002800F08C805F492046FBF796FC08
:10496000002800F089805D492046FBF78FFC002875
:1049700000F084805A492046FBF788FC002879D053
:1049800058492046FBF782FC002879D0564920463A
:10499000FBF77CFC002875D054492046FBF776FCD9
:1049A000002871D052492046FBF770FC00286DD0DA
:1049B00050492046FBF76AFC002869D04E49204642
:1049C000FBF764FC002865D04C492046FBF75EFCF1
:1049D000002861D04A492046FBF758FC00285DD0EA
:1049E00048492046FBF752FC002859D0464920464A
:1049F000FBF74CFC002855D044492046FBF746FC09
:104A0000002851D042492046FBF740FC00284DD0F9
:104A100040492046FBF73AFC00284BD03E4920464F
:104A2000FBF734FC002843D03C492046FBF72EFC22
:104A3000002845D03A492046FBF728FC00283DD005
:104A400038492046FBF722FC002835D0364920465D
:104A5000FBF71CFC354B00280CBF1846002010BD8E
:104A6000334810BD334810BD334810BD334810BD26
:104A7000334810BD334810BD334810BD334810BD16
:104A8000334810BD334810BD334810BD334810BD06
:104A9000334810BD334810BD334810BD334810BDF6
:104AA000334810BD334810BD334810BD334810BDE6
:104AB000334810BD334810BD334810BD334810BDD6
:104AC000334810BD20770108B07601082C77010823
:104AD0007C7601080C730108DC720108C4720108BD
:104AE000B4720108507201081C74010808740108AE
:104AF000647801082C740108607901089C71010830
:104B0000E0770108347501089473010814790108ED
:104B1000C0750108E4750108A478010890770108C0
:104B2000D87A0108107B0108787B0108187C0108FD
:104B3000287C0108207C0108387C0108307C0108B1
:104B4000A87B0108507C0108407C0108487C0108D2
:104B5000587C0108607C0108687C0108707C0108B1
:104B6000B07B0108B87B0108C07B0108C87B010845
:104B7000D07B0108D87B0108E07B0108E87B0108B5
:104B8000F87B0108F07B0108107C0108087C010813
:104B9000007C010810B50D4C82B00121082002F004
:104BA00097F8822241F2030301A92046ADF80420C0
:104BB000ADF8063002F028F82046802102F084F893
:104BC0000221204602F080F802B010BD000C014026
:104BD0004348444AD0F88810434B41F4700110B464
:104BE000C0F88810116841F0010111605468234039
:104BF0005360136823F0847323F4803313601368C5
:104C000023F480231360536823F00F6300204FF4D4
:104C10001F0123F470235360D06210639160D36945
:104C20003249334843F08053D361CB6843F00103EA
:104C3000CB60D36923F08053D361016841F09001C8
:104C40000160116841F480314FF6FF73116001E09B
:104C5000013B02D011688803FAD5224B1A689103F0
:104C600039D5234A116821F003011160116841F020
:104C7000040111605A685A605A6842F400525A603E
:104C80005A6842F4A0625A605A6822F0036222F421
:104C900070225A605A6842F0016242F470225A60EF
:104CA0001A6842F080721A601A689201FCD559683D
:104CB0000C4A21F003015960596841F00201596022
:104CC000536803F00C03082BFAD1054B094A5DF831
:104CD000044B9A607047084B084A1A60F5E700BF1A
:104CE00000ED00E00010024000C0FFF8007000403E
:104CF00000200240000001083400002000127A0069
:104D000030B585B0012502231E226846154C8DF86A
:104D100000208DF801308DF802308DF8035001F03D
:104D2000EFFF2946042001F0DFFF09220023694636
:104D3000ADF8042020464722ADF80630ADF8023029
:104D4000ADF8002002F094F82A462946204602F0E9
:104D500073F92946204602F065F923682B43236046
:104D600005B030BD000800400A4B1B783BB10A4A31
:104D70000A49136801338B4288BF094B1360094B02
:104D800009491A6801321A601A688A4284BF0022EF
:104D90001A60704734010020300100207F8D5B00D5
:104DA000808D5B00240100203F420F0008B51248AF
:104DB000012102F04DF900B908BD01210E4802F0B1
:104DC00053F90E4A0E49136801338B4204D813601D
:104DD000BDE80840FFF7C8BF0A490B780133DBB2D2
:104DE0003B2B4FF0000094BF0B700870BDE80840EB
:104DF0001060FFF7B9BF00BF000800402C01002081
:104E00009F8601002801002008B501214FF0804055
:104E100002F01EF900B908BD01214FF0804002F0F8
:104E200023F90648064A838C9BB203EB8303DB001D
:104E300013600021BDE8084002F008B9002C0140D1
:104E400020010020704700BFFEE700BFFEE700BF63
:104E5000FEE700BFFEE700BF704700BF704700BF1E
:104E6000054A00234FF0010CA0F800C08370C0E990
:104E700002134360136070472401002002784378D6
:104E800010B46AB163B9817851B9074944680968B7
:104E9000091B84688C4203D84FF480730380134647
:104EA00018465DF8044B704724010020034B04486A
:104EB000002242F210711A70FFF7D2BF0D010020DC
:104EC0003801002008B50E48FFF7D8FF48B10D4B58
:104ED0001A783AB9BDE80840094842F21071FFF764
:104EE000BFBF08BD0848002280211A7001F0EEFE05
:104EF000BDE80840024842F21071FFF7B1BF00BFA1
:104F0000380100205E000020000C014070B500F167
:104F100008030646002293E8030000F04FFE756A7E
:104F200001F062FD04464FF47A7005FB00F001F0D9
:104F300053FD2546154CA4FB003405EB944401F0C9
:104F400053FD8442FBD806F1100393E803000122CD
:104F500000F0C4FE756A01F047FD04464FF47A7014
:104F600005FB00F001F038FD2546084CA4FB003499
:104F700005EB944401F038FD8442FBD8183696E8DE
:104F800003000122BDE8704000F0A8BE83DE1B4391
:104F90002DE9F04B84B000F118030827029300F1CB
:104FA00010030193DFF824B1C31906460D4603939D
:104FB0004FF47A792B067DD4039B002293E80300FB
:104FC00000F0FCFDD6F8248001F00EFD044609FB3C
:104FD00008F001F001FD6D00ABFB0023EDB204EB26
:104FE000934401F001FD8442FBD8019B012293E828
:104FF000030000F073FED6F8248001F0F5FC0446AF
:1050000009FB08F001F0E8FCABFB002304EB934440
:1050100001F0EAFC8442FBD896E80300002200F08D
:10502000CDFD013FC6D1029B012293E8030000F0B1
:1050300055FE756A01F0D8FC04464FF47A7005FB02
:1050400000F001F0C9FC214BA3FB002304EB9344C7
:1050500001F0CAFC8442FBD8019B012293E80300C3
:1050600000F03CFE029B93E8030000F093FE776A99
:10507000054601F0B9FC04464FF47A7007FB00F0D6
:1050800001F0AAFC114BA3FB002304EB934401F0B5
:10509000ABFC8442FBD896E80300002200F08EFDB2
:1050A000029B012293E8030000F018FE4DB904B002
:1050B000BDE8F08B029B012293E8030000F00EFE96
:1050C00080E70348FFF7F2F9FDF700FB83DE1B439F
:1050D000CC790108F8B5456A0F46064601F084FC14
:1050E00004464FF47A7005FB00F001F075FC25468C
:1050F000284CA4FB003405EB944401F075FC844279
:10510000FBD806F1180393E80300012200F0E6FD46
:1051100006F1100393E80300012200F0DFFD756A39
:1051200001F062FC04464FF47A7005FB00F001F0D8
:1051300053FC2546174CA4FB003405EB944401F0C6
:1051400053FC8442FBD806F1080393E803000022D5
:1051500000F034FD756A01F047FC04464FF47A70A4
:1051600005FB00F001F038FC25460A4CA4FB003496
:1051700005EB944401F038FC8442FBD896E8030028
:10518000002200F01BFD39463046BDE8F840FFF72D
:10519000FFBE00BF83DE1B432DE9F041054684B00E
:1051A0000078FCF7A7FA80462C20FBF7E3F92B697F
:1051B0005B0080F8203041F288321C4B426202AF23
:1051C0006A6969681A6004460122384600F0BAFD2F
:1051D00097E8030004F1100383E803006E46696852
:1051E0003046012200F022FD96E8030084E8030027
:1051F0000122A968384600F0A5FD97E8030004F1F4
:10520000180383E803000122A968304600F00EFD70
:1052100096E8030004F1080383E8030021464046B2
:1052200004B0BDE8F041FCF78BBA00BF4801002094
:10523000704700BF704700BF70B50D4690F8201052
:1052400006461446FFF746FF3DB1254414F8011BFE
:105250003046FFF79DFEAC42F8D13046BDE87040C5
:10526000FFF754BE2DE9F04B84B00D4690F82010A6
:105270001F460C9B03930646144641F00108002D7F
:1052800040F0AA8041463046FFF724FF7B1EDBB288
:105290000293002F00F0928006F118030093DFF8CC
:1052A000509106F110030193009B012293E8030043
:1052B00000F014FD082700254FF47A7BD6F82480EF
:1052C00001F092FB04460BFB08F001F085FBA9FB03
:1052D000002304EB934401F087FB8442FBD8019B3D
:1052E000012293E8030000F0F9FCD6F8248001F0D5
:1052F0007BFB04460BFB08F001F06EFBA9FB0023CF
:1053000004EB934401F070FB8442FBD8009B93E8CC
:10531000030000F03FFD6D00EDB20543002296E86A
:10532000030000F04BFC013FEDB2C7D1009C01220D
:1053300094E8030000F0D2FC029B002B44D194E8D7
:105340000300012200F0CAFC776A01F04DFB04461D
:105350004FF47A7007FB00F001F03EFBA9FB00233D
:1053600004EB934701F040FB8742FBD8019B0122ED
:1053700093E8030000F0B2FC776A01F035FB0446C5
:105380004FF47A7007FB00F001F026FBA9FB002325
:1053900004EB934701F028FB8742FBD8002296E8F4
:1053A000030000F00BFC029B039A013BDBB202F806
:1053B000015BFF2B029303927FF476AF304604B07B
:1053C000BDE8F04BFFF7A2BD06F1080393E8030028
:1053D0003A4600F0F3FBB7E7FFF77CFE254414F8EC
:1053E000011B3046FFF7D4FDA542F8D14AE700BFC4
:1053F00083DE1B4338B50749054650220078FBF78A
:105400007DF90446044B28796360FEF70BF82061B0
:1054100038BD00BFF55301081D54010808B5034607
:1054200004481A7D42F001021A75FDF7FFF80020CA
:1054300008BD00BF4C01002070B51049054600783A
:10544000FBF73CF904460026FDF764F826756B6807
:1054500003B970BDE36004F1160000F077FA01F0C3
:1054600079FA01F0C1FAE3681844A0603146204699
:10547000FDF75CF9BDE8704001F06EBAF553010824
:1054800070B5134984B004460078FBF717F9AF23D1
:105490000546ADF80C3001F0A7FA03AB0646022230
:1054A00028690121FEF714F801F09EFA9DF80DC05D
:1054B00021780CF01F0C0CEB4C0C4FEA4C04831BB6
:1054C0000094324605F1160000F05EFA04B070BD9B
:1054D000F55301082DE9F0433E4885B0FDF7AEF8DD
:1054E00080B1FF233C4D3B4F8DF8033002E0237D1C
:1054F000DB070AD429460DF10300FBF72BF904461C
:105500000028F4D105B0BDE8F083AF22002394F861
:105510001A90ADF80420A822029320698DF80E306D
:10552000ADF80C308DF8082002AB0722012109F1FB
:105530001B069DF80380A144FDF7CAFF01AB0222C0
:1055400020690121FDF7C4FF26449DF8093089F840
:105550001B309DF80A309DF8052073709DF80B30C4
:10556000B3709DF80C30F3709DF80D3033719DF8D9
:105570000E307371A37E0633DBB22D2BA37602F0BF
:105580003F0902F040061CD8384616B1238B013380
:105590002383B9F1000F02D1FDF748F8AAE7237D74
:1055A00023F00103237501F0D5F901F01DFAE3683A
:1055B00018440021A0602046FDF7B8F801F0CCF9AE
:1055C00098E704F11600414600F0C6F93846002E6F
:1055D000DFD0DBE74C010020F553010838B507495F
:1055E000054668220078FBF789F80446044B2879C1
:1055F0006360FCF77FF8206138BD00BFDD5501080E
:105600000556010810B5037DD907044602D5028B63
:10561000013202839A0707D504F1500393E803008F
:1056200000F0B8FB30B9237D054843F00103237532
:10563000FCF7FCFFD4E9023213440120A36010BD43
:105640005001002030B5682283B004460F4900782D
:10565000FBF754F805460E4B20796B60FCF74AF8CF
:105660000A4928612078FBF729F86D46A1680122D4
:105670000446284600F066FB95E8030004F1500359
:10568000022283E80300227503B030BDDD55010816
:105690000556010838B50E4905460078FBF70EF8A7
:1056A000AB68036604461BB980F85C30836538BD7F
:1056B0006B684366287BFEF76DFD2B6984F85D30CF
:1056C0006A6984F85E20062384F85C30A06538BDE2
:1056D000DD55010870B5094904460078FAF7EEFF78
:1056E00005460748FFF714F995F85C206B6E2168B2
:1056F000C2F38002BDE87040FBF7C4BBDD55010872
:10570000D87A010838B5114905460078FAF7D6FF6E
:105710000446FCF7FFFE237D23F0010323756B682D
:1057200003B938BDE36004F1160000F00FF901F091
:1057300011F901F059F9E3681844A060532120469B
:10574000FCF7F4FFBDE8384001F006B9DD5501086B
:10575000F0B5264987B006460078FAF7AFFF037D1B
:105760009B07054624D401F03FF918238DF8133028
:1057700005AB2A6901930223009307460DF1130339
:1057800092E80300012200F00BFDBDF8144064BA5A
:1057900001F02AF9A4B2641004F0040431780094F2
:1057A000C31B3A4605F1160000F0EEF807B0F0BD55
:1057B00001F0D0F801F018F905F15003024693E822
:1057C0000300039200F0E6FA044601F0C5F8002C4D
:1057D0000CBF042300233178039A009305F11600CF
:1057E000002300F0D1F807B0F0BD00BFDD5501087F
:1057F0002DE9F04B534884B0FCF720FF00287FD000
:10580000FF23DFF844818DF80A3041460DF10A008C
:10581000FAF7A0FF0446002872D0237DD807F4D5FC
:1058200003AF022623699DF80AB0CDE900674FF067
:1058300018028DF80B2093E8030001220DF10B03F1
:1058400000F0AEFCBDF80C5001F084F8237D6DBA79
:1058500023F00103ADB2237501F07EF82907D4D5FA
:1058600094F81A902369009609F11B0525444FF01E
:1058700000028DF80C20019593E8030001223B46BD
:1058800000F08EFC216900960122A8198DF80C20E9
:1058900001903B4603C900F083FCA37E94F85C6052
:1058A0000433DBB27207A3761BD5A144EB7899F8D9
:1058B0001B2043EA02636A78AD7843EA024343EA75
:1058C0000525B5F1805F1ED201F08EF8B3070746BB
:1058D00027D4236E9D422CD806F0FD0684F85C6028
:1058E000A37E2F2B91D904F11600594600F034F80D
:1058F00041460DF10A00FAF72DFF044600288CD12D
:1059000004B0BDE8F08B4FF0000384F85C3094F8ED
:105910005E10A06DFEF712FCA37E2F2B7FF675AFF5
:10592000E1E7616E01F05CF80028D9D1236E9D4259
:10593000D2D994F85D10A06D6766FEF7FFFB0026D4
:10594000CCE700BF50010020DD5501080023038093
:1059500043800371704700BF10B584B00446094806
:105960000391FEF7D5FF2346039933F8052B0093E7
:105970002379FBF787FA23880022013322712380E1
:1059800004B010BD787B010870B5044688B00A48A1
:105990000593CDE90621FEF7BBFF25790C9E0799FB
:1059A000354401956588029524880094DDE9053227
:1059B000FBF768FA08B070BD107B01082DE9F041D3
:1059C0002E4A86B006460D460423002401E012F854
:1059D000013FAB4207D001340F2CF8D12848FEF725
:1059E00065FDFCF773FE274A274F536943F4704364
:1059F0005361D36A23F4FF7323F0010343F00703D9
:105A0000D3624FF0010800234FF460226946384604
:105A1000CDE90033CDE9023204938DF8148001F012
:105A2000A7F9C7F80880BB6D9B06FCD5BB6D23F0BA
:105A30008003BB650A2000F0E9FF0523BB60124B21
:105A40009A6812F00402FBD1FE2D11D19A680F4919
:105A500042F400029A60D1F8203843F48063C1F820
:105A60002038094B3046C6E9003406B0BDE8F08165
:105A70000321284600F0EEFCF3E700BFAC8E0108DE
:105A8000087A01080010024000080240001000409F
:105A900010B582B002AB03E903000368DA060446DE
:105AA0000AD59B0702D5436B8B4218D0142002B055
:105AB000BDE8104000F090BF04230122C9B201F0FC
:105AC0007DF9A36843F00103A360A368142043F4A5
:105AD000A003A36002B0BDE8104000F07DBF00202D
