:020000040801F1
:10000000000002205D6A0108954D0108994D010824
:100010009D4D0108A14D0108A54D010800000000FB
:10002000000000000000000000000000A94D0108D1
:10003000AD4D010800000000A56A010841690108F2
:10004000A56A0108A56A0108A56A0108A56A010850
:10005000A56A0108A56A0108A56A0108A56A010840
:10006000A56A0108A56A0108A56A0108A56A010830
:10007000A56A0108A56A0108A56A0108A56A010820
:10008000A56A0108A56A0108A56A0108A56A010810
:10009000A56A0108A56A0108A56A0108A56A010800
:1000A000A56A0108A56A0108A56A0108A56A0108F0
:1000B000A56A01082D4D0108A56A0108A56A010875
:1000C000A56A0108A56A0108A56A0108A56A0108D0
:1000D000A56A01088D650108A56A0108A56A0108DD
:1000E000A56A0108A56A0108A56A0108A56A0108B0
:1000F000A56A0108A56A0108A56A0108A56A0108A0
:10010000A56A0108A56A0108A56A0108A56A01088F
:10011000A56A0108A56A0108A56A0108A56A01087F
:10012000A56A0108A56A0108A56A0108A56A01086F
:10013000A56A0108A56A0108A56A0108A56A01085F
:10014000A56A0108A56A0108A56A0108A56A01084F
:10015000A56A0108A56A0108A56A0108A56A01083F
:10016000A56A0108A56A0108A56A0108A56A01082F
:10017000A56A0108A56A0108A56A0108A56A01081F
:08018000A56A0108A56A010847
:1001900010B5054C237833B9044B13B10448AFF3C1
:1001A00000800123237010BD3800002000000000F3
:1001B000B46D010808B5034B1BB103490348AFF305
:1001C000008008BD000000003C000020B46D010864
:1001D00001F0FF01102A2BDB10F0070F08D010F8F8
:1001E000013B013A8B422DD010F0070F42B3F6D1FC
:1001F000F0B441EA012141EA014122F007047FF015
:1002000000070023F0E80256083C85EA010586EA6B
:10021000010685FA47F5A3FA87F586FA47F6A5FAA7
:1002200087F68EB9EED1F0BC01F0FF0102F00702B3
:1002300032B110F8013B013A83EA010313B1F8D15E
:100240000020704701387047002D06BF354603383F
:10025000073815F0010F07D1013015F4807F02BF78
:10026000013015F4C03F0130F0BC0138704700BFC9
:10027000EC46A0E8F05F4FF000007047B0E8F05F98
:10028000E546080008BF0120704700BF10F8012BA9
:1002900011F8013B012A28BF9A42F7D0D01A7047C3
:1002A00030B583B004466D464168284605F0D8FA5B
:1002B00009492078094C2C2200F020FA034695E8E1
:1002C000030003F120025C6082E80300012283F84E
:1002D0002A2003B030BD00BFA1020108E1020108DD
:1002E00070B500F12005044695E8030005F022FBF7
:1002F000002842D1636A012B95E8030027D005F05E
:1003000043FB94F82A3094F82B20934229D2218B76
:100310000133DBB2084480B29A42208384F82A3049
:1003200025D8656A012D2DD0638B834236D8A38BE7
:10033000834233D3002384F82830294802F076F929
:100340006369E26813446361A360012070BD05F036
:100350001BFB244B94F82B20188094F82A309342EE
:10036000D5D301239A42208384F82A30D9D9A368AF
:1003700022691344A360012070BDA3681844A060E3
:10038000012070BD174B1B88333B47F6C5729BB2EB
:10039000934213D8144B00221A80CEE794F82830E9
:1003A00094F829200133DBB29A4284F82830C4D86B
:1003B0000E4804F091F802F0AFF9BBE70A4E33881B
:1003C00001339BB2042B3380B7D9084804F084F87A
:1003D00002F0A2F9064A002315703380ADE700BF92
:1003E000580000205A0000205C000020D86D010851
:1003F0005E00002038B515490546007800F05EF92A
:10040000044602F087F804F1200393E8030005F0A6
:10041000D7FA6B686361A360AB6823612B7B84F8B8
:100420002B305A1C84F82A202A69E260D5E905019C
:10043000EA6984F829206083A18303B938BD204686
:100440001F21BDE8384002F071B900BFA1020108C8
:100450002DE9F041214884B002F0F0F830B3FF23D9
:100460001F4D204F204E8DF80F3029460DF10F0003
:1004700000F070F90446C8B194F82A2094F82B30A3
:100480009A42F2D106F0B8F994F82B3094F82A2069
:10049000934203F101010CD006F0B0F929460DF1A9
:1004A0000F0000F057F904460028E5D104B0BDE87C
:1004B000F0816269B4F8188084F82A10019206F07D
:1004C0009DF93046A7F8008004F038FA019A9DF8AB
:1004D0000F10434600F0D6FCC7E700BF58000020CD
:1004E000A102010854000020EC6D010830B583B072
:1004F000FF23124D8DF8073006E093E8030005F066
:100500005FFA94F82B305BB929460DF1070000F033
:1005100021F9044600F120030028EED103B030BDDC
:100520006269E16801330A4484F82A306261A2609A
:100530000021204602F0FAF8E6E700BFA102010818
:1005400008B5044B04482B221A6003F0C5FF02F0E3
:10055000BDF800BF1C0100201C6E010808B506F0A4
:1005600043F9034B033020F00300186008BD00BFBF
:100570006000002070B50E4E336804461D1806F06A
:1005800037F985420CD83568E31C23F003032B446C
:10059000224600212846336006F004FC284670BD40
:1005A000044B054828221A6003F096FF02F08EF8EB
:1005B000600000201C010020386E0108024B1A6800
:1005C00002601860704700BF7000002010B506F090
:1005D00017F9084B1C682CB122681A6006F014F950
:1005E000204610BD044B05482A221A6003F074FF10
:1005F00002F06CF8700000201C0100204C6E010815
:100600000068B0FA80F04009704700BF006870478A
:1006100003460A68002018601AB14A6813604B60EC
:100620007047C1E900330120704700BF03681A68B2
:1006300002601846704700BF00230360704700BF88
:1006400008B5FF294FF00003C0E9003308DC054B73
:100650001B882BB9044B1A788A42B8BF197008BDA1
:10066000FFF76EFF6C000020740000200F4B18880D
:1006700010B4A0B1013815D00D4A0E4B146893F890
:1006800000C00022234619460132634482420B60B7
:10069000F9D102FB0C42084B002111601C605DF88F
:1006A000044B7047024B1C682246F4E76C000020A4
:1006B00078000020740000207000002008B50B4B6B
:1006C0001B78834209D90A4B1B6853F830208A42B1
:1006D00003EBC00001D1406808BD064B06482D223F
:1006E0001A6003F0F9FE01F0F1FF00BF7C0000206A
:1006F000800000201C010020606E010870B5104BC6
:100700001C7803469C42104611D90E4D1AB2DC00EB
:100710002B6853F8326056B90B4E36883EB943F811
:100720003210FFF727FF2B682344586070BD074B3A
:1007300007482E221A6003F0CFFE01F0C7FF00BF6A
:100740007C000020800000206C0000201C010020A4
:10075000746E010830B50E4A03780E4C126894F896
:1007600000E003F1010C5FFA8CF302EBC30205E039
:1007700052F8084B8C4203F1010C06D05FFA8CF35F
:100780009E451546F4D8002030BD0370686830BD22
:10079000800000207C00002038B50A4C236843B953
:1007A0000568E8B2C000FFF7E5FE074B20601D704A
:1007B00038BD064B06482F221A6003F08DFE01F06B
:1007C00085FF00BF800000207C0000201C0100206D
:1007D000886E010830B50D4D0D4885B004F0AEF8B7
:1007E00029880C4B003918BF01211A68039204466E
:1007F000029101F02BFF034628880090DDE90212E8
:10080000204600F03FFB05B030BD00BF6C0000206B
:10081000A06E0108640000202DE9F0411E4F3B88C6
:10082000064683BB1D4BDFF88C801D78D8F800404E
:10083000032D9CBF04251D7005F0DAFF002322461E
:100840002C44A04213D30133B3F5805FF7D11D468A
:10085000D8F80000201AFFF78DFE114B3D8018607C
:10086000FFF704FF0F4B32681A60BDE8F08113B147
:100870009DB21446ECE70C4B0C4829221A6003F099
:100880002BFE01F023FF084B09482C221A6003F0CD
:1008900023FE01F01BFF00BF6C000020740000204D
:1008A00078000020640000201C010020F06E010888
:1008B000DC6E01086000002010B5064804F03EF828
:1008C000044605F0E3FF01462046BDE8104000F075
:1008D000D9BA00BF046F010810B582B005F0D6FF89
:1008E000094A0A4B11681B680446A34288BF0131BC
:1008F0000748019104F022F80199224602B0BDE8B0
:10090000104000F0BFBA00BF880000208400002023
:10091000146F01082DE9F041264D274E2B68274F13
:1009200001332B603368081A0344B0F5803F0C464E
:10093000336019D23B6800FB00F0FF3003EB10205E
:10094000984238BF4FF0FF3038601D48DFF87C8098
:1009500005F094FFD8F8003001461944204605F010
:1009600091FF70B1BDE8F081B0F5801F06D200F1B3
:10097000FF023B68120A00FB0230E1E74FF0FF3054
:10098000E2E7104803F0DAFF3B683268296800F0BC
:1009900079FAD8F80030A34203D90B4A136801331F
:1009A00013600023C8F800403B6033602B60BDE853
:1009B000F08100BF680000208C0000209000002023
:1009C000404B4C002C6F0108880000208400002060
:1009D00008B5044B044831221A6003F07DFD01F094
:1009E00075FE00BF1C0100204C6F010801F082BEA3
:1009F00010B50E4B04681B6842689C4282B012D24C
:100A0000D2B21119994201D91A1BD2B208480192E7
:100A100003F094FF074B019A2344214602B0BDE83E
:100A2000104000F02FBA0022F0E700BF78840108E0
:100A30005C6F0108C8780108F8B5877F04469FB14C
:100A400000252F4601262B46043304EBC30393E80D
:100A5000030005F0F1F801357100EBB200B1374346
:100A6000A27F9A42CEB2EFD8227CBA4207D0637CF2
:100A70007B40DB4382EA0701DBB20B4210D194F9E1
:100A80001C30257F6774002B04DB013DEDB2FF2D88
:100A90001ED02577D4E9023213440120A360F8BDAB
:100AA00022EA03023B401343A27C2374072AE6D8C0
:100AB000511C2244A1740848D37401F0B7FDFF23F0
:100AC0002377D4E90232677413440120A360F8BD90
:100AD000014801F0ABFDDCE79400002010B504797B
:100AE000082C09D8221D08490078D200FFF706FE1D
:100AF000064B8477436010BD054B064825221A60DB
:100B000003F0EAFC01F0E2FDDD0A0108390A010800
:100B10001C010020846F010870B51149054682B0A0
:100B20000078FFF7CBFD2B79827F9A4204460ED9DD
:100B30006E46D5E9021230461D1D05F055F896E8BF
:100B4000030004EBC50484E8030002B070BD054B4C
:100B5000054826221A6003F0BFFC01F0B7FD00BF74
:100B6000DD0A01081C010020986F010838B51449FE
:100B700005460078FFF7A2FD044601F0CBFC6B6848
:100B8000A360A968E16000232A7CA374E376FE23B6
:100B9000627422742377EB6863771B0607D401B96C
:100BA00038BD20463021BDE8384001F0BFBD054BBF
:100BB000054827221A6003F08FFC01F087FD00BF73
:100BC000DD0A01081C010020C06F010838B5154975
:100BD00004460078FFF772FD2479C37E054623445E
:100BE000C37605F009FEAB7CA34207D8FE230022A2
:100BF000AA742B77BDE8384005F000BE1B1BD8B2A5
:100C000005F1130204F112032B44141813F8011F09
:100C100002F8011BA242F9D1A874BDE8384005F0E2
:100C2000EDBD00BFDD0A0108F0B51A4885B001F03E
:100C300005FD48B3FF23184D184F8DF80F30294696
:100C40000DF10F00FFF786FD0446E8B1237FFF2B6F
:100C5000F5D105F0D1FDA67CC6B1637F237705F001
:100C6000CDFD384603F06AFE1334227A9DF80F104A
:100C70000094334600F006F929460DF10F00FFF706
:100C800069FD04460028E1D105B0F0BD05F0B6FDD0
:100C9000D5E700BF94000020DD0A0108E46F0108D9
:100CA000704700BF70B514799668651EA4B3814281
:100CB00033D316F8012B042A20D810F8012B02F0A8
:100CC000600CBCF1600F03F1040E02F07F0408D148
:100CD00064F01F0405E010F8012B02F07F0C4CEAD1
:100CE000C4141206F7D41C60B5B1814215D316F8AE
:100CF000012B042A05F1FF357346DED9072A0CD1F2
:100D0000024612F8014B1019884206D89E464EF84A
:100D1000084B5A60002DEAD170BD024803F0DCFB9D
:100D200001F0D4FC107001082DE9F8438B78052BF5
:100D3000064694461C4666D9053B821CD4180B888F
:100D4000CF784D687F2B00F28C80114603F07F0333
:100D500001F8013B002F53D08C42C0F08A802F4411
:100D600030E05CF8043B03F120027F2A22D903F52E
:100D70008052B2F5804F18D303F50022B2F5001F60
:100D80000ED303F18062B2F1805F04D31A0F62F0D8
:100D90007F0201F8012B5A0D62F07F0201F8012B4E
:100DA0009A0B62F07F0201F8012BDA0962F07F02F0
:100DB00001F8012B03F07F0301F8013BBD421FD076
:100DC0008C4256D315F8013B052B30D0C9D9063BD0
:100DD000012B4ED8E0460B4658F8082B611A914279
:100DE00028BF114603F8011B89460A461846DCF85D
:100DF000041005F0AFFFBD4200EB0901C446DFD18E
:100E0000891BCC1CE3B21D4A337012787270E51E48
:100E10002946304605F004FE030A735526447E2316
:100E200006F8020C06F8013C2046BDE8F8835CF8A1
:100E3000040B03784A1C6BB1944202D817E0944229
:100E40000BD002F8013B10F8013F002BF7D1531AE9
:100E5000013BDBB20B701146B0E7631A013BDBB21A
:100E6000F8E7DA0962F07F028270C21C6DE70023A6
:100E7000F0E7034803F030FB01F028FC00000020FD
:100E8000287001080FB430B5084D2C7883B0E4B257
:100E90003CB9012307A906982B70019105F058FC75
:100EA0002C7003B0BDE8304004B0704795000020BE
:100EB000014B00221A707047950000202DE9F04B7D
:100EC000804615460C4619B900202860BDE8F08B15
:100ED0002F4E3778FA0711D40429F5D907787B1FEC
:100EE0003B2B05D890F8019029F00F03102B1ED052
:100EF0007E2F36D0337843F00107377022467E21AB
:100F00004046FFF765F950B3A0EB080007F0FE0775
:100F1000013037702860BB071DD447F002033370DF
:100F20001C48FFF7AFFF4FF0FF30BDE8F08BB94230
:100F3000CAD3C31913F8012C7E2AD9D1F91E13F88C
:100F400002BC435C4BEA032B05F06AFD83450DD0E0
:100F500098F80070CCE74FF0FF30BDE8F08B2C60C4
:100F6000D9E701232B604FF0FF30AFE70A49327811
:100F70000B782F6022F002024B453270D0D1013342
:100F800003F00F0343F010030B7001209EE700BF36
:100F90009600002050700108000000202DE9F04B61
:100FA000033900F10209451882B0A94500AF30D2DB
:100FB000DFF8948099F9002099F80040002A6E46E5
:100FC0002BDB09F10100ACB31D4B1B889C4231D2D5
:100FD00008EB0412294693787A609B00073303F4E8
:100FE000FF63ADEB030DEB465B46FFF75BFE2401B1
:100FF000814601F02BFB18B17A68D278D30715D55A
:10100000444405F009FCE26858469047B546A945B6
:10101000D0D30837BD46BDE8F08B99F80120E40134
:1010200004F47E5409F102001443CCE701F02CFBD8
:10103000B546ECE7034803F04FFA01F047FB00BF69
:101040000C8A0108407001087C8401080148FFF700
:1010500019BF00BF5070010830B5D0E9004083B01F
:10106000FFF71EFE054605F0CBFBE3B2012B0FD0C8
:10107000022B10D02978C9B2019105F0C5FB0748B1
:1010800003F05CFC019903B0BDE83040FFF7FABE05
:10109000298889B2F0E72968EEE700BF5870010897
:1010A00070B50446D0E90050FFF7FAFDA668044683
:1010B00005F0A6FBEBB2012B07D0022B0BD0F6B24A
:1010C0002670BDE8704005F09FBBB6B22680BDE833
:1010D000704005F099BB2660BDE8704005F094BBF8
:1010E00010B5D0E9004082B0FFF7DAFD0190054865
:1010F00003F024FC019AE1B202B0BDE81040FFF712
:10110000C1BE00BF6C700108704700BF30B50B490D
:1011100083B0044628220078FFF7F0FA6D460346B4
:101120006168A26828461C4604F05EFD95E803004D
:1011300004F10C0383E8030003B030BD0D11010876
:1011400038B500F10C03044693E8030004F074FD85
:1011500094F8245088B1ED4305F001058DB994F859
:101160002630013B13F0FF0315D0A268A16984F873
:1011700026300A44A260012038BD05F00105002D8B
:10118000EDD00849E26994F8253084F82630C4E9A6
:101190000112012038BD206A94F8271002F0E4FF04
:1011A000284638BDA911010800F10C0310B504460A
:1011B00093E8030004F040FDA36862691A4494F8C0
:1011C000243030B1DB4303F0010333B1A2600120CE
:1011D00010BD03F00103002BF8D1044BE261636002
:1011E0002046BDE81040FFF7ABBF00BF411101082A
:1011F00038B5174905460078FFF760FA044601F054
:1012000089F96B68A360AB68A3612B7B84F82530F8
:10121000CBB12A69626184F826306A690D4B002AD5
:1012200014BF0322022284F82420287E636002F087
:10123000C7FFEB6984F82730206219212046BDE8FA
:10124000384001F073BA84F82430236238BD00BFFF
:101250000D110108A9110108F0B50678104985B0F3
:101260003046FFF72BFA044605F0C6FAE36994F816
:101270002470039305F0C2FA0A4803F05FFB0C34B4
:10128000054694E8030004F0D7FC039B0090C7F3E5
:10129000400231462846FFF7F5FD05B0F0BD00BF1E
:1012A0000D1101087C70010830B5D0E9011283B03E
:1012B000003A04466D4618BF0122284604F008FC97
:1012C0000F4920783422FFF719FA034695E8030006
:1012D00003F1180282E80300D4E90221003A18BFA2
:1012E000012209B142F0100283F8302022691A620B
:1012F0000C2103F1280003B0BDE83040FFF7A0B98E
:10130000A91201082DE9F84300F1280804464046D7
:10131000FFF776F9002840F0A0804046FFF786F9F5
:1013200085682E1E18BF012604F1180307463246B1
:1013300093E8030004F018FC3846FFF73FF9C5B105
:10134000636AAB4215D9276A002F68D1404646F040
:101350000206FFF755F9002800F0878094F8303036
:10136000676103F010033343A66884F830302E44DD
:1013700026E094F83030B5FA85F283F01003C3F319
:10138000001352099A4225D0276A1FB3A16840462C
:1013900046F004060F44FFF733F9002848D094F8CC
:1013A0003030676103F01003334384F83030B30703
:1013B00026D5A6682E443946304605F063FAF8B1C2
:1013C000636A2B4A5B1BC4E90126C4E9035301206D
:1013D000BDE8F8834046FFF713F9A8B981464046B7
:1013E000FFF714F9476894F83020676146F0040667
:1013F00002F01002164384F83060B9F1000FD8D122
:10140000A7600120BDE8F88394F8303003F01003A2
:101410003343002084F830306061BDE8F883A16870
:10142000404646F006060F44FFF7EAF80028B6D11A
:101430004046FFF7EBF8034638465F68394605F04B
:1014400021FA06F002090028CDD00A4B0A481E22D4
:101450001A6003F041F801F039F9064B07481D22E4
:101460001A6003F039F801F031F94FF00209B6E7DC
:10147000811401081C010020E4700108B870010803
:1014800038B5044600F1180393E8030004F050FB5C
:1014900094F83030A56883F00103DA074CBFE268A6
:1014A000226984F830305B07154402D4A56001201E
:1014B00038BD6169284605F0E5F90028F6D1034BEF
:1014C00065696360A560012038BD00BF0513010890
:1014D00038B50D4905460078FFF7F0F8044605F0E9
:1014E0008BF904F12800FFF78BF828B16B68636271
:1014F000BDE8384005F082B9044B05481F221A6048
:1015000002F0EAFF01F0E2F8A91201081C01002034
:101510001C710108F8B5234906460078FFF7CEF89C
:101520000446FFF753F877684760B3688360054661
:1015300005F062F904F128012846FFF769F8A0B127
:1015400094F830506A071ED445F0040384F8303014
:10155000AB0767610DD4204600F0DCFF124B0F2172
:10156000C4E90137204601F0E1F8BDE8F84005F094
:1015700045B9A068394605F085F90028EBD0BDE8EB
:10158000F84005F03BB96069394605F07BF9002861
:10159000DAD0064B064820221A6002F09DFF01F0C7
:1015A00095F800BFA9120108051301081C010020CD
:1015B000E470010800B50346D3E9011285B01B6849
:1015C000039201A8CDE90131FFF7A4FF05B05DF852
:1015D00004FB00BFF8B5244905460078FFF76EF814
:1015E000044600F097FF04F12800FFF709F890B3D4
:1015F0002E7994F83050371E18BF012704F11803D4
:1016000093E803003A4604F0AFFA85F01001B6FA09
:1016100086F35B09C1F300118B4201D0236A2BB919
:1016200005F010053D4384F83050F8BD05F02EF963
:1016300005F01005236A3D43184445F004050B4BA3
:1016400084F83050C4E9013060610E212046BDE8C5
:10165000F84001F06BB8064B064821221A6002F0F0
:101660003BFF01F033F800BFA91201080513010880
:101670001C0100205471010830B583B0FF23124DC6
:101680008DF8073013E094F8302093E8030002F05F
:10169000100204F069FA94F8303013F0100318BF08
:1016A000112304F1280084F83030FEF7C5FF2946E5
:1016B0000DF10700FFF74EF8044600F1180300286B
:1016C000E1D103B030BD00BFA912010800B5034647
:1016D00083B0D3E90012684604F0FAF903B05DF86C
:1016E00004FB00BF024900781022FFF707B800BFD3
:1016F000E51601080149FEF7E1BF00BFE516010844
:1017000030B5C3680D4985B0044603F07F03007807
:101710000193FEF7D3FF02ADD4E901120446019B09
:10172000284604F0DFFB95E80300237B43F0020327
:1017300084E80300237305B030BD00BFE51601083F
:10174000037B816043F001030373704770B50E495A
:1017500004460078FEF7B2FF0546A0682479FFF73B
:101760009FFA2A7BD207034606D5A86821461A4667
:10177000BDE8704003F0B2BC95E803002246BDE826
:10178000704004F02FBC00BFE51601082DE9F043BE
:1017900083B006781949044602AF3046FEF78EFF43
:1017A0000546A06894F80480FFF77AFA247BE21DCE
:1017B00002F4FC72ADEB020D2A7BD20703460DF159
:1017C000080913D5A868CDF800901A46414623466B
:1017D00003F09AFC0A4803F0B1F84B462246314622
:1017E000FFF750FB0437BD46BDE8F083CDE9004963
:1017F000424695E8030004F025FCEBE7E5160108F6
:10180000847101082DE9F04B84B005463A4900780F
:1018100002AFFEF753FF8046A8682C79FFF740FA25
:10182000EE68F20762D4C6F34706386004EB060B95
:101830002869FFF735FA0BF1070298F80C307B6046
:1018400022F007023B68ADEB020D0DF108091946C5
:1018500005462246484605F07DFA7B6813F00103F1
:101860007B603B682AD109EB04020192009698E85C
:101870000300224604F0E6FB6EB3013E2E44013C19
:101880004C44013D314615F8012F14F8013F23EA7D
:101890000203237016F8012F8D4243EA02032370DE
:1018A000F1D17B68BBB1D8F808004A465FFA8BF1EA
:1018B00003F014FC0837BD46BDE8F08B1A4609EB6F
:1018C0000403D8F8080000932146334603F01CFCBB
:1018D000002ED2D1E7E798E803004B465FFA8BF27F
:1018E00004F080FB0837BD46BDE8F08B034802F0EA
:1018F000F3FD00F0EBFE00BFE5160108AC71010836
:1019000070B50A4B1E68002E82B00CDD084D002415
:101910002A7955F8081B684602F00102013404F0E8
:10192000D7F8B442F4D102B070BD00BFF88A010804
:10193000F88A010882B070B582B06E4686E806006B
:10194000044696E80300079304F0FCF8E00622D46E
:10195000A10627D462062CD4230631D404F096FFC6
:1019600005461A481A4C04F089FFA4FB003405EB25
:10197000944401E004F050FF04F088FF214604F095
:1019800081FF0028F6D196E8030002B0BDE8704060
:1019900002B004F0D7B807AB93E8030004F0D2F824
:1019A000A106D7D509AB93E8030004F0CBF8620693
:1019B000D2D50BAB93E8030004F0C4F82306CDD5D1
:1019C0000DAB93E8030004F0BDF8C7E77082030095
:1019D00083DE1B432DE9F04B00F1140305468B46D3
:1019E00093E8030096B00CAE05F11C0386E80300F3
:1019F00093E803000EAB83E8030005F1240393E8AA
:101A0000030010AF05F12C0387E8030093E80300FF
:101A10000DF1480805F1340388E8030093E803005A
:101A20000DF1500989E8030001A9099199E8030023
:101A300005AA03AC2B7A0B920A9482E8030098E87B
:101A4000030084E8030097E80300099A82E8030092
:101A50008BEA03000F9B009396E806000E9BFFF7AE
:101A600069FF4FEA0B132B7204F010FF044617486E
:101A700004F004FF03461648A0FB032304EB934441
:101A800001E004F0C9FE04F001FF214604F0FAFE73
:101A90000028F6D199E803000B9B2D7A83E8030018
:101AA00098E803000A9B83E8030097E80300099B7A
:101AB00083E803000F9C0E9B96E806008BEA050066
:101AC0000094FFF737FF16B0BDE8F08BB01E04009E
:101AD00083DE1B43F0B5314983B005463C220078D4
:101AE000FEF70CFE6C46064669682046002203F0AD
:101AF000EFFF94E8030006F10C0383E803000022E3
:101B00002046A96803F0E4FF94E8030006F11403FB
:101B100083E8030000222046E96803F0D9FF94E837
:101B2000030006F11C0383E8030000222046296914
:101B300003F0CEFF94E8030006F1240383E80300DA
:101B400000222046696903F0C3FF94E8030006F110
:101B50002C0383E8030000222046A96903F0B8FFA4
:101B600094E8030006F1340383E8030004F044FE24
:101B700004F08CFE002104463046FFF72BFF04F0F2
:101B800085FE074604F03AFEEB693A1B9A4202D200
:101B90002344DB1B736003B0F0BD00BFD51A0108FE
:101BA0002DE9F843174904460078FEF787FD00F158
:101BB0000C038046002293E8030003F0D5FFD4E92C
:101BC0000170FFF76DF817F0FF07D8E900450646EA
:101BD00014D000EB070916F8017B01E004F01CFEAD
:101BE00004F054FE001B8542F8D839464046FFF702
:101BF000F1FE04F04BFE4E450446ECD1C8F800401F
:101C0000BDE8F883D51A01082DE9F84317490446C1
:101C10000078FEF753FD00F10C038046012293E8A3
:101C2000030003F0A1FFD4E90170FFF739F817F0C2
:101C3000FF07D8E90045064614D000EB070916F85F
:101C4000017B01E004F0E8FD04F020FE001B85426A
:101C5000F8D839464046FFF7BDFE04F017FE4E4562
:101C60000446ECD1C8F80040BDE8F883D51A010855
:101C700070B582B0FF231D4D8DF80730002627E098
:101C800093E8030003F070FF04F1140393E80300EA
:101C9000002203F069FF04F11C0393E80300002213
:101CA00003F062FF04F1240393E80300002203F031
:101CB0005BFF04F12C0393E80300002203F054FFC0
:101CC00004F1340393E80300002203F04DFF267271
:101CD00029460DF10700FEF73DFD0022044600F104
:101CE0000C030028CCD102B070BD00BFD51A01088A
:101CF0002DE9F04B00F10C0203460D4692E803007B
:101D000084B06F46143387E8030093E803000DF1B5
:101D1000080B8BE80300DFF88C90DFF88C80082636
:101D20002B0638D404F0B2FD0446484604F0A6FD64
:101D3000A8FB002304EB934401E004F06DFD04F0E4
:101D4000A5FD214604F09EFD0028F6D197E803008A
:101D500003F0F8FE04F09AFD0446484604F08EFDB8
:101D6000A8FB002304EB934401E004F055FD04F0CC
:101D70008DFD214604F086FD0028F6D197E803008A
:101D8000013E03F0DFFE6D0016F0FF06EDB2C7D195
:101D900004B0BDE8F08B9BE80300ED4303F0D2FEF6
:101DA000EDB2BFE7400D030083DE1B43F0B52549CC
:101DB00083B005461C220078FEF7A0FC6E46044660
:101DC000A9683046002203F083FE96E8030004F180
:101DD0000C0383E8030000223046E96803F078FE34
:101DE00096E8030004F1140383E80300012230465F
:101DF000696803F06DFEF8212046FFF779FF202186
:101E00002046FFF775FF04F0F7FC04F03FFD0021CA
:101E100006462046FFF76CFF04F038FD074604F045
:101E2000EDFC27602B69BA1B9A4202D23344DB1BBC
:101E300063606869824202D20644F71BA76003B060
:101E4000F0BD00BFAD1D01082DE9F04B17460E4651
:101E500017F801BB056844680BF0F0019146804615
:101E6000FFF746FF01E004F0D7FC04F00FFD401B34
:101E70008442F8D84FEA0B1101F0F0014046FFF719
:101E800037FF04F003FD012ED8F8085004461DD09A
:101E9000B31EDBB20233994417F8016B404606F0DB
:101EA000F001FFF725FF01E004F0B6FC04F0EEFCC2
:101EB000001B8542F8D8310101F0F0014046FFF7E0
:101EC00017FF04F0E3FC4F450446E5D1C8F8004095
:101ED000BDE8F08B70B50B4904460078FEF7EEFBC9
:101EE000F8210546FFF704FF2679A068FEF7D8FE23
:101EF00006B970BD024631462846BDE87040FFF77E
:101F0000A3BF00BFAD1D010870B50B4904460078A2
:101F1000FEF7D4FBFA210546FFF7EAFE2679A06812
:101F2000FEF7BEFE06B970BD024631462846BDE842
:101F30007040FFF789BF00BFAD1D010830B583B009
:101F4000FF230D4D8DF8073009E093E803001434AA
:101F500003F00AFE94E80300002203F005FE294680
:101F60000DF10700FEF7F6FB0022044600F10C031A
:101F70000028EAD103B030BDAD1D010870B582B0B4
:101F800004466D4641680022284603F0A1FDA3687F
:101F90009EB21B0412D406F118020C49207892B2AA
:101FA000FEF7ACFB034695E8030083E80300D4E9A1
:101FB00003129E8299601A6102B070BD044B0548FD
:101FC0001A221A6002F088FA00F080FB7D1F0108D7
:101FD0001C010020D471010870B511490446007835
:101FE000FEF76CFB0346D4E9026065681C46FEF709
:101FF00057FE2B0401460AD4A28AAB19934206D895
:10200000163532466019BDE8704004F0A3BE054B9A
:1020100005481B221A6002F05FFA00F057FB00BF70
:102020007D1F01081C010020F07101082DE9F04B13
:102030002DED028B0378624988B0184608EE103AFD
:10204000FEF73CFBD0E90354059004F01FFC401B55
:10205000844206D904F0E0FB04F018FC401B8442E3
:10206000F8D8059D95E8030005F11602AF8A03979D
:1020700006AE86E803000492029204F007FCAB6807
:1020800001930446002F50D0DFF84891029B13F8CB
:10209000017B02934FF008083B064A484BD504F0F9
:1020A000EDFBA9FB0035AD0C04F0F0FB001B8542F5
:1020B000FAD804F0A1FB04F0E9FB054696E803001A
:1020C00003F036FD04F09AFB019B2C1BA3425FD961
:1020D0003D4804F0D3FBA9FB00347F00A40C04F0BE
:1020E000D5FB401B8442FAD804F086FB96E8030037
:1020F00003F01EFD04F082FB04F0C8FB8346334866
:1021000004F0BCFBA9FB0034A40C04F0BFFBA0EB63
:102110000B008442F9D82C46B8F10108BCD1DDE9A6
:1021200003231344029A9A42B0D104F0AFFB059BFB
:102130000122D86036E004F0A1FBA9FB0035AD0C0C
:1021400004F0A4FB001B8542FAD804F055FB04F010
:102150009DFB834696E8030003F0EAFC1B4804F06D
:102160008DFBA9FB0035AD0C04F090FBA0EB0B0040
:102170008542F9D896E8030003F0DAFC04F03EFB50
:10218000019BABEB0404A34202D97F005C46C3E78A
:10219000002296E8030003F0E7FC04F077FB059BC0
:1021A0000022D8600A48019202F0C8FB019A18EE9A
:1021B000101A08B0BDEC028BBDE8F04BFEF762BE12
:1021C0007D1F0108D012130010EB0900400D030021
:1021D0001072010883DE1B4330B50C4983B00446FE
:1021E0002C220078FEF78AFA6D4603466168A268E1
:1021F00028461C4603F0F8FC95E80300044A04F165
:10220000240383E80300626003B030BDD9210108D4
:102210001522010870B58369044600F1240292E892
:10222000030003F00105A66803F006FD854203D014
:10223000A369E6610133A3616069314604F022FBC2
:1022400028B9D4E9023213440120A36070BD94F888
:10225000202023690748334442F0010284F82020FB
:10226000636100F0E3F9D4E9023213440120A36072
:1022700070BD00BF9800002038B50A4905460078B7
:10228000FEF71CFA044600F045F96B68A360AA68E3
:10229000E260EA682046C4E904233821BDE83840FA
:1022A00000F044BAD921010870B51C4886B000F08E
:1022B000C5F980B3FF231A4D1A4E8DF81730294601
:1022C0000DF11700FEF746FA044620B394F82030CB
:1022D000DB07F4D504F090FA94F82010A268A36903
:1022E000039221F0010184F820100293E46904F0C4
:1022F00085FA304602F022FBDDE902329DF8171024
:102300000094FEF7BFFD29460DF11700FEF722FAF3
:1023100004460028DAD106B070BD00BF9800002046
:10232000D92101083472010838B5027B816804465E
:10233000007903F08DFC0949054620222078FEF73C
:10234000DDF9D4E90412064BC56081824360026165
:10235000BDE838400C211830FEF772B92923010876
:1023600065230108F8B500F1180604463046FEF76B
:102370005DF9078905463946E06803F04BFD2846BC
:10238000FEF71CF93046FEF73BF960B1A38ABB4269
:1023900024D0206900B9F8BDA368114A1844C4E9E3
:1023A00001200120F8BD3046FEF730F9A38A4568C8
:1023B000BB4201D0236913B9A5600120F8BDA06814
:1023C0002946184404F05EFA0028F5D0054B06486B
:1023D00018221A6002F080F800F078F90020F8BDA9
:1023E000ED2301081C0100207072010808B5044BA0
:1023F000044817221A6002F06FF800F067F900BF76
:102400001C010020A072010870B51C490546007827
:10241000FEF754F90646FEF7D9F86B684360AB68DF
:102420000381044604F0E8F906F118012046FEF79E
:10243000EFF8054604F0E2F905B970BD304600F04A
:1024400069F80F4B72689A4209D063680D4A3046AA
:10245000C6E901232D21BDE8704000F067B961682D
:10246000B06804F00FFA0028EFD0074B0748192294
:102470001A6002F031F800F029F900BF29230108A1
:10248000ED230108652301081C010020707201087A
:1024900070B582B0FF230C4D0C4E8DF8073008E06C
:1024A000E068A18A03F0B6FC666004F11800FEF74C
:1024B000C3F829460DF10700FEF74CF90446002841
:1024C000EED102B070BD00BF2923010865230108C9
:1024D000027A4168007803F0BBBB00BF0020704760
:1024E000084B094810B500221A7204F0C7F9074AD0
:1024F000074994680346234403F100440120936094
:102500008C6010BD04000020A08601001C0000208B
:102510002800002010B5044604F072F90E490B683B
:10252000A34202D111E0A3420CD01A461B68002B33
:10253000F9D14B68A34204BF084B4B60BDE8104083
:1025400004F062B923681360F3E7054BA2689A6050
:1025500022681A600B60ECE7040000201C000020D9
:10256000100000202DE9F8431C4F3E687368304688
:102570003BBB01F0C1F9B568336838B399682846A8
:1025800004F080F910B12846BDE8F8837C68336810
:10259000A168D3F808903B60284604F073F900B1B5
:1025A0003C68A04624682846A16804F06BF900281E
:1025B000F7D04D4634607E60C8F800602846BDE81C
:1025C000F8839847B56833680028D7D17A689D6842
:1025D0003B60B242D7D17B60D5E700BF040000204A
:1025E000074B084A0849094810B49C6894605DF894
:1025F000044B0A604B601360186004F04DB900BFD3
:102600001C000020100000200400002028000020F2
:10261000014B00221A72704704000020024B187A06
:10262000C043C0F3C010704704000020024B0022DA
:102630001A720123037070470400002003780246D9
:10264000D8B210B10023137001207047024B587AA2
:10265000003818BF012070470400002010B506485C
:1026600002F06CF9054B064A06491B6812680978A6
:10267000BDE81040FEF706BCCC720108A0000020A7
:102680009C0000200001002008B50A4802F056F91D
:10269000094B0A4A0A491B6809781268FEF7F2FBDF
:1026A000084802F04BF9084B997ABDE80840FEF75C
:1026B000E9BB00BFCC720108A00000209C000020F4
:1026C00000010020007301080400002000B583B061
:1026D000019004F091F801990148FDF7CFFD00BF8A
:1026E000A400002008B5024801F0F6FEFFF7EEFF57
:1026F0002473010808B5064A537A23B1022B1CBF84
:102700000023537208BD034801F0E6FEFFF7DEFF29
:10271000040000203C73010808B5034B5B7A03B149
:1027200008BDFFF7D3FF00BF040000202DE9F04BE8
:10273000DFF8949085680E46074604F061F8D9F8F2
:1027400000408046A168284604F09CF870B92646EF
:1027500024682846A16804F095F80028F7D03C606A
:1027600037604046BDE8F04B04F04EB804F08EF8F8
:1027700083460146284604F085F858B90D4BC9F840
:1027800000309C4208BF24683C609D601F6004F0DC
:1027900083F8E6E7084B09481D60094BC3F800B011
:1027A000084B1E7001F098FE99F80930002BE5D116
:1027B000FFF78CFF10000020A000002060730108CC
:1027C0009C00002000010020040000202DE9F04BB7
:1027D00082B001F017FE02F0F3F9384802F0AEF8CB
:1027E000FEF750FB04F008F83548FDF741FD0446BC
:1027F000002843D104F002F804F048F8314D324E7D
:10280000324FDFF8D08083464FF0FF0904F004F820
:1028100095F90830D3B901232B7201F01FFE04F0A3
:1028200035F8044621465846FEF774F833680133FC
:10283000132B336008D93A780023336022B180210A
:1028400040463B7004F092F9A346DFE704F01EF81F
:10285000ABEB000B03F0D0FF95F908302BB903F078
:10286000CDFF04F013F88344D5E785F8089003F012
:10287000CFFF95F90830002BF9D1F0E703F0BCFF4A
:1028800004F004F80F4B5A7A014602B99C720D4CC1
:10289000019102236372FFF7A3FE01F0C1FD012342
:1028A000637203F0ABFFFFF7D9FE094802F046F868
:1028B000A27A0199FEF7E6FA9CE700BF707301085F
:1028C000A400002004000020040100205E0000207D
:1028D0007C730108000C014038B5074905465022B9
:1028E0000078FDF70BFF0446044B2879636000F085
:1028F000AFFD206138BD00BFD928010801290108BA
:1029000008B5034604481A7D42F001021A75FFF724
:102910008DFE002008BD00BF0801002070B51049E1
:1029200005460078FDF7CAFE04460026FFF7F2FDD3
:1029300026756B6803B970BDE36004F1160002F000
:1029400057FF03F059FF03F0A1FFE3681844A060AC
:1029500031462046FFF7EAFEBDE8704003F04EBF67
:10296000D9280108F0B5134985B006460078FDF76F
:10297000A5FEB9230546ADF80C3003F087FF012111
:1029800003AB02220746286900F0B8FD03F07EFF82
:102990009DF80D1021F08001202909D801EB810458
:1029A000C31B317800943A4605F1160002F03EFF51
:1029B00005B0F0BDD92801082DE9F043534885B092
:1029C000FFF73CFE88B1FF23514D524E4F4F8DF81B
:1029D000033002E0237DDB070AD429460DF1030012
:1029E000FDF7B8FE04460028F4D105B0BDE8F08339
:1029F00096E807000DF1040C6346ACE803008CF880
:102A0000002020699DF803800922012100F076FD55
:102A1000A27E9DF8061002F11B0311F0F000234482
:102A200025D0F02823D0A118FF221A71DA709A70ED
:102A30005A70CA76A37E0533DBB22E2BA37604D957
:102A4000414604F1160002F0D9FE237D23F0010374
:102A5000237503F0D1FE03F019FFE3681844A0606A
:102A600000212046FFF762FE03F0C8FEB5E79DF89F
:102A700008C01CF0F00001D0F028D4D19DF80A0065
:102A800010F0F00E34D19DF80BE0BEF1900FCAD1DA
:102A90009DF80C9029F08009B9F1200FC3D801F0FE
:102AA0001F0141EA40118000224400F060000CF058
:102AB0001F0C9DF805E082F81BE040EA0C0C9DF825
:102AC000070058709DF809209A70D97083F804C0E7
:102AD000A37E0533DBB22E2BA3760DD8B9F11E0FE2
:102AE00010D9238B013323833846FFF79FFD74E70A
:102AF000BEF1F00F97D1C6E7414604F1160002F08F
:102B00007DFEEBE7B9F1010F9FD9EDE70801002049
:102B1000D9280108CC6D010870B5067A032E044649
:102B200010D8104900785022FDF7E8FD05460E4BFD
:102B300020796B6000F08CFC286100F0D3FC48B178
:102B40006E7570BD094B0A4814221A6001F0C4FC6E
:102B5000FFF7BCFD054B074815221A6001F0BCFCCD
:102B6000FFF7B4FD192B0108792B01081C01002087
:102B7000A4730108C073010810B5037D5A07044609
:102B80000BD5C37D0133C3750648FFF74FFDD4E96C
:102B9000023213440120A36010BD43F00403037507
:102BA000F2E700BF0C01002010B4847D521A34B14A
:102BB00004F1FF3C012101FA0CF10A44E240FE2A33
:102BC0000AD8017F4418033162771A0AA377E277A3
:102BD0005DF8044B01777047037FC218012191779C
:102BE000FF2400215477D17703335DF8044B03773A
:102BF000704700BF38B50E4904460078FDF75EFD0A
:102C00000546FFF787FC00232B75A36803B938BD81
:102C10006368AB60A368EB6005F1180002F0E8FDA3
:102C2000E368AB7528464A21BDE83840FFF77EBD12
:102C3000192B01082DE9F04390F800803249054630
:102C400085B04046FDF73AFD0446A8682F79FEF7A7
:102C500027F894F81590B9F1020F054623D003F038
:102C600015FE03463A46206901211C462B4600F01A
:102C700045FC03F00BFE0646322003F0FFFD331B3C
:102C8000834288BF0027B9F1010F18BF26461F48AD
:102C900001F054FE00953B4632464146FEF7F2F8FD
:102CA00005B0BDE8F0830DF108092169484600F040
:102CB0001DFC99E80300002202F056FF03F0E6FD38
:102CC0000646012003F0DAFD064401E003F0A4FD0E
:102CD00003F0DCFD0146304603F0D4FD0028F5D0BA
:102CE00003F08AFD99E80300012202F03DFF03F0A2
:102CF000CDFD064603F082FD20692B463A460121B0
:102D000000F0FCFBC3E700BF192B0108E0730108CA
:102D10002DE9F04BC44888B0FFF790FC002856D04E
:102D2000FF23C24E8DF80B30002531460DF10B000C
:102D3000FDF710FD0446002849D0237D5F07F4D538
:102D400003F05AFD94F817B02575E575D4F808809E
:102D500003F054FDE768A8EB07030193BBF1000FF4
:102D600019D04FF0FF0902E0BBF1010B13D0237F14
:102D7000E1180333DBB2302B81F81D908D77CD77CE
:102D80002377F1D99DF80B1004F1180002F036FDFD
:102D9000BBF1010BEBD194F815B0BBF1000F19D0CA
:102DA000BBF1010F57D0BBF1020F76D0237F302B40
:102DB000BBD904F118009DF80B1002F01FFD31463D
:102DC0000DF10B00FDF7C6FC04460028B5D108B094
:102DD000BDE8F08B4FF03208ADF8148003F056FDDB
:102DE00005AB022201210746206900F087FB03F0B2
:102DF0004DFD03464046A3EB070803F03FFD804529
:102E00000BD9237FE218FF2103335177DBB2022174
:102E100082F81FB091772377C9E79DF914209DF8B8
:102E20001430002A0BDA237FE218FF210333517795
:102E3000DBB2032182F81FB091772377B7E79DF8C3
:102E4000150001995B0243EA40033A462046FFF72A
:102E5000ABFE237FABE74FF67F63ADF8143003F092
:102E600015FD05AB022200218046206900F046FBDB
:102E700003F00CFDA0EB08080746322003F0FEFC2F
:102E8000804573D9237FE218FF2103335177DBB2EA
:102E90000221D5779177237789E70DF10C0B216912
:102EA000584600F023FB9BE80300002202F05CFE82
:102EB00003F0ECFC8146012003F0E0FC814401E0DA
:102EC00003F0AAFC03F0E2FC0146484603F0DAFCFA
:102ED0000028F5D003F090FC9BE80300012202F0EB
:102EE00043FE03F0D3FC814603F088FC42F28433B6
:102EF0000593ADF81C50069520690A22012105AB07
:102F000000F0FCFA0DF115010DF11B00052211F87E
:102F1000013F4FF0080B5A40530012F0800F08BFDA
:102F2000520083F01D0314BFDAB2D2B2BBF1010B21
:102F3000F2D18842EBD1D3439DF81D20DBB29A42F7
:102F40007FF471AF9DF81C30DB0641D59DF916303A
:102F5000002B53DB237FE218FF2103335177DBB2D1
:102F6000042182F81FB09177237720E7C0228DF8E3
:102F700014208DF8155005AB59460222206900F047
:102F8000BDFA9DF814309DF8151083EA010282EA1B
:102F9000121282EA920282EA520212F001020CD16B
:102FA000580621D5237FE1180333CA77FF20DBB20F
:102FB000052248778A772377F9E6237FE218FF21F5
:102FC00003335177DBB20321D57791772377EEE690
:102FD000237FE218FF2103335177DBB2052182F80A
:102FE0001FB091772377E2E6890041EA83233A46CE
:102FF00001992046FFF7D8FD237FD8E640F25550CF
:1030000003F03CFCA7EB0807B944814510D9237FA6
:10301000E218FF2103335177DBB2012182F81FB0A0
:1030200091772377C3E600BF0C010020192B01081C
:103030009DF817209DF816309DF81A00520042EABC
:103040004322237FE11803338A77C0F34500DBB2C4
:10305000120A4877CA772377A9E600BF38B507492F
:10306000054654220078FDF749FB0446044B2879B5
:103070006360FEF73FFB206138BD00BF5D30010893
:103080008530010808B5034604481A7E42F0010263
:103090001A76FFF7CBFA002008BD00BF1001002010
:1030A00070B5114905460078FDF708FB0446002677
:1030B000FFF730FA26766B6803B970BDE36004F160
:1030C0001A0002F095FB666103F096FB03F0DEFB4D
:1030D000E3681844A06031462046FFF727FBBDE8AF
:1030E000704003F08BBB00BF5D30010870B5214913
:1030F00086B006460078FDF7E1FA3A238DF80C30E9
:1031000001220DF113030169CDE90023044603AB4D
:1031100003C902F097FF9DF81330DB0602D5A38B9D
:103120000133A38372238DF8103003F0AFFB05AB9E
:103130002269019302230093054604AB92E8030041
:10314000012202F07FFF03F0A1FB9DF814C031784B
:10315000431B4FEA0C2C04F11A009DF815400CF4A7
:10316000F85C44EA0C042A46009402F05FFB06B0C7
:1031700070BD00BF5D3001082DE9F041364884B0D4
:10318000FFF75CFA80B1FF23344D334E8DF80B30DE
:1031900002E0237EDB070AD429460DF10B00FDF780
:1031A000D9FA04460028F4D104B0BDE8F081E38ADE
:1031B0009DF80B802F2B1FD903AF74228DF80C20A4
:1031C00022693B4604F11F0130270097019192E8E4
:1031D0000300012202F036FFE38AA777303BE38247
:1031E000414604F11A0002F009FBE38A2F2B21D992
:1031F0003046FFF71BFACFE7722223698DF80820CB
:1032000003AF02220092019793E80300012202AB70
:1032100002F018FF9DF80C309DF80D20A08A1B02CB
:1032200003F4F85342EA0301884238BFA1822F29F0
:10323000E182C2DC237E23F00103237603F0DCFA73
:1032400003F024FBE3681844A06000212046FFF748
:103250006DFA03F0D3FA9FE7100100205D300108FA
:103260002DE9F04190F81080B8F1030F84B00546C5
:1032700031D8007800F0ECF807461C20FDF77AF909
:1032800002AE044669683046012202F0ADFC96E8C1
:10329000030084E803006E46A9683046002202F06D
:1032A00017FC96E8030004F1080383E803000022FA
:1032B000E968304602F00CFC96E8030004F11003C4
:1032C00083E803002146384684F8188004B0BDE83E
:1032D000F04100F0F1B8044B044813221A6001F0E9
:1032E000FBF8FFF7F3F900BF1C0100201C74010874
:1032F000027E00F1100393E8030002F0020202F0E4
:1033000033BC00BF2DE9F04B82B0541E074600913C
:10331000E4B2002A4DD003F1FF392344019300F1B8
:10332000100600F1080819F8015F4FF0080B00249F
:103330001AE096E8030002F005FC05F0800298E828
:10334000030002F011FC96E8030002F0FBFB97E893
:10335000030002F071FC6400E4B26D000443BBF1B1
:10336000010BEDB2E4B21DD03B7EDB0705F080021D
:10337000DFD498E8030002F0F7FB96E8030002F0C0
:10338000E1FB97E8030002F057FC6400E4B2044359
:1033900096E8030002F0D6FB6D00BBF1010BEDB225
:1033A000E4B2E1D1009B0BB189F80040019B4B4591
:1033B000B9D102B0BDE8F08B70B5044682B00F49B8
:1033C00000781422FDF79AF9A66861686D46B6FA8E
:1033D00086F252090446284602F07AFB95E803007B
:1033E00004F1080383E80300002E94F9103014BFA1
:1033F000092201221343237402B070BDB9330108BE
:10340000F8B50D4904460079FDF758F9267A0B49BD
:1034100006F1080207462078FDF770F905460671A7
:10342000E0682F60FDF73CFC32460146681DBDE8B0
:10343000F84003F08FBC00BFB93301080134010824
:10344000024900781422FDF759B900BFB9330108C9
:103450000149FDF733B900BFB933010870B505461E
:103460001249007882B0FDF729F92A7A032A044626
:1034700013D8037C13F0060F0FD16E46EB68696812
:10348000304602F041FE96E80300237C43F004033B
:1034900084E80300237402B070BD054B0548112277
:1034A0001A6001F019F8FFF711F900BFB9330108EC
:1034B0001C0100201C74010808B5037C13F0060FE2
:1034C00004D143F002030374016008BD034B0448B8
:1034D00012221A6001F000F8FFF7F8F81C01002032
:1034E0001C740108007C00F001007047083103469D
:1034F00003C983E803001846704700BF2DE9F04375
:10350000057C15F0060F83B004460E461746994613
:103510001DD0A9070DD50068FFF7EAFEEA0735D4EC
:1035200020684B463A46314603B0BDE8F043FFF70A
:10353000E9BED0E9000102F039FEEB070AD494E8B5
:1035400003003B46CDF80090324602F041FE03B046
:10355000BDE8F08304F10808C5F3C00298E8030051
:1035600002F002FBCDF8009094E803003B4632469F
:10357000ED0802F02DFE98E8030085F0010202F04C
:10358000010203B0BDE8F04302F0EEBA04F108080E
:1035900098E80300C5F3C00202F0E6FA20684B4643
:1035A0003A463146ED08FFF7ADFEE4E770B5067820
:1035B0000F4982B004463046FDF780F80346D4E94F
:1035C00001501C46FDF76CFBEAB203460121204680
:1035D000CDE90023FFF792FF064801F0AFF9DDE9DE
:1035E0000023314602B0BDE87040FDF74BBC00BF80
:1035F000B93301083074010830B50A4983B0044674
:103600000078FDF75BF8227901920546A068FDF786
:1036100047FB019A03460021284603B0BDE830402D
:10362000FFF76CBFB933010810B582B0FF23154C0A
:103630008DF8073002E0027CD3071AD421460DF141
:103640000700FDF787F80028F5D1FF230E4C8DF811
:10365000073003E002790068FFF750FF21460DF1C3
:103660000700FDF777F80021431D0028F2D102B0D2
:1036700010BD82F00802083003C8C2F3C00202F095
:1036800073FADBE7B93301080134010838B500F1FA
:10369000340504462846FCF7B3FF10B100206061F2
:1036A00038BD2846FCF7C2FFB0F9083042682382D3
:1036B0001344E36094F84430D90605460FD5A16859
:1036C000438963610A44A2602A7BD20711D4226B2A
:1036D000134423632846FCF771FF012038BDA1691C
:1036E00043890A44A261A2605A0062612A7BD20720
:1036F000EDD5216B04F128025B1A236392E80300E5
:1037000002F016FAE6E700BF70B500F120030446A8
:1037100093E8030002F00CFA03F0B8F86369E1697A
:10372000013BDA07636100EB010503D5A5600126C3
:10373000304670BD83B1E268A069B4F9103010441E
:103740001344A061E360294603F09CF80028EDD102
:10375000A369A3600126EBE72046FFF797FF064623
:103760000028E5D0A068294603F08CF80028DFD0B7
:10377000A3684FF47A705E1B03F080F84042B042B9
:10378000D4DD044B04480E221A6000F0A5FEFEF7BB
:103790009DFF00BF1C0100205C7401082DE9F04171
:1037A00005463249007882B04822FCF7A7FFEF684F
:1037B000002F044627DD04226E4680F84420696805
:1037C000304602F085F996E8030004F1200383E80F
:1037D00003000022A968304602F07AF996E8030057
:1037E00004F1280383E803004FF0404323632B696F
:1037F000E361102104F13400FCF722FF1C4B6360ED
:1038000002B0BDE8F0814FF000086E4680F84480B9
:1038100069684246304602F05BF996E8030004F11D
:10382000200383E803004246A968304602F050F9BD
:1038300096E8030004F1280383E803004FF04043B7
:1038400023632B69E361102104F13400FCF7F8FED7
:10385000E369002BD2D1002FD0D094F8443043F04C
:10386000100384F8443002B0BDE8F0819D370108B0
:103870000937010838B50446A0F13C052846FEF793
:1038800049FE237A54F80C1C002244F8342C44F8E6
:10389000242C54F8282CD8064CBF891AA1EB5201CD
:1038A00003F01403002943F00803C8BF4942002273
:1038B000237205F1280344F80C1C44F8282C93E8E3
:1038C000030002F051F9227AD3060DD5083C03E03B
:1038D000FCF7ACFEFCF772FE2046FCF791FE0346B7
:1038E0002046002BF4D038BD203595E8030002F0C7
:1038F000040202F039F9E9E700F1200310B50446AB
:1039000093E8030002F014F96369013B0AD0D4E99B
:103910000210B4F91020636101440244C4E90212A8
:10392000012010BD2046BDE81040FFF7AFBE00BF2C
:1039300070B5294905460078FCF7C0FE0646FCF73D
:1039400045FE6B6843602B8943810446002B3BD0C6
:10395000EA6802810023037302F04EFF96F84430B8
:1039600003F00101C3F34002914205D0227B42F0F3
:10397000010283F0010322737269D2B91A0711D4CC
:1039800006F1340186F844302046FCF741FE30460B
:10399000FFF77CFE30461621FEF7C8FEBDE87040FA
:1039A00002F02CBF2046FCF709FEBDE8704002F093
:1039B00025BF86F8443006F134012046FCF728FE86
:1039C000BDE8704002F01ABF044B05480F221A6090
:1039D00000F082FDFEF77AFE9D3701081C010020F1
:1039E0007474010838B50C4904460078FCF766FE8B
:1039F00063680446002B14BF0225002502F0FCFE7C
:103A000094F8443023F002031D4384F84450BDE889
:103A1000384002F0F3BE00BF9D37010838B50F49AA
:103A200005460078FCF74AFE04466D6802F0E4FEA5
:103A300063695BB994F84430A56023F00803A5617D
:103A400084F84430BDE8384002F0D8BE044B054845
:103A500010221A6000F040FDFEF738FE9D37010885
:103A60001C0100208C74010870B506780F4930469F
:103A7000FCF724FE054602F0BFFE95F844302C6B9F
:103A80006A69DB064CBFA41AA4EB520402F0B6FE2E
:103A9000002CB8BF6442064800F050FF04F14042D9
:103AA0003146BDE87040FDF7EDB900BF9D37010814
:103AB000B474010838B5084904460078FCF7FEFDE7
:103AC0000546207900F07CFB05F13C01034ABDE886
:103AD000384000F07BBB00BF9D37010875380108F6
:103AE00030B583B0FF230B4D8DF8073006E0FCF7AF
:103AF000A3FD002104F13C00FFF7BCFE29460DF1B7
:103B00000700FCF727FE04463430002CEFD103B049
:103B100030BD00BF9D37010810B504460648FEF7CA
:103B200085FDD4E90231627F42F001020B446277E5
:103B3000A360012010BD00BF1401002010B5047A5D
:103B4000032C08D8084900782022FCF7D7FD074B42
:103B50000477436010BD064B064803221A6000F04C
:103B6000BBFCFEF7B3FD00BF3D3B0108193B01085C
:103B70001C010020D474010838B50D4904460078B2
:103B8000FCF79CFD0B4B054600221A70FEF7C2FCA9
:103B90006368AB60A368EB6003B938BDE3682B6171
:103BA00023696B6128464421BDE83840FEF7BEBD5D
:103BB0003D3B0108110100202DE9F04B3D4886B046
:103BC000FEF73CFD002849D0FF233B4D3B4FDFF87B
:103BD000F0808DF81330002629460DF11300FCF714
:103BE000B9FD0446002839D0637FDA07F4D502F026
:103BF00003FE637FD4F8089023F00103637702F09B
:103C0000FDFD237F032BE7D8DFE803F046392B02C5
:103C1000A0699DF813B0ADF8146005AB0222012134
:103C2000FFF76CFCBDF8144064BAA4B2384600F04B
:103C300085FE23464A4659460096FDF723F9630759
:103C4000CAD5404600F048FCFEF766FD29460DF156
:103C50001300FCF77FFD04460028C5D106B0BDE87F
:103C6000F08B9DF813100391384600F067FE03991E
:103C700000964A4644F22C03FDF704F9ACE79DF8A0
:103C800013100391384600F059FE039900964A46F6
:103C90000023FDF7F7F89FE79DF8131003913846CE
:103CA00000F04CFE039900964A464FF0A073FDF7D2
:103CB000E9F891E7140100203D3B0108F474010884
:103CC000307501082DE9F043044685B01A490078A3
:103CD0003422FCF713FD94F80890D4F80480E768C8
:103CE000B9F1000202AE054618BF01224146304636
:103CF00001F07AFF96E8030005F114036E4683E8AD
:103D0000030001223946304601F0E2FE96E8030046
:103D100005F10C0383E80300B9F1000F08BF01238C
:103D200022692A6218BF1123B84508BF43F0200357
:103D30002B7705B0BDE8F083C53C010838B50446D3
:103D400000F10C0393E8030001F0F2FE637F94F8A6
:103D50001CC094F81FE0656A0133DBB28CF0010CE3
:103D6000734584F81CC00CF0010C29D204EBD3027B
:103D700003F0070192F828200A4102F0010294455D
:103D8000294607D016E092F82820024102F00102ED
:103D900094450FD10133DBB2734504EBD30203F03A
:103DA00007002944EFD3A368064A0B44C4E9012362
:103DB000012038BDA26863770A44A260012038BDA3
:103DC0002946F0E7313E010800F10C0310B5044626
:103DD00093E8030001F0ACFE02F058FD637F227F00
:103DE0000133DBB282F00102012B2277637719D015
:103DF000042B05D8A268236A1344A360012010BDD8
:103E0000A368626A1A44801A811C226A48BF411D55
:103E100002EBA1011844054A61620844C4E901208B
:103E2000012010BDA268801A6062E4E73D3D0108F0
:103E300010B5837F0446B3B1027F93060AD4A3680A
:103E4000606A164A002103EB80036177C4E901230D
:103E5000012010BD00F1140393E8030002F01002EA
:103E600001F08EFEEBE7037F13F0200F00F10C034F
:103E700093E803004FF001020CD101F075FE237F9F
:103E8000074803F0300343F009032377FEF7CEFB26
:103E9000002010BD01F0E4FDF1E700BF293F01085B
:103EA0001801002000F1140310B5044693E8030044
:103EB00001F0C2FE637F04EBD30C012203F0070183
:103EC00002FA01F19CF8282078B10A43D2B28CF8AA
:103ED0002820A27F0133DBB29A4209D9A268616A25
:103EE00063770A44A260012010BD22EA0102EEE7D6
:103EF000237F13F0200F04F10C0393E803004FF02D
:103F000001020CD101F030FE237F064803F030039C
:103F100043F009032377FEF789FB002010BD01F071
:103F20009FFDF1E71801002000F1140310B50446CD
:103F300093E8030001F080FE237F68B143F004039F
:103F40002377637F5A1C3F2B62770FD8A368626A7E
:103F500013440120A36010BD5B07F2D56077114BBD
:103F600063602046BDE81040FFF79CBF237F00221E
:103F7000A27713F0200F04F10C0393E803004FF035
:103F800001020CD001F06CFD237F074803F03003E1
:103F900043F009032377FEF749FB002010BD01F031
:103FA000E3FDF1E7A53E010818010020F8B5264918
:103FB00005460078FCF782FB037F13F002060446F7
:103FC00000D0F8BDA8682F79FCF76AFE0A2F2D7B78
:103FD000014631D80A2D2FD83A4604F1280002F0C4
:103FE000B9FE237F667703F0310343F00203ED004F
:103FF0002377FB00E377A5772FB194F8283003F0FF
:104000003F032A2B15D0226A104B6262636002F0D4
:10401000F3FB02F03BFC0546C82002F02FFC2844CD
:10402000A06033212046FEF781FBBDE8F84002F096
:10403000E5BB074B6360EAE7064B074802221A60BC
:1040400000F04AFAFEF742FBC53C01083D3D01087D
:10405000C93D01081C0100204C75010870B51848C5
:1040600082B0FEF7EBFA48B3FF23164D164E8DF8DB
:10407000073029460DF10700FCF76CFB0446E8B158
:10408000237F1B07F5D502F0B7FB237F23F008033E
:10409000237702F0B3FB304600F050FCA27F9DF87E
:1040A000071004F12803D208FCF7ECFE29460DF1B5
:1040B0000700FCF74FFB04460028E1D102B070BDB9
:1040C00018010020C53C01086475010830B583B0B3
:1040D000FF23114D8DF8073008E003C901F0C0FC43
:1040E000237F03F0300343F00103237729460DF1CA
:1040F0000700FCF72FFB00F10C01012204460B46E0
:1041000040B1207F8006E8D493E80300012201F04B
:104110002BFDE5E703B030BDC53C010810B50446F2
:10412000074894F8203043F0040384F82030FEF769
:104130007DFAA368A26913440120A36010BD00BFEB
:104140002001002008B5242204490078FCF7D6FAA3
:10415000034A044B4260036108BD00BF45410108AA
:104160001D410108B141010870B590F82030DA070F
:1041700004460E4619D5C06984F8211023F00503C2
:1041800043F0040384F8203050B10025D0E9002327
:104190003146E261C0E900559847E0690028F5D151
:1041A000BDE870400148FEF741BA70BD2001002013
:1041B00008B503460C38997DFFF7D6FF002008BDEF
:1041C0000149FCF77BBA00BF4541010870B50C46B8
:1041D0000546164602F014FB636843B93EB1EB692D
:1041E000C4E90036EC61BDE8704002F00DBB044B41
:1041F000044801221A6000F06FF9FEF767FA00BF69
:104200001C0100208875010838B51A490546007858
:10421000FCF754FA044602F0EFFA2046FEF77AF96A
:1042200004F10C00FEF776F9E36933B100211A4678
:104230001B68C2E90011002BF9D10022012323845D
:1042400084F822206B68A360AB68C4E9063233B9F6
:10425000EB6884F82230BDE8384002F0CFBA20463F
:104260001D21FEF763FAEB6884F82230BDE8384080
:1042700002F0C4BA4541010830B5114983B0054682
:104280000078FCF71BFA044602F0B6FA94F82030E6
:10429000DB0704D403B0BDE8304002F0AFBA04F14C
:1042A0000C000190FEF736F96B68019863611C21E0
:1042B000FEF73CFA03B0BDE8304002F09FBA00BF01
:1042C0004541010870B50678134984B0054630466B
:1042D000FCF7F4F9044602F08FFA29792046FFF73B
:1042E00043FF2046FEF716F9002504F10C00FEF707
:1042F00011F994F8213084F82050039302F07EFAEB
:10430000064800F01BFB039B00952A463146FCF74C
:10431000B9FD04B070BD00BF45410108B07501088A
:104320002DE9F0411E4886B0FEF788F9A0B3FF23BF
:104330001C4E1D4F8DF8173031460DF11700FCF75C
:1043400009FA044640B394F820305B07F4D502F034
:104350009DFA054602F050FA94F8208094F8213036
:10436000039328F0040284F8202002F047FA9DF815
:1043700017100291384600F0E1FA039B029900956C
:1043800008F00102FCF77EFD31460DF11700FCF745
:10439000E1F904460028D6D106B0BDE8F08100BF9F
:1043A0002001002045410108B075010870B5144E88
:1043B00082B0FF2331460DF107008DF80730FCF77E
:1043C000C9F900240546C8B1FEF7A4F805F10C00B0
:1043D000FEF7A0F8EB692BB11A461B68C2E900444E
:1043E000002BF9D1EC612C8485F8224031460DF187
:1043F0000700FCF7AFF905460028E5D102B070BD13
:104400004541010808B5FCF7A9F8FDF779FA01F074
:1044100009FF02F06FFABDE8084002F0E3B800BF00
:1044200008B5FCF745FDFCF721F9FDF725F9FFF785
:1044300057FBFFF7BBFFFCF759F8FFF7F5F8FEF75E
:1044400027F8FFF743FEFDF779FDFDF711FC02F0B9
:10445000E5F9BDE8084002F04BBA00BF08B502F02C
:10446000DBF9FFF75DFF02F0D7F9FBF7F1FF02F090
:10447000D3F9FCF7D9FB02F0CFF9FFF7EFFD02F01B
:10448000CBF9FDF711FF02F0C7F9FFF795FB02F03A
:10449000C3F9FEF791FA02F0BFF9FEF739FC02F01A
:1044A000BBF9FEF769FE02F0B7F900F065FF02F014
:1044B000B3F901F0EFF802F0AFF901F0ABFE02F052
:1044C000ABF902F099FA02F0A7F902F0E5F8BDE8BD
:1044D000084002F0A1B900BF10B5C9490446FBF776
:1044E000D5FE002800F06281C6492046FBF7CEFECB
:1044F000002800F05981C4492046FBF7C7FE002878
:1045000000F05881C1492046FBF7C0FE002800F0AA
:104510004F81BF492046FBF7B9FE002800F04C81CF
:10452000BC492046FBF7B2FE002800F04981BA4999
:104530002046FBF7ABFE002800F04481B749204637
:10454000FBF7A4FE002800F03981B5492046FBF7AF
:104550009DFE002800F03881B2492046FBF796FE08
:10456000002800F03381B0492046FBF78FFE002879
:1045700000F02E81AD492046FBF788FE002800F0B0
:104580002981AB492046FBF781FE002800F02481F9
:10459000A8492046FBF77AFE002800F01F81A649B3
:1045A0002046FBF773FE002800F01A81A34920463D
:1045B000FBF76CFE002800F01581A1492046FBF7AF
:1045C00065FE002800F010819E492046FBF75EFE44
:1045D000002800F00B819C492046FBF757FE00287D
:1045E00000F0068199492046FBF750FE002800F0B4
:1045F000018197492046FBF749FE002800F0FE8024
:1046000094492046FBF742FE002800F0F5809249CD
:104610002046FBF73BFE002800F08E818F492046A4
:10462000FBF734FE002800F085818D492046FBF71A
:104630002DFE002800F07C818A492046FBF726FEEB
:10464000002800F0738188492046FBF71FFE0028F0
:1046500000F06A8185492046FBF718FE002800F02B
:10466000618183492046FBF711FE002800F0588144
:1046700080492046FBF70AFE002800F04F817E4962
:104680002046FBF703FE002800F046817B492046C8
:10469000FBF7FCFD002800F03D8179492046FBF73F
:1046A000F5FD002800F0348176492046FBF7EEFD49
:1046B000002800F02B8174492046FBF7E7FD002815
:1046C00000F0228171492046FBF7E0FD002800F050
:1046D00019816F492046FBF7D9FD002800F01081B1
:1046E0006C492046FBF7D2FD002800F007816A499B
:1046F0002046FBF7CBFD002800F0FE8067492046EE
:10470000FBF7C4FD002800F0F58065492046FBF763
:10471000BDFD002800F0EC8062492046FBF7B6FDA5
:10472000002800F0E38060492046FBF7AFFD002839
:1047300000F0DA805D492046FBF7A8FD002800F074
:10474000D1805B492046FBF7A1FD002800F0C8801E
:1047500058492046FBF79AFD002800F0BF805649D3
:104760002046FBF793FD002800F0B6805349204611
:10477000FBF78CFD002800F0AD8051492046FBF787
:1047800085FD002800F0A4804E492046FBF77EFD01
:10479000002800F09B804C492046FBF777FD00285D
:1047A00014BFFF20342010BD032010BD022010BD17
:1047B000052010BD042010BD062010BD092010BD2D
:1047C000072010BD082010BD0A2010BD0B2010BD11
:1047D0000C2010BD0D2010BD0E2010BD0F2010BDEF
:1047E000102010BD112010BD122010BD132010BDCF
:1047F000142010BD152010BD172010BD162010BDAF
:104800003C730108607301082473010840700108BB
:1048100028700108107001084C6F0108F07501083C
:10482000886E0108746E0108606E0108DC6E010874
:104830001C6E01084C6E0108F06E0108386E01080C
:1048400054710108E47001081C710108B870010876
:104850008C740108747401085C740108887501087F
:10486000D86D01081C740108AC7101087072010850
:10487000A0720108C06F0108986F0108846F0108D9
:104880004C750108F0710108D47101081C7601080B
:1048900030750108D4740108C0730108A4730108BD
:1048A0002C76010844760108587601086C760108D8
:1048B0008C760108A4760108B0760108C476010858
:1048C000D4760108E876010814770108332010BD7A
:1048D000322010BD312010BD302010BD2F2010BD62
:1048E0002E2010BD2D2010BD2C2010BD2B2010BD62
:1048F0002A2010BD292010BD282010BD272010BD62
:10490000262010BD252010BD242010BD232010BD61
:10491000222010BD212010BD202010BD1F2010BD61
:104920001E2010BD1D2010BD1C2010BD1B2010BD61
:104930001A2010BD192010BD182010BD10B56C49EB
:104940000446FBF7A3FC002800F0A280694920463A
:10495000FBF79CFC002800F0998067492046FBF794
:1049600095FC002800F0988064492046FBF78EFCF7
:10497000002800F08F8062492046FBF787FC002862
:1049800000F08C805F492046FBF780FC002800F097
:1049900089805D492046FBF779FC002800F084807F
:1049A0005A492046FBF772FC002879D05849204626
:1049B000FBF76CFC002879D056492046FBF766FCD3
:1049C000002875D054492046FBF760FC002871D0C0
:1049D00052492046FBF75AFC00286DD0504920462A
:1049E000FBF754FC002869D04E492046FBF74EFCEB
:1049F000002865D04C492046FBF748FC002861D0D0
:104A00004A492046FBF742FC00285DD04849204631
:104A1000FBF73CFC002859D046492046FBF736FC02
:104A2000002855D044492046FBF730FC002851D0DF
:104A300042492046FBF72AFC00284DD04049204639
:104A4000FBF724FC00284BD03E492046FBF71EFC18
:104A5000002843D03C492046FBF718FC002845D0ED
:104A60003A492046FBF712FC00283DD03849204641
:104A7000FBF70CFC002835D036492046FBF706FC36
:104A8000354B00280CBF1846002010BD334810BD20
:104A9000334810BD334810BD334810BD334810BDF6
:104AA000334810BD334810BD334810BD334810BDE6
:104AB000334810BD334810BD334810BD334810BDD6
:104AC000334810BD334810BD334810BD334810BDC6
:104AD000334810BD334810BD334810BD334810BDB6
:104AE000334810BD334810BD334810BD334810BDA6
:104AF00070730108007301087C730108CC7201080F
:104B00005C6F01082C6F0108146F0108046F010825
:104B1000A06E01086C70010858700108B474010897
:104B20007C700108B0750108EC6D01083074010853
:104B300084710108E46F01086475010810720108AE
:104B400034720108F4740108E07301082877010841
:104B500060770108C877010868780108787801084B
:104B6000707801088878010880780108F8770108D2
:104B7000A07801089078010898780108A8780108C1
:104B8000B0780108B8780108C078010800780108F9
:104B900008780108107801081878010820780108C1
:104BA0002878010830780108387801084878010829
:104BB00040780108607801085878010850780108A9
:104BC00010B50D4C82B00121082001F0D1FF8222E6
:104BD00041F2030301A92046ADF80420ADF80630E8
:104BE00001F062FF2046802101F0BEFF0221204635
:104BF00001F0BAFF02B010BD000C01404348444A26
:104C0000D0F88810434B41F4700110B4C0F88810FC
:104C1000116841F00101116054682340536013682A
:104C200023F0847323F480331360136823F4802308
:104C30001360536823F00F6300204FF41F0123F427
:104C400070235360D06210639160D3693249334856
:104C500043F08053D361CB6843F00103CB60D36949
:104C600023F08053D361016841F090010160116825
:104C700041F480314FF6FF73116001E0013B02D037
:104C800011688803FAD5224B1A68910339D5234A53
:104C9000116821F003011160116841F004011160F5
:104CA0005A685A605A6842F400525A605A6842F48C
:104CB000A0625A605A6822F0036222F470225A609D
:104CC0005A6842F0016242F470225A601A6842F057
:104CD00080721A601A689201FCD559680C4A21F05A
:104CE00003015960596841F002015960536803F0AB
:104CF0000C03082BFAD1054B094A5DF8044B9A6066
:104D00007047084B084A1A60F5E700BF00ED00E065
:104D10000010024000C0FFF8007000400020024078
:104D2000000001083400002000127A0008B5134882
:104D3000012101F0B5FF00B908BD01210F4801F0C4
:104D4000BBFF0F4A0F49136801338B420BD8136026
:104D50000D4B0E491A6801321A601A688A4284BFE4
:104D600000221A6008BD0A490B780133DBB200202B
:104D70003B2B106094BF0B700870E9E70004004003
:104D80002C0100209F860100240100203F420F00DB
:104D900028010020704700BFFEE700BFFEE700BF0C
:104DA000FEE700BFFEE700BF704700BF704700BFCF
:104DB00070B500F108030646002293E8030000F0F6
:104DC0004FFE756A01F062FD04464FF47A7005FBF0
:104DD00000F001F053FD2546154CA4FB003405EB13
:104DE000944401F053FD8442FBD806F1100393E88C
:104DF0000300012200F0C4FE756A01F047FD04467D
:104E00004FF47A7005FB00F001F038FD2546084CA0
:104E1000A4FB003405EB944401F038FD8442FBD838
:104E2000183696E803000122BDE8704000F0A8BEE5
:104E300083DE1B432DE9F04B84B000F118030827F3
:104E4000029300F110030193DFF824B1C319064661
:104E50000D4603934FF47A792B067DD4039B0022F1
:104E600093E8030000F0FCFDD6F8248001F00EFD6D
:104E7000044609FB08F001F001FD6D00ABFB0023C7
:104E8000EDB204EB934401F001FD8442FBD8019B99
:104E9000012293E8030000F073FED6F8248001F0AD
:104EA000F5FC044609FB08F001F0E8FCABFB00232D
:104EB00004EB934401F0EAFC8442FBD896E803003B
:104EC000002200F0CDFD013FC6D1029B012293E8F4
:104ED000030000F055FE756A01F0D8FC04464FF45B
:104EE0007A7005FB00F001F0C9FC214BA3FB002305
:104EF00004EB934401F0CAFC8442FBD8019B0122DD
:104F000093E8030000F03CFE029B93E8030000F0EE
:104F100093FE776A054601F0B9FC04464FF47A70B7
:104F200007FB00F001F0AAFC114BA3FB002304EBEC
:104F3000934401F0ABFC8442FBD896E803000022C6
:104F400000F08EFD029B012293E8030000F018FEA2
:104F50004DB904B0BDE8F08B029B012293E8030039
:104F600000F00EFE80E70348FFF7B6FAFDF7AEFB50
:104F700083DE1B431C760108F8B5456A0F460646DA
:104F800001F084FC04464FF47A7005FB00F001F058
:104F900075FC2546284CA4FB003405EB944401F035
:104FA00075FC8442FBD806F1180393E80300012244
:104FB00000F0E6FD06F1100393E80300012200F083
:104FC000DFFD756A01F062FC04464FF47A7005FB60
:104FD00000F001F053FC2546174CA4FB003405EB10
:104FE000944401F053FC8442FBD806F1080393E893
:104FF0000300002200F034FD756A01F047FC04460E
:105000004FF47A7005FB00F001F038FC25460A4C9D
:10501000A4FB003405EB944401F038FC8442FBD837
:1050200096E80300002200F01BFD39463046BDE83B
:10503000F840FFF7FFBE00BF83DE1B432DE9F041C0
:10504000054684B00078FCF755FB80462C20FBF722
:1050500091FA2B695B0080F8203041F288321C4BBA
:10506000426202AF6A6969681A60044601223846E2
:1050700000F0BAFD97E8030004F1100383E8030091
:105080006E4669683046012200F022FD96E8030072
:1050900084E803000122A968384600F0A5FD97E8DE
:1050A000030004F1180383E803000122A9683046D5
:1050B00000F00EFD96E8030004F1080383E8030006
:1050C0002146404604B0BDE8F041FCF739BB00BFC3
:1050D00030010020704700BF704700BF70B50D461B
:1050E00090F8201006461446FFF746FF3DB12544D0
:1050F00014F8011B3046FFF79DFEAC42F8D1304654
:10510000BDE87040FFF754BE2DE9F04B84B00D466A
:1051100090F820101F460C9B03930646144641F05E
:105120000108002D40F0AA8041463046FFF724FFD9
:105130007B1EDBB20293002F00F0928006F1180371
:105140000093DFF8509106F110030193009B0122B8
:1051500093E8030000F014FD082700254FF47A7B44
:10516000D6F8248001F092FB04460BFB08F001F016
:1051700085FBA9FB002304EB934401F087FB8442E9
:10518000FBD8019B012293E8030000F0F9FCD6F85C
:10519000248001F07BFB04460BFB08F001F06EFB62
:1051A000A9FB002304EB934401F070FB8442FBD87D
:1051B000009B93E8030000F03FFD6D00EDB2054356
:1051C000002296E8030000F04BFC013FEDB2C7D18E
:1051D000009C012294E8030000F0D2FC029B002B0B
:1051E00044D194E80300012200F0CAFC776A01F080
:1051F0004DFB04464FF47A7007FB00F001F03EFBD4
:10520000A9FB002304EB934701F040FB8742FBD846
:10521000019B012293E8030000F0B2FC776A01F0E1
:1052200035FB04464FF47A7007FB00F001F026FBD3
:10523000A9FB002304EB934701F028FB8742FBD82E
:10524000002296E8030000F00BFC029B039A013B4E
:10525000DBB202F8015BFF2B029303927FF476AF7F
:10526000304604B0BDE8F04BFFF7A2BD06F10803DD
:1052700093E803003A4600F0F3FBB7E7FFF77CFE44
:10528000254414F8011B3046FFF7D4FDA542F8D1A0
:105290004AE700BF83DE1B4338B507490546502265
:1052A0000078FBF72BFA0446044B28796360FEF77D
:1052B000CFF8206138BD00BF99520108C1520108E2
:1052C00008B5034604481A7D42F001021A75FDF73D
:1052D000ADF9002008BD00BF3401002070B51049B1
:1052E00005460078FBF7EAF904460026FDF712F9B7
:1052F00026756B6803B970BDE36004F1160000F019
:1053000077FA01F079FA01F0C1FAE3681844A06075
:1053100031462046FDF70AFABDE8704001F06EBA4A
:105320009952010870B5134984B004460078FBF720
:10533000C5F9AF230546ADF80C3001F0A7FA03AB71
:105340000646022228690121FEF7D8F801F09EFAEC
:105350009DF80DC021780CF01F0C0CEB4C0C4FEAA3
:105360004C04831B0094324605F1160000F05EFAEF
:1053700004B070BD995201082DE9F0433E4885B054
:10538000FDF75CF980B1FF233C4D3B4F8DF80330B6
:1053900002E0237DDB070AD429460DF10300FBF769
:1053A000D9F904460028F4D105B0BDE8F083AF2256
:1053B000002394F81A90ADF80420A82202932069E3
:1053C0008DF80E30ADF80C308DF8082002AB0722B6
:1053D000012109F11B069DF80380A144FEF78EF818
:1053E00001AB022220690121FEF788F826449DF8CE
:1053F000093089F81B309DF80A309DF8052073703C
:105400009DF80B30B3709DF80C30F3709DF80D30A3
:1054100033719DF80E307371A37E0633DBB22D2BF2
:10542000A37602F03F0902F040061CD8384616B1B8
:10543000238B01332383B9F1000F02D1FDF7F6F876
:10544000AAE7237D23F00103237501F0D5F901F0CC
:105450001DFAE36818440021A0602046FDF766F9B4
:1054600001F0CCF998E704F11600414600F0C6F9C6
:105470003846002EDFD0DBE73401002099520108C6
:1054800038B50749054668220078FBF737F9044626
:10549000044B28796360FCF72DF9206138BD00BF0B
:1054A00081540108A954010810B5037DD9070446A9
:1054B00002D5028B013202839A0707D504F150030B
:1054C00093E8030000F0B8FB30B9237D054843F0B2
:1054D00001032375FDF7AAF8D4E902321344012031
:1054E000A36010BD3801002030B5682283B00446A7
:1054F0000F490078FBF702F905460E4B20796B60E7
:10550000FCF7F8F80A4928612078FBF7D7F86D46D0
:10551000A16801220446284600F066FB95E80300D6
:1055200004F15003022283E80300227503B030BD6A
:1055300081540108A954010838B50E490546007880
:10554000FBF7BCF8AB68036604461BB980F85C3017
:10555000836538BD6B684366287BFEF731FE2B6997
:1055600084F85D306A6984F85E20062384F85C3034
:10557000A06538BD8154010870B50949044600781A
:10558000FBF79CF805460748FFF7D8F995F85C202B
:105590006B6E2168C2F38002BDE87040FBF772BCFD
:1055A000815401082877010838B51149054600786B
:1055B000FBF784F80446FCF7ADFF237D23F00103DD
:1055C00023756B6803B938BDE36004F1160000F081
:1055D0000FF901F011F901F059F9E3681844A060DE
:1055E00053212046FDF7A2F8BDE8384001F006B986
:1055F00081540108F0B5264987B006460078FBF7CC
:105600005DF8037D9B07054624D401F03FF918237C
:105610008DF8133005AB2A690193022300930746E6
:105620000DF1130392E80300012200F00BFDBDF819
:10563000144064BA01F02AF9A4B2641004F004041E
:1056400031780094C31B3A4605F1160000F0EEF8DD
:1056500007B0F0BD01F0D0F801F018F905F15003E2
:10566000024693E80300039200F0E6FA044601F0D4
:10567000C5F8002C0CBF042300233178039A009353
:1056800005F11600002300F0D1F807B0F0BD00BF0F
:10569000815401082DE9F04B534884B0FCF7CEFF4C
:1056A00000287FD0FF23DFF844818DF80A3041467F
:1056B0000DF10A00FBF74EF80446002872D0237D56
:1056C000D807F4D503AF022623699DF80AB0CDE9C7
:1056D00000674FF018028DF80B2093E803000122B9
:1056E0000DF10B0300F0AEFCBDF80C5001F084F896
:1056F000237D6DBA23F00103ADB2237501F07EF86E
:105700002907D4D594F81A902369009609F11B054E
:1057100025444FF000028DF80C20019593E803001A
:1057200001223B4600F08EFC216900960122A81957
:105730008DF80C2001903B4603C900F083FCA37E4A
:1057400094F85C600433DBB27207A3761BD5A144E6
:10575000EB7899F81B2043EA02636A78AD7843EA54
:10576000024343EA0525B5F1805F1ED201F08EF8B1
:10577000B307074627D4236E9D422CD806F0FD06BA
:1057800084F85C60A37E2F2B91D904F11600594652
:1057900000F034F841460DF10A00FAF7DBFF044649
:1057A00000288CD104B0BDE8F08B4FF0000384F8E2
:1057B0005C3094F85E10A06DFEF7D6FCA37E2F2B14
:1057C0007FF675AFE1E7616E01F05CF80028D9D192
:1057D000236E9D42D2D994F85D10A06D6766FEF7E6
:1057E000C3FC0026CCE700BF38010020815401082B
:1057F0000023038043800371704700BF10B584B05D
:10580000044609480391FFF799F82346039933F8B2
:10581000052B00932379FBF735FB23880022013306
:105820002271238004B010BDC877010870B504460A
:1058300088B00A480593CDE90621FFF77FF825795E
:105840000C9E07993544019565880295248800943B
:10585000DDE90532FBF716FB08B070BD6077010883
:105860002DE9F0412E4A86B006460D460423002459
:1058700001E012F8013FAB4207D001340F2CF8D100
:105880002848FEF729FEFCF721FF274A274F5369D6
:1058900043F470435361D36A23F4FF7323F001038D
:1058A00043F00703D3624FF0010800234FF4602256
:1058B00069463846CDE90033CDE9023204938DF8CC
:1058C000148001F06DF9C7F80880BB6D9B06FCD50C
:1058D000BB6D23F08003BB650A2000F0E9FF0523C0
:1058E000BB60124B9A6812F00402FBD1FE2D11D15D
:1058F0009A680F4942F400029A60D1F8203843F4C4
:105900008063C1F82038094B3046C6E9003406B040
:10591000BDE8F0810321284600F0EEFCF3E700BF6C
:10592000FC8A010858760108001002400008024075
:105930000010004010B582B002AB03E90300036819
:10594000DA0604460AD59B0702D5436B8B4218D072
:10595000142002B0BDE8104000F090BF04230122E3
:10596000C9B201F043F9A36843F00103A360A3683F
:10597000142043F4A003A36002B0BDE8104000F07F
:105980007DBF002002B010BD026822F0020202605A
:10599000026822F010020260826882B002AB22F438
:1059A000A00203E903008260034619B1034AC06CF8
:1059B00022F81100D86C80B202B070473C01002080
:1059C00010B5044682B002AB03E9030000F018FFF3
:1059D0002368DB0604D402B0BDE8104000F014BF19
:1059E0002368019A23F002032360236823F0100345
:1059F0002360A36823F4A003A3601AB1044BE16CF5
:105A000023F81210E36C02B0BDE8104000F0FCBEB9
:105A10003C01002070B584B0014601AC01A800F043
:105A200013FC70CC00F0ECFE236833432360236842
:105A300015B100232E602B6004B0BDE8704000F06B
:105A4000E3BE00BF00B585B0014601A800F0FCFB35
:105A5000019A039B1068184005B05DF804FB00BF75
:105A60002DE9F04182B002AB03E903000546164977
:105A7000019E164B1746002001E051F8043B9D4261
:105A800014D001300728F8D1002400F0B9FE804678
:105A900007B9360420462E610022012100F02CFCBB
:105AA000404602B0BDE8F04100F0AEBE0401002364
:105AB000012202E00133102BE7D002FA03F1314258
:105AC000F8D01C44E1E700BF108B0108000801403A
:105AD000F0B56F2983B00C460546164619D8114B10
