:020000040801F1
:1000000098740020AD0101084F1D0108451B01082F
:10001000251D0108E91101081D2D0108000000003F
:1000200000000000000000000000000005200108A2
:100030004D14010800000000C3010108B3210108AC
:10004000C7010108C7010108C7010108C70101086C
:10005000C7010108C7010108C7010108C70101085C
:10006000C7010108C7010108C7010108C70101084C
:10007000C7010108C7010108ED110108C701010806
:10008000C7010108C7010108C7010108C70101082C
:10009000C7010108C7010108C7010108C70101081C
:1000A000C7010108C7010108C7010108C70101080C
:1000B000C7010108C7010108C7010108C7010108FC
:1000C000C7010108C7010108C7010108C7010108EC
:1000D000C701010825280108A9280108FD290108F0
:1000E00051140108C7010108C7010108C70101082F
:1000F000C7010108C7010108C7010108C7010108BC
:10010000C7010108C7010108D9240108C701010876
:10011000C7010108C7010108F9240108C701010846
:10012000C7010108C7010108C7010108C70101088B
:10013000C7010108C7010108C7010108C70101087B
:10014000C7010108C7010108C7010108C70101086B
:10015000C7010108C7010108C7010108C70101085B
:10016000C7010108C7010108C7010108D12601081C
:10017000C7010108C7010108C7010108C70101083B
:10018000C7010108C7010108C7010108C70101082B
:10019000C7010108C7010108DFF80CD000F0E4FC3A
:1001A00000480047715E01089874002006488047A7
:1001B00006480047FEE7FEE7FEE7FEE7FEE7FEE74C
:1001C000FEE7FEE7FEE7FEE72924010899010108A2
:1001D00040EA01039B0703D009E008C9121F08C0C9
:1001E000042AFAD203E011F8013B00F8013B521E49
:1001F000F9D27047D2B201E000F8012B491EFBD2C0
:1002000070470022F6E710B513460A460446194621
:10021000FFF7F0FF204610BDCAB2401E10F8011FC4
:100220008A4202D00029F9D100207047421C10F800
:10023000011B0029FBD1801A70472DE9FE4F804633
:1002400081EA0300C00F0C46009021F0004123F02A
:100250000045B8EB0200A94105D240462146904630
:100260001C460B46024623F00040104347D0270DA2
:10027000C7F30A00C3F30A510290401A01904028C4
:100280006BDAC3F3130040F4801B0098924620B150
:100290000023D2EB030A63EB0B0B01985946C0F124
:1002A0004002504600F03DFA06460D46504659467B
:1002B000019A00F055FA10EB08006141002487EA2A
:1002C000115284EAE7731A4340D0009A62B3019A4C
:1002D000012A4FEA075215DC001B61EB02014FF0C7
:1002E000004202EA0752CDE90042001C41F58011AC
:1002F00032462B4600F0E8FA03B0BDE8F08F4046E6
:100300002146F9E7001B61EB0201001C41F5801357
:1003100000185B412018A2F5001747EB030140EAE3
:10032000D570B6196D4111E06D084FEA360645EA01
:10033000C0754FEA0752001B61EB0201001C41F53A
:10034000801149084FEA30000019514132462B46CE
:1003500003B0BDE8F04F00F0A8BA009801224000B9
:100360000023D0EB020263EBE073009821464FEAD2
:10037000E074B8EB000061EB0401E9E783F00043AF
:100380005BE781F0004158E72DE9FE4F81EA030465
:1003900004F0004421F0004100944FF0000B23F0E2
:1003A000004350EA01045ED052EA03045BD0C3F379
:1003B0000A54C1F30A552C44A4F2F3340194A0FB6F
:1003C0000254C1F3130141F48011C3F3130343F446
:1003D000801301FB024400FB034E840A970A44EA9F
:1003E000815447EA8357A4FB076802958D0A05FBF1
:1003F00007854FEA932C04FB0C542705029D4FEA16
:10040000065847EA1637B5EB08056EEB070C870E62
:10041000920E47EA811742EA8312A7FB0201B6EB6C
:100420000B0164EB00042B0D43EA0C335E1844EB24
:100430001C50DA465146E7FB0201C5F313044FEAAC
:100440000B3343EA14534FEA0432019C43EA060398
:10045000A4F10C040294009CCDE900B400F034FA3D
:1004600003B0BDE8F08F00200146F9E72DE9F04D1B
:1004700081EA030404F0004B21F0004514464FF0DC
:10048000000A23F0004150EA050220D054EA01029C
:100490001DD0C5F30A570246C5F31303C1F3130079
:1004A000C1F30A5640F4801543F48013A7EB060805
:1004B000101BD64608F2FD3873EB050002D308F195
:1004C000010801E092185B41B8F1000F03DA002047
:1004D0000146BDE8F08D00204FF4801106468446A9
:1004E0000EE0171B73EB050705D3121B63EB050327
:1004F00006434CEA010C49084FEA300092185B4170
:1005000050EA0107EDD152EA030012D082EA04005A
:1005100083EA0501084305D0101BAB4106D2012236
:10052000002306E000224FF0004302E06FF00102DA
:1005300053101AEB06004CEB085110EB0A0041EB8C
:100540000B01BDE8F04D00F0B0B90EB540F23341FB
:1005500002910021CDE900110A460B4600F0B4F9E2
:1005600003B000BD70B5C1F30A5201F0004500248C
:10057000C1F3130140F2FF3341F480119A4201DAD2
:10058000002070BD40F233439A42A2F2334203DCB2
:10059000524200F0D5F800E090402C43F1D04042A8
:1005A00070BDC1F30A5210B5C1F3130140F2FF331D
:1005B00041F480119A4201DA002010BD40F2334329
:1005C0009A42A2F2334203DC524200F0B9F810BD65
:1005D000904010BD00F0004230F000400AD0C10D44
:1005E00001F56071C0F3160042EA0151C2084007EC
:1005F00011437047002001467047000030B5041ECB
:1006000071F1000404DB4FF00044404264EB01014F
:10061000141E73F1000405DB1C464FF000435242E8
:1006200063EB04038B4208BF824230BD30B5041E29
:1006300071F1000404DB4FF00044404264EB01011F
:10064000141E73F1000405DB1C464FF000435242B8
:1006500063EB0403994208BF904230BD01F00043B0
:1006600030B421F0004150EA010206D00A0DA2F593
:100670006072C1F31301002A02DC30BC0020704715
:10068000440F44EAC104C100E01830BC00EBC25082
:1006900000F0D4B830B50B460146002020220124DA
:1006A00009E021FA02F59D4205D303FA02F5491B40
:1006B00004FA02F52844151EA2F10102F1DC30BD56
:1006C0002DE9F05F0546002092469B468846064687
:1006D000814640241BE0284641464746224600F01A
:1006E0002FF853465A46C01A914110D31146184666
:1006F000224600F016F82D1A67EB01084F462246F5
:100700000120002100F00DF817EB00094E41201EDA
:10071000A4F10104DFDC484631462A464346BDE8E1
:10072000F09F202A04DB203A00FA02F100207047F3
:100730009140C2F1200320FA03F31943904070471F
:10074000202A04DB203A21FA02F00021704721FA26
:1007500002F3D040C2F1200291400843194670478D
:10076000202A06DBCB17203A41FA02F043EAE07375
:1007700006E041FA02F3D040C2F120029140084362
:100780001946704700487047389F010810B5044665
:10079000FFF7F8FF0068005D00F0010010BD0000E9
:1007A0000FB4002300B589B00CA900910B996FF02C
:1007B0000042CB601E4B06931E4B07930423CDE9EA
:1007C00001321D4A089202466B46002000F072FA80
:1007D00009B05DF814FB70B586B006464FF0FF30E7
:1007E0000091CDE90101002015460C4604903246E7
:1007F000694604A8FFF7D4FF02460498211825B1E2
:1008000008B1084600E020462860049800280DD072
:10081000002A02DD0098884208D0081B0094CDE928
:1008200001043246694604A8FFF7BAFF06B070BD5E
:10083000ED0E01080B0F01088D0701080029A8BF64
:100840007047401C490008BF20F00100704710B4F9
:10085000B0FA80FC00FA0CF050EA010404BF10BCAE
:10086000704749B1CCF1200421FA04F411FA0CF1DB
:1008700018BF012121430843A3EB0C01CB1D4FEA14
:1008800000614FEA102042BF002010BC704700EB0F
:10089000C35010440029A4BF10BC7047401C49003D
:1008A00008BF20F0010010BC704710B5141E73F192
:1008B000000408DA401C41F1000192185B411A4320
:1008C00001D120F0010010BD2DE9F04D92469B466C
:1008D00011B1B1FA81F202E0B0FA80F22032904612
:1008E000FFF71FFF04460F4640EA0A0041EA0B01EA
:1008F00053465A46084313D0114653EA010019D013
:10090000C8F140025046FFF71BFF05460E46504611
:1009100059464246FFF705FF084305D0012004E091
:1009200020463946BDE8F08D0020054346EAE076D2
:100930002C4337430A986305E40AA0EB0800002221
:10094000FD0A44EA47540A3002D500200146E9E78F
:10095000010510196941DDE9084500196941BDE843
:10096000F04DA2E72DE9F04D00231A461B1A8A41EB
:1009700003DB00200146BDE8F08DC1F30A52C1F34C
:10098000130141F480154FF0000BD10702D100187C
:100990006D41521E0027044640F2FF11384601EB1C
:1009A000620A3E468046024600204FF48011FFF75F
:1009B000C7FEC2197141BB1846EB0100B4EB030C32
:1009C00075EB000C04D3E41A65EB000517460E46E0
:1009D000241908F101006D4180463428E3DDF9193E
:1009E00046EB0600091BA84103D24FF0FF32134625
:1009F00001E0002213461BEB070046EB0A51BDE85D
:100A0000F04DFFF752BF00002DE9F041054621F0FF
:100A100000400C46284309D0C4F30A5040F2334149
:100A2000884205DD28462146BDE8F0812846FBE7DF
:100A300040F2FE31884210DC0CDB4FEA043040EA21
:100A4000155050EA053105D0104804F0004101432B
:100A50000020E9E700200146E6E7A0F233404642E5
:100A6000C6F1400228462146FFF75BFE074688464E
:100A7000284621463246FFF763FE43463A46FFF7D3
:100A800014FF3246BDE8F041FFF74BBE0000F03FD7
:100A9000C1F30A52C1F3130140F2FF3341F4801154
:100AA0009A4202DA00200146704740F233439A42EC
:100AB000A2F2334202DC5242FFF742BEFFF731BEE0
:100AC0002DE9F047C1F30A5401F00048054600271C
:100AD000C1F3130140F2FF3041F4801684421ADA68
:100AE000B4F57F7F00DC841EA4F213446242924678
:100AF00028463146FFF724FE04465246FFF711FE12
:100B000045404E40354301D0012000E0002044EA3A
:100B1000000100201BE040F2334084421ADCA4F2C2
:100B2000F33228463146FFF7FCFD0A467840514033
:100B3000084301D0012000E0002040EA020AA4F2AC
:100B40003344624228463146FFF7FAFD5146FFF72B
:100B500075FE03E0A4F2334405FA04F057EA0807EF
:100B600000D04042BDE8F087064C074D06E0E06843
:100B700040F0010394E8070098471034AC42F6D3E4
:100B8000FFF70EFBD49F0108F49F01082DE9FF4FEA
:100B9000087883B09946FF2805D0491C2D2804D039
:100BA0000024002008E000200BE00124F9E700EB1E
:100BB000800003EB4000491C0B78FF2BF7D104B1F8
:100BC000404200230293147819461D462D2C01D073
:100BD0002B2C04D1521C2D2C13D000240294AA4695
:100BE0001478FF2C0FD00A25A3FB057801FB0581A3
:100BF0004FF0000C03FB0C11521CE3194AEB0101EE
:100C0000EEE70124EAE7814453EA010002D019F536
:100C1000C87F06DA03980021C0E9001107B0BDE8DB
:100C2000F08F0025AE4E2F46DFF8B882184600F050
:100C30007DF9CDE90001B9F1000002DAC9F1000443
:100C400000E004460023A74A1AEB030B42EB045AC8
:100C500012E0E00707D02A46334638464146FFF700
:100C600093FB074688462A46334610461946FFF747
:100C70008BFB05460E466410002CEAD1DDE900012D
:100C8000B9F1000F5A46534606DAFFF7EFFB3A4632
:100C90004346FFF7EBFB05E0FFF776FB3A4643469A
:100CA000FFF772FB029A0AB181F00041039AC2E990
:100CB0000001B3E72DE9FF4F1F468DB0D7E901468C
:100CC0004FF0FF382E2045464FF000090B90B969D0
:100CD0006D1C0E988847396A824688470028F6D1ED
:100CE000BAF1FF3F0AD024F4D064002E11DDBAF12E
:100CF0002B0F08D0BAF12D0F0BD102E0404611B0F6
:100D00008DE744F48064B9696D1C0E98884782466B
:100D1000761E6946600501D52D2000E02B208DF858
:100D2000000001F1010B0DF1200809E0B9696D1C0B
:100D30000E98884782460F9844F40074761E05602A
:100D4000002E02DDBAF1300FF0D00B998A453ED16A
:100D500044F0800406E00F99681CA9F1010944F4ED
:100D600000740860B9696D1C761E0E98884782462B
:100D70003028F0D02BE00B998A4505D1200603D40A
:100D800044F08004761E18E0504603F0CFFE08B30E
:100D90000DF11301761E44F400748B4508D2AAF1BC
:100DA00030000BF8010B200607D5A9F1010003E084
:100DB000200602D409F101008146A00502D50F9951
:100DC000681C0860B9696D1C0E9888478246002E21
:100DD000D1DC53E0002E51DDBAF1650F02D0BAF13B
:100DE000450F4BD1A00549D5B9696D1C24F4407459
:100DF000761E0E9888478246002E0CDD2B2804D0E4
:100E0000BAF12D0F07D144F48074B9696D1C0E98A6
:100E100088478246761EE00501D52D2100E02B2172
:100E200008F8011BCDF82C8021E00DF12901761E78
:100E300044F4007488450CD2AAF1300010F0FF0091
:100E400088F8000002D10B99884509D908F10108FA
:100E500006E0E00501D5244801E042F20F7081462A
:100E6000B9696D1C0E98884782460F980560002E60
:100E700004DD504603F05AFE0028D6D1F9690E98D9
:100E80008847FF208BF8000088F8000000200690BB
:100E900007904B466A4608A906A8FFF777FEA0050B
:100EA00002D46FF001002AE714F0240F0AD0E00703
:100EB00014D1DDE906123868031D3B600068C0E903
:100EC00000120BE0DDE90601FFF7C8FB0146E00771
:100ED00004D13868021D3A600068016028460EE7B8
:100EE000000014400000F03FF1D8FFFF426842B11B
:100EF000016811F8013B23B1521EC0E900121846E7
:100F000070470121C160881E704742685AB1C368AA
:100F1000016843B983688B4205D0491E521CC0E961
:100F20000012002070474FF0FF3070470EB540F2BE
:100F3000334202920022CDE900221346FFF7C4FC9F
:100F400003B000BD70B58C1810F8015B15F00703F5
:100F500001D110F8013B2A1106D110F8012B03E052
:100F600010F8016B01F8016B5B1EF9D12B0705D45A
:100F70000023521E0DD401F8013BFAE710F8013BA3
:100F8000CB1A921C03E013F8015B01F8015B521EBF
:100F9000F9D5A142D8D3002070BD02688A4302600F
:100FA000704770B505460C4645B900214FF4807076
:100FB00000F04AFF204600F03BFF06E001212046FA
:100FC00000F042FF002000F033FF70BDF0B5044692
:100FD000154600200022122905D1E06D20F00700FF
:100FE0001843E06520E0092911DDE068A1F10A0657
:100FF00006EB4607072606FA07F29043A1F10A0618
:1010000006EB460603FA06F21043E0600CE02069A6
:1010100001EB4107072606FA07F2904301EB410670
:1010200003FA06F210432061072D0FDA606B6E1E83
:1010300006EB86071F2606FA07F290436E1E06EBA4
:10104000860601FA06F21043606322E00D2D0FDAE6
:10105000206BEE1F06EB86071F2606FA07F2904369
:10106000EE1F06EB860601FA06F21043206310E03D
:10107000E06AA5F10D0606EB86071F2606FA07F2C1
:101080009043A5F10D0606EB860601FA06F2104321
:10109000E062F0BD21B1826842F00102826003E0AB
:1010A000826822F001028260704721B1826842F4B6
:1010B000A002826003E0826822F4A002826070478E
:1010C000014600208A6802F004020AB1012000E013
:1010D000002070470146C86C80B2704770B5044666
:1010E0000D460723012229462046FFF76FFF012105
:1010F0002046FFF7DAFF00BF0221204600F010F87B
:101100000028F9D002212046FFF747FF1021204692
:10111000FFF743FF2046FFF7DDFF0646304670BD70
:101120000246002013680B400BB1012000E00020B4
:10113000704702460020936D0B400BB1012000E088
:101140000020704730B502460020002350680F4C45
:1011500020400D790C6844EA0524204350609068D3
:101160000B4C2040D1E902542C434D7944EA45040C
:1011700020439060D06A20F470000C7C641EE4B2BE
:10118000234340EA0350D06230BD0000FFFEF0FF71
:10119000FDF7F1FF816841F00401816070470000B4
:1011A00010B500244FF4E06000F02AFE03F066F86A
:1011B00006F0A6FC00F03AFC03F0FEF801F012FD88
:1011C000064800F001FD064800F0FEFC00F0BCFC03
:1011D00000200449086004F02BFE10BD00440040CC
:1011E000005401400001002000BFFEE710B509498E
:1011F0004FF4005000F014F800210648443000F08D
:10120000F5F80020044908704FF40061034800F02D
:10121000B7FB10BD0000024006010020000801409D
:10122000486070471AB103680B43036002E003682B
:101230008B4303607047000001684FF6FE72114057
:1012400001600021016041608160C16065498842A0
:1012500008D164490839496841F00F01614A083AE8
:101260005160BEE05F491431884208D15D490839B8
:10127000496841F0F0015B4A083A5160B1E05949D0
:101280002831884208D157490839496841F47061CA
:10129000544A083A5160A4E052493C31884208D18E
:1012A00050490839496841F470414E4A083A516042
:1012B00097E04C495031884208D14A490839496879
:1012C00041F47021474A083A51608AE04549643147
:1012D000884208D143490839496841F47001414ABC
:1012E000083A51607DE03F497831884208D13D4954
:1012F0000839496841F070613A4A083A516070E033
:1013000038498C31884208D136490839496841F05A
:101310007041344A083A516063E03349884206D14B
:10132000011F096841F00F01021F116059E02E49A9
:101330001431884208D12C49091F096841F0F00195
:10134000294A121F11604CE027492831884208D1F0
:101350002549091F096841F47061234A121F116071
:101360003FE021493C31884208D11F49091F0968E3
:1013700041F470411C4A121F116032E01A49503189
:10138000884208D11849091F096841F47021164A9A
:10139000121F116025E014496431884208D11249B6
:1013A000091F096841F470010F4A121F116018E00B
:1013B0000D497831884208D10B49091F096841F06D
:1013C0007061094A121F11600BE007498C31884295
:1013D00007D10549091F096841F07041024A121FEF
:1013E00011607047080002400804024021B1026801
:1013F00042F00102026004E002684FF6FE731A40F8
:10140000026070470146486880B2704710B50022FC
:10141000026847F6F0739A430C6A8B6823430C69A1
:1014200023434C6923438C692343CC6923434C6A8F
:1014300023438C6A23431A430260CB6843600B68E2
:1014400083604B68C36010BD416070477047000007
:1014500010B54FF4006000F011F830B14FF40060A7
:1014600000F006F801200149087010BDFC000020C2
:101470000149086070470000140401400146002043
:101480000022074B1B6803EA0102054B14331B685B
:101490000B4013B10AB1012000E0002070470000AA
:1014A000000401400249C9680143014AD160704704
:1014B0000020024030B5044606257C20FFF7F2FFED
:1014C0004FF4302000F08CF80546062D17D10D485A
:1014D000006940F002000B49086108464461006958
:1014E00040F0400008614FF4302000F079F80546E4
:1014F0000448006943F6FD71084002490861284626
:1015000030BD00000020024006201249C96801F0E9
:10151000010109B101201CE00E49C96801F0040174
:1015200009B1032015E00B49C96801F0080109B1B0
:1015300004200EE00749C96801F0100109B1052037
:1015400007E00449C96801F0400109B1072000E043
:1015500006207047002002400348006940F08000E8
:1015600001490861704700000020024078B5044638
:101570000D4606260020009004F0030010B1092655
:10158000304678BD7C20FFF78DFF4FF4005000F00F
:1015900027F80646062E12D10A48006940F00100DD
:1015A0000849086125604FF4005000F019F806461C
:1015B0000448006943F6FE7108400249086130465C
:1015C000DFE700000020024002480349486003486A
:1015D000486070472301674500200240AB89EFCD8A
:1015E00000B502460623FFF78FFF034603E0FFF72F
:1015F0008BFF0346521E012B01D1002AF7D102B9FD
:101600000A23184600BD0000F0B50C460023002652
:1016100000220025002100F00047B7F1004F02D161
:101620008B4FFA6919E000F08047B7F1804F02D183
:10163000874F3A6A11E000F00057B7F1005F02D11E
:10164000834F7A6A09E000F08057B7F1805F02D1DA
:101650007F4FBA6A01E07E4F7A68C0F3034583B2D8
:101660007C4F0740B7F5401F0AD122F07062784FD7
:101670007F6827F07067DFF8D8C1CCF80470BDE050
:1016800000F48017B7F5801F13D100F40017B7F5E9
:10169000001F03D10327AF403E0402E0032707FAEF
:1016A00005F6B24300F0E047002FE8D142F0706247
:1016B000A4E000F08077B7F1807F47D100F0040705
:1016C000042F29D100F00077B7F1007F16D1C0F3C5
:1016D00040573F0103FA07F7BA433CB15C4F7968C2
:1016E00041F0010141F07061796087E0584F7968FD
:1016F00021F0010141F0706179607FE0C0F3405753
:101700003F0103FA07F7BA43514F796821F001010D
:1017100041F07061796071E043F00407C0F3405C10
:101720004FEA0C1C07FA0CF7BA433CB1484F7968F2
:1017300041F0010141F0706179605FE0444F7968E8
:1017400021F0010141F07061796057E000F080679D
:10175000B7F1806F47D100F00807082F29D100F0BA
:101760000077B7F1007F16D1C0F340573F0103FA6D
:1017700007F7BA433CB1364F796841F0080141F0B0
:10178000706179603AE0324F796821F0080141F0E8
:101790007061796032E0C0F340573F0103FA07F708
:1017A000BA432B4F796821F0080141F070617960EC
:1017B00024E043F00807C0F3405C4FEA0C1C07FA32
:1017C0000CF7BA433CB1224F796841F0080141F06F
:1017D0007061796012E01E4F796821F0080141F0D4
:1017E000706179600AE0C0F340573F0103FA07F7E0
:1017F000BA4300F0E0470FB942F070622CB1C0F379
:1018000040573F0103FA07F73A4300F00047B7F1AA
:10181000004F02D10E4FFA6119E000F08047B7F196
:10182000804F02D10A4F3A6211E000F00057B7F141
:10183000005F02D1064F7A6209E000F08057B7F1ED
:10184000805F02D1024FBA6201E0014F7A60F0BDC1
:1018500000000140000030702DE9F04102460025F3
:101860000026002000230024002791F803C00CF07C
:101870000F0591F803C00CF0100CBCF1000F03D061
:1018800091F802C04CEA050591F800C0BCF1000FC8
:1018900031D0146800202BE04FF0010C0CFA00F35B
:1018A000B1F800C00CEA03069E4220D183004FF03D
:1018B0000F0C0CFA03F7BC4305FA03FC4CEA0404D2
:1018C00091F803C0BCF1280F06D14FF0010C0CFABF
:1018D00000FCC2F814C00AE091F803C0BCF1480F44
:1018E00005D14FF0010C0CFA00FCC2F810C0401CEE
:1018F0000828D1D31460B1F800C0BCF1FF0F34DD6B
:10190000546800202EE000F1080C4FF0010808FA9E
:101910000CF3B1F800C00CEA03069E4221D183000B
:101920004FF00F0C0CFA03F7BC4305FA03FC4CEA2A
:10193000040491F803C0BCF1280F05D100F1080C94
:1019400008FA0CF8C2F8148091F803C0BCF1480FF3
:1019500007D100F1080C4FF0010808FA0CF8C2F8A2
:101960001080401C0828CED35460BDE8F0810246A8
:10197000002093680B400BB1012000E0002070476D
:10198000416170470161704770B505460C46A1B2D0
:10199000284600F09BFE284600F0D8FDA04203D95F
:1019A0000121284600F0D0FD70BD000008B50121DE
:1019B000042000F07BFA2020ADF8000010208DF804
:1019C000030003208DF8020069461748FFF744FF23
:1019D00020211548FFF7D6FF0121042000F066FA08
:1019E0000220ADF8000010208DF8030003208DF8D0
:1019F000020069460C48FFF72FFF02210A48FFF753
:101A0000BFFF0121042000F051FA0120ADF80000D1
:101A100010208DF8030003208DF80200694602486B
:101A2000FFF71AFF08BD00000008014000B587B0AD
:101A30000121182000F03AFA01214FF4604000F033
:101A400015FA07210020FFF7ACFA4FF460514FF46C
:101A5000003000F0DFF94FF47040ADF818000020BE
:101A60008DF81B0006A93248FFF7F6FE0F20ADF8EF
:101A7000180000208DF81B0006A92E48FFF7ECFE89
:101A8000002001908DF808008DF809004FF46020C7
:101A900003900020049001208DF8140001A926482D
:101AA000FFF750FB01A92548FFF74CFB01A924488B
:101AB000FFF748FB01212048FFF7ECFA00BF202187
:101AC0001D48FFF736FB0028F9D01B48FFF762FBE3
:101AD00000BF1948FFF7F4FA0028FAD1012117488E
:101AE000FFF7D8FA00BF20211448FFF722FB002897
:101AF000F9D01248FFF74EFB00BF1048FFF7E0FA9D
:101B00000028FAD101210E48FFF7C4FA00BF2021B6
:101B10000B48FFF70EFB0028F9D00948FFF73AFB06
:101B200000BF0748FFF7CCFA0028FAD107B000BD84
:101B3000000C014000100140000C0240001802405F
:101B4000001C024000BFFEE708B50121082000F09C
:101B5000ADF92020ADF8000010208DF8030003201F
:101B60008DF8020069460E48FFF776FE0121082035
:101B700000F09CF94020ADF8000010208DF8030023
:101B800003208DF8020069460548FFF765FE202115
:101B90000348FFF7F7FE40210148FFF7F1FE08BDBB
:101BA000000C014000B54FF48031C80200F002F88B
:101BB00000BD0000024A0A400243024B1A6070470F
:101BC00080FFFF1F08ED00E010B504461F48844267
:101BD00006D14FF4EE720021204608F088F808E0A4
:101BE0001B48844205D14FF4EE720021204608F0D4
:101BF0007EF81648844205D1164A1021204608F086
:101C000076F807E01248844204D1124A1021204697
:101C100008F06DF880221121204608F068F80B4882
:101C2000844205D10C4A6C21204608F060F807E098
:101C30000748844204D1084A6C21204608F057F82E
:101C4000064A7021204608F052F810BD00440040BA
:101C50000054014000090A00C38200154B170DC84B
:101C600010B504F00FFC03F023FF4FF4F0610248BD
:101C7000FEF7C7FA10BD00009004002000203CE0F1
:101C80000021244A1154244A1154032801DB012263
:101C900000E0002200EB4001204B03EB011181F832
:101CA0002020002200EB400103EB01114A620122D7
:101CB00000EB400103EB011181F82120002200EB31
:101CC000400103EB011181F82220002100EB4002CA
:101CD00003EB02121176002200EB400103EB01112D
:101CE000CA6100EB400103EB01118A6200EB400185
:101CF00003EB0111CA62411CC8B20528C0DB0020F9
:101D000005E00021064A22F81010411CC8B2022842
:101D1000F7DB7047280400202D040020A45C00207D
:101D20003204002000BFFEE710B500F0DFF9FFF736
:101D30003DFE10BD30B50246A2FB01304FF4000558
:101D40005B1940F10000040244EA136030BD7047A3
:101D500008B532208DF8000000208DF80100042025
:101D60008DF8020001208DF80300684600F010F89D
:101D700036208DF8000000208DF8010005208DF838
:101D8000020001208DF80300684600F001F808BD4C
:101D900070B5002100230F22C47804B3154C2468C9
:101DA00004F4E064C4F5E064210AC1F10403CA400C
:101DB000447804FA03F184781440214309010E4C5D
:101DC0000678A155047804F01F050124AC4005787D
:101DD0006D11AD0005F1E025C5F8004109E004787A
:101DE00004F01F050124AC40044D0678761145F837
:101DF000264070BD0CED00E000E400E080E100E072
:101E000002490143024A1160704700000000FA05D0
:101E10000CED00E002460020044BD86A20F48060FC
:101E200020F4784010430843D86270470010024005
:101E300001460020034AD06A20F00F000843D06218
:101E4000704700000010024002460020064BD86A8E
:101E500020F4F87009B1104302E0104320F48070C0
:101E6000014BD862704700000010024029B1064AB9
:101E700052690243044B5A6104E0034A52698243A7
:101E8000014B5A61704700000010024029B1064A18
:101E9000D2690243044BDA6104E0034AD269824307
:101EA000014BDA61704700000010024029B1064A78
:101EB00092690243044B9A6104E0034A92698243A7
:101EC000014B9A617047000000100240F0B50021FC
:101ED00000BF002200250024384E7668384F06EAFD
:101EE0000702364E766806F4803502F000661EB9A9
:101EF000022606EB924204E04FF4F876C6EB9246D7
:101F0000721C1DB92F4E02FB06F30BE02B4E7668B8
:101F100006F400361EB12C4E02FB06F302E02B4EF7
:101F200002FB06F3254E766806F00C0121B1042968
:101F300005D0082908D105E0254E066007E0234EAC
:101F4000066004E0036002E0214E066000BF00BFAF
:101F50001A4E766806F0F00109091E4E745C066898
:101F6000E6404660154E766806F4E061090A194EAF
:101F7000745C4668E6408660104E766806F46051F0
:101F8000C90A144E745C4668E640C6600B4EF66A99
:101F900006F00F01104E745C4668B6FBF4F646611D
:101FA000064EF66A06F4F871090901F00F060B4FA8
:101FB00037F81640B3FBF4F60661F0BD001002409E
:101FC00000003C0800093D00808D5B00001BB7004D
:101FD00000127A00749E0108849E0108949E0108F4
:101FE00070B504460D46FFF7EFFA3520FFF75AFAB1
:101FF0002046FFF75FFA29462046FFF7B7FAFFF7BA
:10200000ABFA70BD7047000010B50020002100221F
:10201000304B1B6843F480332E4C236000BF2D4BA4
:102020001B68C3F34041521C19B94FF6FF739A4223
:10203000F5D1284B1B68C3F3404119B9264B274CF7
:10204000236010BD264B1B6823F00303244C236040
:1020500023461B6843F0040323601E4B5B681D4C42
:10206000636023465B6843F40053636023465B6808
:1020700043F4A063636023465B681A4C2340154C0D
:1020800063602346586840F4803040F40030164BBB
:102090001843234658601B6843F08073236000BFD9
:1020A0000C4B1B6803F00073002BF9D0094B5B68E5
:1020B00023F00303074C636023465B6843F002038D
:1020C000636000BF034B5B6803F00C03082BF9D17E
:1020D00000BFB6E70010024000127A00880400201A
:1020E00000200240FFFFC0F700001C0808B50121D6
:1020F0000820FFF7DBFE4FF40070ADF80000482029
:102100008DF8030003208DF8020069462148FFF78F
:10211000A3FB01210820FFF7C9FE0220ADF8000053
:1021200010208DF8030003208DF80200694619483D
:10213000FFF792FB01210420FFF7B8FE8020ADF8E5
:10214000000010208DF8030003208DF8020069467E
:102150001148FFF781FB01210420FFF7A7FE402073
:10216000ADF8000010208DF8030003208DF8020068
:1021700069460948FFF770FB02210648FFF702FC99
:1021800080210548FFF7FCFB40210348FFF7F8FBDF
:1021900008BD0000000C014000080140042807D1E0
:1021A0004FF0E021096941F004014FF0E022116194
:1021B000704710B500F002F810BD0000924800789A
:1021C000312841DC914800888F490978904A22F8EB
:1021D00011008D480078114631F810000988401A26
:1021E000002807DD88480078114631F8100009887A
:1021F000401A07E08648008883490978844A32F803
:102200001110401A0F2812DB012082490870824801
:102210000068401C804908600846006810F1100FF3
:1022200001D30020086031207749087006E0764825
:102230000078312802D10020764908707248007871
:10224000401C7149087002E000206F4908706E4818
:102250004078312841DC6D4840886B4949786F4AA5
:1022600022F8110068484078114631F810000988BA
:10227000401A002807DD64484078114631F8100004
:102280000988401A07E0654800885F494978634A31
:1022900032F81110401A0F2812DB01205D494870F6
:1022A0005D484068401C5C4948600846406810F141
:1022B000100F01D30020486031205349487006E0D8
:1022C00051484078312802D10020524948704E4888
:1022D0004078401C4C49487002E000204A49487050
:1022E00049488078312841DC4848808846498978C7
:1022F0004B4A22F8110044488078114631F810000A
:102300000988401A002807DD3F488078114631F8D7
:1023100010000988401A07E0414800883A49897846
:102320003F4A32F81110401A0F2812DB01203949B8
:10233000887039488068401C374988600846806842
:1023400010F1100F01D30020886031202E498870D1
:1023500006E02D488078312802D100202D49887070
:1023600029488078401C2849887002E000202649CE
:1023700088702548C078312841DC2448C08822492B
:10238000C978284A22F811001F48C078114631F850
:1023900010000988401A002807DD1B48C078114644
:1023A00031F810000988401A07E01E4800881649D5
:1023B000C9781C4A32F81110401A0F2812DB01208C
:1023C0001449C8701448C068401C1349C8600846C6
:1023D000C06810F1100F01D30020C86031200A49F5
:1023E000C87006E00848C078312802D100200949A9
:1023F000C8700548C078401C0349C87002E000203E
:102400000149C870704700001C02002044010020F0
:102410009C130020D90100202C150020001400205E
:1024200064140020C814002010B52448006840F44B
:102430007000224908602248006840F001002049ED
:102440000860084640681F4908401D494860084622
:1024500000681D4908401A4908600846006820F4D1
:1024600080200860084640681849084014494860C0
:102470000020C86208634FF41F0088600846C069E6
:1024800040F08050C8611248C06840F00100104917
:10249000C8600B48C06920F080500949C8610D48E8
:1024A000006840F090000B490860FFF7ADFD4FF069
:1024B000006002498039086010BD000088ED00E02E
:1024C0000010024000C0FFF8FFFFF6FEFFFF00F71C
:1024D000007000400020024010B50121054800F0C6
:1024E00038F828B10121034800F016F803F042FB48
:1024F00010BD0000000C004010B50121054800F09F
:1025000028F828B10121034800F006F806F066FD1E
:1025100010BD00000010004002698A43026170474C
:102520001AB183890B43838102E083898B438381C2
:10253000704721B1026842F00102026003E00268C4
:1025400022F0010202607047818270470146888C48
:10255000704730B50246002000230024156905EAC3
:102560000103958905EA010413B10CB1012000E0D3
:10257000002030BD0A46002101684D4B98420ED024
:102580004C4B98420BD0B0F1804F08D04A4B984248
:1025900005D04A4B984202D0494B984203D121F0D2
:1025A000700153881943474B984206D0464B9842D6
:1025B00003D021F44071D388194301609388838547
:1025C000138803853A4B984202D03A4B984201D186
:1025D000137A0386012383820168354B98420ED01B
:1025E000344B98420BD0B0F1804F08D0324B984218
:1025F00005D0324B984202D0314B984206D1537AE3
:1026000013B141F4006101E021F40061B0F1804FA9
:1026100008D0294B984205D0284B984202D0284B2D
:1026200098420DD1937A13B141F4805101E021F425
:102630008051D37A13B141F4005101E021F40051EB
:10264000B0F1804F05D01C4B984202D01B4B9842F2
:1026500006D1137B13B141F4804101E021F48041A4
:10266000134B98420BD0134B984208D0B0F1804FD7
:1026700005D0114B984202D0104B984206D1537BA3
:1026800013B141F4004101E021F4004101604168CF
:10269000B0F1804F02D0094B984206D1937B13B121
:1026A00041F4807101E021F48071416070470000C5
:1026B000002C0140003401400004004000080040AC
:1026C000000C00400010004000140040818570475D
:1026D00070B50025002440F22441484800F0F4F988
:1026E00000287DD000214648FEF780FE4448FEF7D2
:1026F00089FEC0F11400C5B2002D6FDDFF204149F5
:10270000887100BF05E04048005D3E490855601CE7
:10271000C4B2AC42F7DB3B488079A0B93948C079F4
:102720003A4908703748007A48703648407A8870CD
:102730003448807AC8700846C078DC284AD0012026
:102740003349087046E02F48807901280DD12D4883
:10275000C079304908702B48007A48702948407A7F
:1027600088702848807AC87034E0264880796C28C0
:102770000DD12448C079284908702248007A487051
:102780002048407A88701F48807AC87022E01D482F
:10279000807970280DD11B48C079204908701948EC
:1027A000007A48701748407A88701648807AC87056
:1027B00010E0144880796F280CD11248C07918496C
:1027C00008701048007A48700E48407A88700D48AA
:1027D000807AC87014210C48FDF713FD142100E025
:1027E0000BE00748FEF730FE044800880348001D50
:1027F000008801210248FEF7F9FD70BD0054014038
:102800006C04024078150020641500203802002076
:10281000600200203C020020400200204402002010
:102820003402002070B500250024002640F2244127
:10283000194800F049F968B300211848FEF7D6FDA1
:102840001648FEF7DFFDC0F1C800C5B2022D10DD4D
:1028500000BF07E01248065D3146124802F090F8CA
:10286000601CC4B2AC42F5DBC8210D48FDF7C9FCC1
:1028700003E0C8210A48FDF7C4FCC8210748FEF759
:10288000E3FD054800880448001D00880121034835
:10289000FEF7ACFD70BD000000380140580002405A
:1028A000A40E0020E45D002070B50025002440F255
:1028B0002441484800F008F900287DD0002146480E
:1028C000FEF794FD4448FEF79DFDC0F11400C5B22B
:1028D000002D6FDDFF204149887100BF05E04048B1
:1028E000005D3E490855601CC4B2AC42F7DB3B4872
:1028F0008079A0B93948C0793A4908703748007AD8
:1029000048703648407A88703448807AC8700846E3
:10291000C078DC284AD001203349087046E02F48AF
:10292000807901280DD12D48C079304908702B4895
:10293000007A48702948407A88702848807AC870A0
:1029400034E0264880796C280DD12448C079284984
:1029500008702248007A48702048407A88701F48E2
:10296000807AC87022E01D48807970280DD11B48FC
:10297000C079204908701948007A48701748407A91
:1029800088701648807AC87010E0144880796F28E3
:102990000CD11248C079184908701048007A487064
:1029A0000E48407A88700D48807AC87014210C480F
:1029B000FDF727FC142100E00BE00748FEF744FD7B
:1029C000044800880348001D008801210248FEF7E2
:1029D0000DFD70BD004400406C0002405015002009
:1029E0003C15002024020020600200202802002064
:1029F0002C020020300200202002002010B540F2FE
:102A00002551064800F060F838B1044800F0E0F8BD
:102A10000349087001200349087010BD00480040B8
:102A2000820100208301002001F40072B2F5007FD2
:102A300000D100BFCA4302807047F0B503460024AE
:102A400000260025002040F66A17B94200D100BFD9
:102A50001846C1F3421401F01F06012707FA06F5D4
:102A6000012C01D10C3004E0022C01D1103000E027
:102A700014301AB107682F43076002E00768AF43BC
:102A80000760F0BD21B1828942F40052828104E0E6
:102A900082894DF6FF731A40828170471AB1838A8A
:102AA0000B43838202E0838A8B4383827047024612
:102AB0000020B1F5007F00D100BF13880B400BB19F
:102AC000012000E00020704770B50246002400237A
:102AD0000025002040F66A16B14200D100BFC1F3C4
:102AE000421501F01F03012606FA03F3012D02D15E
:102AF0009689334006E0022D02D1168A334001E068
:102B0000968A33400C12012606FA04F416883440E3
:102B100013B10CB1012000E0002070BD2DE9F04799
:102B200086B005460F460024A24600BF00BF00261F
:102B3000B88900B100BF2E462C8A4CF6FF700440C5
:102B4000F88804432C82AC894EF6F3100440B88810
:102B500039890843798908430443AC81AC8A4FF62C
:102B6000FF400440B8890443AC826846FFF7AEF9E1
:102B70001448864205D01448864202D01348864243
:102B800002D1DDF80CA001E0DDF808A00AEBCA00D4
:102B900000EB0A1039688900B0FBF1F86420B8FB3B
:102BA000F0F004012009642101FB1089322000EBC0
:102BB0000910B0FBF1F000F00F0004432C8106B0C7
:102BC000BDE8F0870038014000500140005401404A
:102BD00001468888C0F308007047C1F3080282806C
:102BE0007047000010B592B0002401218804FFF75F
:102BF0005DF901211020FFF759F901210846FFF77F
:102C000055F91020ADF8440018208DF84700032036
:102C10008DF8460011A93D48FEF71EFE2020ADF8B4
:102C2000440048208DF8470011A93848FEF714FEEB
:102C30004FF416500D900020ADF83800ADF83A0072
:102C4000ADF83C00ADF840000C20ADF83E000DA9F9
:102C50002F48FFF763FF002240F226612C48FFF760
:102C6000ECFE002240F225512948FFF7E6FE002243
:102C700040F227712648FFF7E0FE012240F224418E
:102C80002348FFF7DAFE01212148FFF7FBFE402130
:102C90001F48FFF7C9FE4B208DF8300000208DF84B
:102CA000310004208DF8320001208DF833000CA88B
:102CB000FFF76EF801210220FFF7D8F81548FEF75C
:102CC000BBFA1348001D01901348029000200390A6
:102CD000142004900020059080200690002007908A
:102CE00008902020099000020A9000200B9001A972
:102CF0000848FEF78BFB012240210548FFF7CEFE76
:102D000001210448FEF772FB12B010BD0010014013
:102D1000005401406C0402406415002000BFFEE72F
:102D200000B58BB001210846FFF7A0F82A48FEF74E
:102D300083FA2A4800902A48019010200290C82067
:102D400003900020049080200590002006900790BA
:102D500008904FF40050099000200A9069461E48E0
:102D6000FEF754FB012202211B48FEF75BFA012209
:102D700080211A48001FFFF791FE00211648FEF738
:102D800035FB15481430FEF757FA144800901548E3
:102D9000019000200290C820039000200490802021
:102DA00005900020069007902020089000020990CE
:102DB00000200A90694608481430FEF727FB0122DC
:102DC00040210648001FFFF769FE01210248143028
:102DD000FEF70CFB0BB000BD44000240043801407C
:102DE000DC0D0020A40E002000B5B3B04621FC4845
:102DF000FDF712FA002801F0CF814621F848FDF7CF
:102E00000BFAF849086008460068F549401A401C6A
:102E100008440021079001F05FFD8DED080B9DED4A
:102E2000080B51EC100BFDF79DFB28287ED024DC0D
:102E3000A0F10A001E2881F0AD81DFE810F04D00FE
:102E40000101B901DF0235034C03AB09AB09600393
:102E50006C0375037E03A003AB031604AB09AB0937
:102E6000AB09AB09AB097D04AB09AB09AB09AB09F5
:102E7000AB09AB09A604AB09E105352800F065876D
:102E800011DCA0F129000C28D5D2DFE810F03B06B8
:102E90005606CC06D706F2068309830983098309FF
:102EA0000D07280743073E2801F015810ADC362864
:102EB00000F066873C2800F07E873D2841F06A815B
:102EC00001F0EEB83F2801F02181402801F039815E
:102ED0007028F3D101F050B94C21C148FDF79CF99D
:102EE000C04908600846006898B108460068BC49B7
:102EF000401A401C08440021079001F0EDFC8DEDC4
:102F0000080B9DED080B51EC100BFDF7A7FBB64924
:102F100008605321B248FDF77FF9B24908600846BE
:102F20000068A8B108460068AD4900E0F2E3401A25
:102F3000401C08440021079001F0CEFC8DED080BE9
:102F40009DED080B51EC100BFDF788FBA7490860BD
:102F50004321A348FDF760F9A249086008460068CC
:102F6000002863D0084600689D49401A401C084468
:102F70000021079001F0B0FC8DED080B9DED080BD2
:102F800051EC100BFDF7EEFA99490870994800785A
:102F9000052843D10846007801280AD10A2095491E
:102FA000087095A10BA801F0A3FA0BA806F038FF52
:102FB00043E08F48007802280AD115208D49087017
:102FC00096A10BA801F094FA0BA806F029FF34E0B3
:102FD0008748007803280AD120208649087098A1E4
:102FE0000BA801F085FA0BA806F01AFF25E080482F
:102FF000007804280AD12B207E49087099A10BA8DB
:1030000001F076FA0BA806F00BFF16E09EA10BA8C4
:1030100001F06EFA0BA806F003FF0EE0A3A10BA8C7
:1030200001F066FA0BA806F0FBFE06E0A6A10BA8CD
:1030300001F05EFA0BA806F0F3FE012033B000BDEC
:103040004C216748FDF7E8F86649086008460068C3
:10305000D0B1084600686249401A401C084400216B
:10306000079001F039FC8DED080B9DED080B51EC3C
:10307000100BFDF7F3FA9C490860084690ED000A32
:10308000B1EE400A80ED000A53215548FDF7C4F81F
:10309000544908600846006898B1084600685049DD
:1030A000401A401C08440021079001F015FC8DEDEA
:1030B000080B9DED080B51EC100BFDF7CFFA8B4977
:1030C000086043214648FDF7A7F8464908600846CE
:1030D0000068002863D0084600684149401A401C37
:1030E00008440021079001F0F7FB8DED080B9DEDE2
:1030F000080B51EC100BFDF735FA3D4908703D48BF
:103100000078052843D10846007801280AD10E200E
:103110003849087076A10BA801F0EAF90BA806F06F
:103120007FFE43E03248007802280AD11920314955
:10313000087078A10BA801F0DBF90BA806F070FE6F
:1031400034E02B48007803280AD12420294908704C
:1031500079A10BA801F0CCF90BA806F061FE25E0DF
:103160002348007804280AD12F20224908707BA127
:103170000BA801F0BDF90BA806F052FE16E080A1E5
:103180000BA801F0B5F90BA806F04AFE0EE085A1E8
:103190000BA801F0ADF90BA806F042FE06E088A1ED
:1031A0000BA801F0A5F90BA806F03AFE012045E7AF
:1031B0008B48C0788A498978CDE9001088484078E2
:1031C0000A90874800780990024686A10BA80A9BBE
:1031D00001F08EF90BA806F023FE01202EE7000077
:1031E0001C0D0020CC000020E4000020EC0000209A
:1031F000F0000020B0010020463130206F6B2E20FF
:10320000464653206368616E6E656C2031206665AA
:103210006564696E672E200D0A000000463130207B
:103220006F6B2E20464653206368616E6E656C207E
:10323000322066656564696E672E200D0A00000005
:10324000463130206F6B2E20464653206368616EF6
:103250006E656C20332066656564696E672E200D8F
:103260000A000000463130206F6B2E204646532066
:103270006368616E6E656C20342066656564696E96
:10328000672E200D0A000000463130206F6B2E2083
:10329000464653206368616E6E656C206E6F7420C5
:1032A00065786973742E200D0A00000046313020C5
:1032B0006F6B2E20464653206E6F742072656164DA
:1032C000792E200D0A000000463130206F6B2E2031
:1032D0004E6F206368616E6E656C2073656C65630C
:1032E0007465642E200D0A00E0000020E800002034
:1032F000463131206F6B2E20464653206368616E45
:103300006E656C20312065786974696E672E200DBA
:103310000A000000463131206F6B2E2046465320B4
:103320006368616E6E656C20322065786974696EC1
:10333000672E200D0A000000463131206F6B2E20D1
:10334000464653206368616E6E656C203320657855
:103350006974696E672E200D0A0000004631312025
:103360006F6B2E20464653206368616E6E656C203D
:10337000342065786974696E672E200D0A0000009C
:10338000463131206F6B2E20464653206368616EB4
:103390006E656C206E6F742065786973742E200DD5
:1033A0000A000000463131206F6B2E204646532024
:1033B0006E6F742072656164792E200D0A00000022
:1033C000463131206F6B2E204E6F206368616E6E28
:1033D000656C2073656C65637465642E200D0A004E
:1033E000BF010020463132206F6B2E20256420253E
:1033F000642025642025640A200D00000021F74880
:1034000006F0F2FB0021F64806F0EEFBF548C07826
:10341000C000F449897840EA8100F249497840EADD
:103420004100F04909780843EF490870EF48C07837
:10343000C000EE49897840EA8100EC49497840EAC9
:103440004100EA4909780843E9490870E948C07829
:10345000E8498978E74A5278E64B1B78CDE907328C
:10346000CDE90910E448C078E3498978E24A527806
:10347000E14B1B78CDE90332CDE90510DC4800783B
:10348000DE490978DE4A1278CDE900210290D6485B
:103490000378DC480278DC490BA801F029F80BA876
:1034A00006F0BEFC0120C9E5D048C078CF49897834
:1034B000CDE90010CD4840780A90CC4800780990BA
:1034C0000246D2A10BA80A9B01F012F80BA806F045
:1034D000A7FC0120B2E52021D448FEF753FA402191
:1034E000D248FEF74DFA0520C6490870D0A10BA8B6
:1034F00000F0FEFF0BA806F093FC01209EE50120E2
:10350000C0490870CDA10BA800F0F2FF0BA806F08F
:1035100087FC012092E5CCA10BA800F0E9FF0BA8E5
:1035200006F07EFC012089E5D1A10BA800F0E0FFA8
:103530000BA806F075FC012080E5D048C188808882
:10354000CE4A5288CD4B1B88CDE90232CDE9040129
:10355000CB48C088CA498988CDE90010C84840884E
:103560000A90C748008809900246C6A10BA80A9B8A
:1035700000F0BEFF0BA806F053FC01205EE59F485B
:103580000278CEA10BA800F0B3FF0BA806F048FC10
:10359000012053E54321D248FCF73EFED1490860A3
:1035A00008460068002857D008460068CC49401AF1
:1035B000401C08440021079001F08EF98DED080BA6
:1035C0009DED080B51EC100BFCF7CCFF8C490870FB
:1035D0000846007801280AD18848007800F0FE00EB
:1035E00086490870C0A10BA800F082FF30E0844833
:1035F000007802280AD18148007800F0FD007F4958
:103600000870BEA10BA800F073FF21E07C48007891
:1036100003280AD17948007800F0FB007749087048
:10362000BBA10BA800F064FF12E0754800780428E5
:103630000AD17248007800F0F70070490870B9A10B
:103640000BA800F055FF03E0BBA10BA800F050FF52
:103650000BA806F0E5FB06E0B7A10BA800F048FFB9
:103660000BA806F0DDFB0120E8E443219C48FCF7B1
:10367000D3FD9C49086008460068002853D00846DE
:1036800000689749401A401C08440021079001F047
:1036900023F98DED080B9DED080B51EC100BFCF799
:1036A00061FF5749087008460078012808D1A749EA
:1036B000087054490870A6A10BA800F019FF2EE06D
:1036C0004F480078022809D1A049087001204D49CF
:1036D0000870A4A10BA800F00BFF20E04848007878
:1036E000032809D199490870012046490870A2A110
:1036F0000BA800F0FDFE12E04148007804280AD132
:103700009249087001203F490870A0A10BA800F061
:10371000EFFE04E0DFE1A2A10BA800F0E9FE0BA898
:1037200006F07EFB06E0A7A10BA800F0E1FE0BA8C7
:1037300006F076FB012081E444216948FCF76CFD2A
:103740006849086008460068B0B1084600686449E6
:10375000401A401C08440021079001F0BDF88DED8F
:10376000080B9DED080B51EC100BFCF7FBFE9D497F
:1037700008608020234908709BA10BA800F0B8FEC8
:103780000BA806F04DFB012058E44FF0FF3199489B
:10379000FEF726FC01200A900A9880F3138800BFE8
:1037A00000BF00BF00BF00BF00BFBFF34F8F00BF0F
:1037B00000BF00BF9048006800F4E0608F490843F4
:1037C000001D8D49086000BF00BF00BFBFF34F8FD1
:1037D00000BF00BF00BF00BF00BFFDE700440040C6
:1037E00000540140BF010020D9000020D901002071
:1037F000DA0000203802002024020020D00100203E
:10380000F0000020B00100203C9F01084631342028
:103810006F6B2E207374616C6C3A202564202564D4
:10382000202564202564200D0A000000000C0140C2
:10383000463135206F6B2E200D0A000046313820AE
:103840006F6B200D0A000000463139206F6B2E206F
:10385000666F757220636F6C6F722E20766572735F
:10386000696F6E3A20332E302E36200D0A0000008C
:10387000463230206F6B2E200D0A000044010020DC
:1038800034010020463231206F6B2E200D0A207348
:10389000696C6B3A2025642025642025642025640A
:1038A000200D0A207374616C6C3A20256420256415
:1038B000202564202564200D0A00000046323220B5
:1038C0006F6B2E206666735F6368616E6E656C73E6
:1038D0005F696E736572743A202564200D0A0000DA
:1038E0001C0D0020CC000020463233206F6B2E20B0
:1038F0006368616E20312E200D0A000046323320AD
:103900006F6B2E206368616E20322E200D0A00003E
:10391000463233206F6B2E206368616E20332E2079
:103920000D0A0000463233206F6B2E206368616EF3
:1039300020342E200D0A0000463233206F6B2E20DB
:103940006E6F206368616E2E200D0A001B0200203E
:10395000463234206F6B2E206368616E20312E203A
:103960000D0A0000463234206F6B2E206368616EB2
:1039700020322E200D0A0000463234206F6B2E209C
:103980006368616E20332E200D0A00004632342019
:103990006F6B2E206368616E20342E200D0A0000AC
:1039A000463234206F6B2E20464653206368616E8A
:1039B0006E656C206E6F742065786973742E200DAF
:1039C0000A000000463234206F6B2E204E6F2063B9
:1039D00068616E6E656C2073656C65637465642EDA
:1039E000200D0A00DC000020463330206F6B2E20B3
:1039F0000D0A000000D000080CED00E00000FA0500
:103A00004321F648FCF708FCF549086008460068C1
:103A1000002857D008460068F049401A401C084466
:103A20000021079000F058FF8DED080B9DED080B6D
:103A300051EC100BFCF796FDEA4908700846007837
:103A400001280AD10C20E8490870E8A10BA800F071
:103A50004FFD0BA806F0E4F93BE0E24800780228AD
:103A60000AD11720E0490870E9A10BA800F040FD39
:103A70000BA806F0D5F92CE0DA48007803280AD123
:103A80002220D9490870EBA10BA800F031FD0BA84A
:103A900006F0C6F91DE0D348007804280AD12D208D
:103AA000D1490870ECA10BA800F022FD0BA806F08C
:103AB000B7F90EE0F1A10BA800F01AFD0BA806F073
:103AC000AFF906E0F6A10BA800F012FD0BA806F076
:103AD000A7F90120E7E4FA48C068F9498968CDE907
:103AE0000010F74840680A90F548006809900246BF
:103AF000F4A10BA80A9B00F0FBFC0BA806F090F9C0
:103B00000120D0E40021FC4806F06EF8FB48C078A4
:103B1000FA498978CDE90010F84840780A90F748CA
:103B2000007809900246F6A10BA80A9B00F0E0FC81
:103B30000BA806F075F90120B5E45421A748FCF75D
:103B40006BFBA74908600846006898B10846006802
:103B5000A249401A401C08440021079000F0BCFE16
:103B60008DED080B9DED080B51EC100BFCF7FAFCEA
:103B7000EC49087049219948FCF74EFB98490860C8
:103B80000846006888B3084600689449401A401CFB
:103B900008440021079000F09FFE8DED080B9DED7D
:103BA000080B51EC100BFCF7DDFCDF4908700846F0
:103BB0000078002802DC0020087006E0DA4800786F
:103BC0001F2802DB1F20D8490870D648007801283A
:103BD0000CD1D54800784FF4202141EA002002465C
:103BE00010210A90C44806F082F80FE0CD48007812
:103BF00002280BD1CC4800784FF4202141EA002064
:103C0000024610210A90C94806F071F8C6480378A8
:103C1000C4480278C6A10BA800F06AFC0BA806F005
:103C2000FFF801203FE4B448FDF7CEFFBF48FDF7A1
:103C3000CBFFCCA006F0F4F8012034E46F21AE48AD
:103C400005F0D2FFCA48C078C9498978CDE900108B
:103C5000C74840780A90C648007809900246C5A136
:103C60000BA80A9B00F044FC0BA806F0D9F8012031
:103C700019E40121A04805F0B7FFC848C078C7493A
:103C80008978CDE90010C54840780A90C34800788B
:103C900009900246C2A10BA80A9B00F029FC0BA8C0
:103CA00006F0BEF8012015E40021934805F09CFFC2
:103CB0009248C07891498978CDE900108F484078C2
:103CC0000A908E48007809900246BEA10BA80A9B74
:103CD00000F00EFC0BA806F0A3F801200EE4012171
:103CE000854805F081FFAD48C078AC498978CDE9B9
:103CF0000010AA4840780A90A84800780990024627
:103D0000B9A10BA80A9B00F0F3FB0BA806F088F8FA
:103D1000012008E46C21784805F066FFBB48C078B4
:103D2000BA498978CDE90010B84840780A90B74878
:103D3000007809900246B6A10BA80A9B00F0D8FBB8
:103D40000BA806F06DF8012018E46F216A4805F011
:103D50004BFF8748C07886498978CDE900108448B0
:103D600040780A908248007809900246B2A10BA8D8
:103D70000A9B00F0BDFB0BA806F052F8012008E4F6
:103D800070215D4805F030FFB548C078B4498978A6
:103D9000CDE90010B24840780A90B1480078099007
:103DA0000246B0A10BA80A9B00F0A2FB0BA806F0EC
:103DB00037F8012058E400215C4805F015FFB248AF
:103DC000C078B1498978CDE90010AF4840780A90B1
:103DD000AD4800780990024658E100001C0D002013
:103DE000CC000020F0000020B00100204633392034
:103DF0006F6B2E20464653206368616E6E656C20A3
:103E0000312072656C656173652E200D0A0000001B
:103E1000463339206F6B2E20464653206368616E0F
:103E20006E656C20322072656C656173652E200DA5
:103E30000A000000463339206F6B2E20464653207F
:103E40006368616E6E656C20332072656C656173AA
:103E5000652E200D0A000000463339206F6B2E209E
:103E6000464653206368616E6E656C20342072652F
:103E70006C656173652E200D0A0000004633392001
:103E80006F6B2E20464653206368616E6E656C2012
:103E90006E6F742065786973742E200D0A0000001F
:103EA000463339206F6B2E204E6F206368616E6E33
:103EB000656C2073656C65637465642E200D0A0063
:103EC0002C150020463430206F6B2E7374616C6C9F
:103ED00020636F756E743A2043313A202564204385
:103EE000323A2025642043333A2025642043343A73
:103EF000202564200D0A0000004400402402002018
:103F0000463431206F6B2E47434F4E463A202530C2
:103F10003278253032782530327825303278200DCD
:103F20000A000000F1000020F200002000540140CF
:103F3000463432206F6B2E737465707065725F6DDE
:103F40006F746F723A2025642073746570706572A7
:103F50005F6D6F746F725F6972756E3A20256420B1
:103F60000D0A0000463433206F6B2E200D0A00002E
:103F700020020020463434206F6B2E4452565F538B
:103F800054415455533A2025303278253032782523
:103F900030327825303278200D0A000028020020C7
:103FA000463435206F6B2E47535441543A20253008
:103FB0003278253032782530327825303278200D2D
:103FC0000A000000463530206F6B2E47434F4E46A7
:103FD0003A20253032782530327825303278253035
:103FE0003278200D0A000000463531206F6B2E47D5
:103FF000535441543A2025303278253032782530D8
:10400000327825303278200D0A0000002C02002082
:10401000463532206F6B2E43484F50434F4E463A41
:1040200020253032782530327825303278253032EC
:1040300078200D0A00000000463533206F6B2E44B7
:1040400052565F5354415455533A20253032782507
:104050003032782530327825303278200D0A000051
:1040600030020020463534206F6B2E50574D434FA1
:104070004E463A2025303278253032782530327855
:1040800025303278200D0A003802002043A10BA809
:104090000A9B00F02DFA0BA805F0C2FE012019E5DD
:1040A0000121474805F0A0FD4648C0784549897878
:1040B000CDE90010434840780A90424800780990C2
:1040C000024641A10BA80A9B00F012FA0BA805F0CA
:1040D000A7FE0120FEE46C21394805F085FD434828
:1040E000C07842498978CDE90010404840780A906C
:1040F0003E480078099002463DA10BA80A9B00F0BB
:10410000F7F90BA805F08CFE0120E3E46F212C48A1
:1041100005F06AFD4048C0783F498978CDE9001034
:104120003D4840780A903C480078099002463BA1FF
:104130000BA80A9B00F0DCF90BA805F071FE01202A
:10414000C8E470211E4805F04FFD3E48C0783D4947
:104150008978CDE900103B4840780A9039480078CA
:104160000990024638A10BA80A9B00F0C1F90BA8E0
:1041700005F056FE0120ADE401F0BEFD05203B49EF
:1041800008703BA10BA800F0B3F90BA805F048FE9E
:1041900001209FE401209DE401209BE4463630206D
:1041A0006F6B2E47434F4E463A20253032782530EC
:1041B00032782530327825303278200D0A00000020
:1041C000005401403C020020463631206F6B2E47E0
:1041D000535441543A2025303278253032782530F6
:1041E000327825303278200D0A000000400200208D
:1041F000463632206F6B2E43484F50434F4E463A5F
:10420000202530327825303278253032782530320A
:1042100078200D0A000000003402002046363320CA
:104220006F6B2E4452565F5354415455533A2025D8
:104230003032782530327825303278253032782087
:104240000D0A000044020020463634206F6B2E50C9
:10425000574D434F4E463A2025303278253032783C
:104260002530327825303278200D0A00B001002048
:1042700046313132206F6B2E200D0A0010B500F050
:1042800003F8FEF74DFD10BD00B587B0012188038E
:10429000FDF70CFE01210420FDF708FE012104209A
:1042A000FDF704FE4FF48060ADF8180003208DF890
:1042B0001A0048208DF81B0006A93D48FDF7CCFAEE
:1042C0004FF40070ADF8180003208DF81A00182084
:1042D0008DF81B0006A93648FDF7BEFA012104201F
:1042E000FDF7E4FD4FF40060ADF8180003208DF8F1
:1042F0001A0010208DF81B0006A92D48FDF7ACFA16
:104300004FF400612A48FDF73BFB4FF4E130029087
:104310000020ADF80C00ADF80E00ADF81000ADF8BF
:1043200014000C20ADF8120002A92248FEF7F6FB9B
:10433000002240F226611F48FEF77FFB002240F278
:1043400025511C48FEF779FB002240F227711948DD
:10435000FEF773FB012240F224411648FEF76DFB85
:1043600001211448FEF78EFB40211248FEF75CFB4A
:1043700025208DF8040000208DF8050001208DF81F
:1043800006008DF8070001A8FDF702FD0E208DF84C
:10439000040000208DF8050002208DF806000120A1
:1043A0008DF8070001A8FDF7F3FC07B000BD000081
:1043B000000801400038014010B592B000240121EE
:1043C0004804FDF763FD01210420FDF76FFD012185
:1043D0000846FDF76BFD0420ADF8440018208DF869
:1043E000470003208DF8460011A93D48FDF734FA37
:1043F0000820ADF8440048208DF8470011A938483E
:10440000FDF72AFA4FF416500D900020ADF8380051
:10441000ADF83A00ADF83C00ADF840000C20ADF826
:104420003E000DA92F48FEF779FB002240F22661DD
:104430002C48FEF702FB002240F225512948FEF7E6
:10444000FCFA002240F227712648FEF7F6FA012214
:1044500040F224412348FEF7F0FA01212148FEF7FB
:1044600011FB40211F48FEF7DFFA26208DF83000AF
:1044700000208DF8310003208DF8320001208DF8E6
:1044800033000CA8FDF784FC01210846FDF7EEFC83
:104490001548FCF7D1FE1348001D01901348029007
:1044A00000200390142004900020059080200690A6
:1044B0000020079008902020099000020A90002018
:1044C0000B9001A90848FCF7A1FF012240210548F3
:1044D000FEF7E4FA01210448FCF788FF12B010BD92
:1044E00000080140004400406C0002403C150020E0
:1044F0000FB4084B10B504A902AA039800F01EFBE4
:10450000044602A9002000F0B0FE204610BC5DF871
:1045100014FB00006B5201082DE9F0412DED020B58
:104520009FED3D0B2DED028B9FED3D8BDDE90254A0
:10453000C4F30A50A0F2FF36142E37DA002E18DA30
:1045400053EC102B9DED020B51EC100BFBF775FE9D
:1045500053EC182BFCF76AF857D2002CBCBF4FF075
:104560000044002551DB54EA050018BF2E4C1BD136
:104570004BE02E4820FA06F704EA070028431FD034
:1045800053EC102B9DED020B51EC100BFBF755FE7D
:1045900053EC182BFCF74AF837D2002C03DD4FF40C
:1045A0008010F0400444BC4300252EE0332E07DC8D
:1045B000A6F114004FF0FF3121FA00F73D4206D179
:1045C0009DED020BBDEC028B02B0BDE8F08153EC17
:1045D000102B9DED020B51EC100BFBF7D2FE53ECB0
:1045E000182BFCF723F810D2002C0DDD142E08BF79
:1045F000641C09D0C6F13400012101FA00F02844FE
:10460000A84238BF641C0546BD43CDE902549DED68
:10461000020BD7E7000000009C7500883CE4377E61
:1046200000000000000000000000F03FFFFF0F004E
:1046300010EE100AC0F3C7517F391729A8BF704781
:10464000DFED140A002970EE200A0CDAF5EEC00A3C
:10465000F1EE10FA1ADD0028C8BF4FF07E50B8BF47
:104660004FF0004012E00C4A22FA01F2104208BF5B
:104670007047F5EEC00AF1EE10FA07DD002804DD00
:104680004FF4000323FA01F10844904300EE100AAE
:1046900070470000CAF24971FFFF7F002DED020B49
:1046A000019820F0004001909DED000B02B0704792
:1046B00010EE100AC0F3C7517F391729A8BF704701
:1046C000DFED140A002970EE200A0DDAF5EEC00ABB
:1046D000F1EE10FA1ADD0028A8BF002016DAB0F1BA
:1046E000004F18BF0C4811E00C4ACA40104208BFE6
:1046F0007047F5EEC00AF1EE10FA07DD002804DA83
:104700004FF4000323FA01F10844904300EE100A2D
:1047100070470000CAF24971000080BFFFFF7F00B0
:1047200010B52DED020B2DED088B9DED080B51EC16
:10473000100BFCF769F941EC180B9DED080B53ECDD
:10474000182B51EC100BFBF719FE41EC190B0998D3
:104750009FED2D0B10F0004F53EC102B51EC190B6B
:104760009FED25AB9FED26BB0DD0FBF747FF0DD985
:1047700053EC1B2B51EC190BFBF758FF1BD213E02A
:1047800041EC180B17E0FBF739FF06D253EC1A2B5C
:1047900051EC180BFBF7F2FDF2E753EC1B2B51EC3D
:1047A000190BFBF743FF06D853EC1A2B51EC180BEF
:1047B000FBF743FDE4E79FED160B51EC180B53ECB0
:1047C000102BFBF733FF08D351EC180B9FED120BA6
:1047D00053EC102BFBF712FF02D2012000F0A8F8D7
:1047E00051EC180BBDEC088B02B0BDE81040FCF793
:1047F00067B9000000000000000000000000F03F6A
:10480000000000000000E03F000000000000E0BFEA
:104810000000C0FFFFFFDF41000000000000E0C11A
:1048200000B52DED048BB0EE409AF0EE609A83B0A7
:1048300051EC190BFCF796F841EC180B18EE100A26
:1048400018EE901A8DED008B002818BF0120084348
:1048500020F00040C0F17F6000F1E040C00F14D0B4
:1048600019EE101A19EE900A8DED009B002918BF61
:104870000121084320F00040C0F17F6000F1E040DA
:10488000C00F04BF012000F053F8B0EE480A03B097
:10489000F0EE680ABDEC048B00BD10B52DED028B67
:1048A000B1EEC08A18EE100A20F00040C0F1FF40BF
:1048B000C00F0AD010EE100A20F00040C0F1FF40F7
:1048C000C00F04BF012000F033F8B0EE480ABDEC81
:1048D000028B10BD0000000000B583B09FED060BF9
:1048E0000A4601468DED000B6846FBF774FF9DED0F
:1048F000000B03B000BD000000000000000000003D
:1049000002E008C8121F08C1002AFAD17047704798
:10491000002001E001C1121F002AFBD1704780F383
:104920001088704780F31088704780F310887047B4
:1049300001490860704700008C0400200146888906
:104940000A6810444A68801A8A8990FBF2F302FBD5
:104950001300704730B5024610685468A04201D178
:10496000002030BD5068401C948990FBF4F504FB96
:104970001503D2E90140005D087053600120F0E7A3
:1049800030B502461068401C948990FBF4F504FB96
:1049900015035068984201D1002030BD146890681A
:1049A000015513600120F8E72DE9FF5F82B0002177
:1049B000DDE90430020DDDF840B0034318D044F6C1
:1049C0001050A2F2FF3242431514119801281FD053
:1049D000A5EB0B00401C5FEA000A4FF000064E4FAB
:1049E000DFF83891B046504615D5CAF1000413E0FF
:1049F000119801244AA3012801D16FEA0B01029802
:104A0000119AC0E90031C0E9024206B0BDE8F09F4A
:104A1000CBF10000DFE704460021404A491842EB91
:104A20000450CDE9001012E0E00707D032463B46C3
:104A300040464946FBF7A8FC8046894632463B463D
:104A400010461946FBF7A0FC06460F466410002CE2
:104A5000EAD1DDE90401DDE90023BAF1000F06DA4D
:104A6000FBF792FC42464B46FBF78EFC05E0FBF75A
:104A7000FDFC42464B46FBF7F9FC04460E4600227D
:104A8000284BFBF7D3FD03D84FF0FF30014607E07A
:104A90000022254B20463146FBF7CFFBFBF7F8FF02
:104AA000102409E0002C0ADB0A220023FBF708FE91
:104AB000039B30321A55641E50EA0102F2D1641C85
:104AC000039AC4F111031444119A012A03D001225C
:104AD00008430DD10AE0084304D000204FF0110B29
:104AE000119072E7A3EB0B056D1E0DE05B4504DD35
:104AF0004FF0000205F1010504E003DA4FF0000277
:104B0000A5F10105002AECD002981199C0E9023103
:104B1000C0E9004579E70000000014400000F03FC4
:104B2000300000000000F0430000E03F30380A2869
:104B300001D2012070470020704700002DE9FF4F8F
:104B400095B09B468946064600250FE2252877D179
:104B500000242746F84A0121059400E0044316F892
:104B6000013F203B01FA03F01042F7D130782A28A8
:104B700011D06FF02F033078A0F13002092A16D837
:104B8000059A44F0020402EB820203EB4202104455
:104B9000761C0590EFE759F8042B0592002A03DAFA
:104BA000504244F40054059044F00204761C3078DE
:104BB0002E2816D116F8010F44F004042A280DD02F
:104BC0006FF02F023078A0F13003092B09D807EBE2
:104BD000870302EB4303C718761CF3E759F8047BFD
:104BE000761C30786C280FD006DC4C2817D068284B
:104BF0000DD06A2814D104E0742810D07A280FD17F
:104C00000DE044F400140AE044F4801401E044F49C
:104C100040147278824202D104F58014761C761C0E
:104C2000307866280BD013DC582877D009DC0028B0
:104C300075D04528F6D04628F4D047281AD19DE1F2
:104C400018E0632835D0642879D0652812D195E121
:104C5000702873D008DC6728F1D069286FD06E28DF
:104C60000DD06F2806D1B5E073282CD0752875D0EB
:104C7000782874D05A46179990476D1C75E1C4F393
:104C80000250022809D003280DD0D9F800100428BA
:104C90000DD00D6009F1040967E1D9F80010EA1799
:104CA000C1E90052F6E7D9F800100D80F2E70D7067
:104CB000F0E719F8041B8DF8001000208DF80100B2
:104CC000EA46012003E059F804AB4FF0FF306107DA
:104CD0004FF0000102D40DE008F101018846B9420D
:104CE0000FDA8045F8DB1AF808100029F4D108E043
:104CF00008F1010188468142FADB1AF80810002900
:104D0000F6D105985B46A0EB080721463846179A6E
:104D100000F094FA284400EB080507E04DE029E193
:104D20000DE01AF8010B5A4617999047B8F101089F
:104D3000F7D25B4621463846179A13E142E00A2231
:104D40000092C4F302524FF0000A022A08D059F828
:104D500004CB032A4FEAEC710AD00DE029E02AE0E7
:104D600009F1070121F00702F2E802C1914609E0CA
:104D70000FFA8CFC4FEAEC71042A03D14FFA8CFC39
:104D80004FEAEC71002907DA0A460021DCF1000C39
:104D900061EB02012D2202E0220504D52B228DF8C1
:104DA0000420012203E0E20701D02022F7E7904629
:104DB00059E00A2102E010220DE010214FF0000A14
:104DC00000910BE010224FF0000A44F00404082781
:104DD000009203E008224FF0000A0092C4F302524E
:104DE000022A05D059F804CB0021032A08D009E093
:104DF00009F1070121F00702F2E802C1914605E03E
:104E00001FFA8CFC042A01D10CF0FF0C4FF00008B3
:104E1000220728D5702806D0009B83F0100353EAA0
:104E20000A0305D00EE040228DF80420012208E09C
:104E30005CEA010206D030228DF804208DF80500CE
:104E400002229046009B83F0080353EA0A030AD12A
:104E50005CEA010201D1620705D530228DF80420F9
:104E60004FF001087F1E582804D034A003900EA8EC
:104E700002900DE036A0F9E753466046009AFBF732
:104E80001FFC84460398825C0298401E02900270C8
:104E90005CEA0100F0D1029806A9081A00F1200A84
:104EA000600702D524F4803400E00127574502DD75
:104EB000A7EB0A0000E0002000EB0A010090059833
:104EC0004144401A0590E00306D45B462146179AF8
:104ED000059800F0B3F90544002706E001A85A46FA
:104EE000C05D179990476D1C7F1C4745F6DBE003BA
:104EF0000CD55B462146179A059800F09FF90544AA
:104F000004E030205A46179990476D1C0099481EBE
:104F100000900029F5DC08E0029802995A460078D2
:104F2000491C0291179990476D1CBAF10001AAF132
:104F3000010AF1DC65E1000009280100303132335B
:104F400034353637383961626364656600000000C5
:104F500030313233343536373839414243444546AF
:104F60000000000000F058F90544761C3078002855
:104F70007FF4ECAD19B02846BDE8F08F620700D48D
:104F8000062709F1070222F0070CFCE80223E1469C
:104F900003F000485FEA080C02D00FF2702C0DE01D
:104FA0005FEA045C02D50FF2682C07E05FEAC47C7C
:104FB00002D00FF2602C01E0AFF2700C4FF0FF381E
:104FC00023F00043CDF850C065280CD006DC4528FE
:104FD00009D046281DD047283DD13DE0662818D08D
:104FE00067287ED138E00021112F01DB112000E07D
:104FF000781CCDE9000106A90EA8FFF7D5FCDDE974
:105000000F010E9A03910021009207F1010A049109
:105010004DE04FF000400097CDE9011006A90EA821
:10502000FFF7C2FCDDE90F0203920E9B11990022EB
:10503000DDF80CA00093049211B9791C00EB010A71
:10504000B7EB0A0004D4C0F1FF3007F1010A049065
:10505000AAEB0700019044E0012F00DA01270021AC
:10506000112F01DD112000E03846CDE9000106A92D
:105070000EA8FFF799FCDDE90F010E9A03910021BC
:1050800004910092BA4621070CD40399514500DAE5
:105090008A46BAF1010F05DD009AAAF10101515CBF
:1050A000302908D0B84202DA10F1040F06DA0121E3
:1050B000CDE9011015E0AAF10101E9E7002805DCBE
:1050C000049901440491AAEB000102E0411C5145FE
:1050D00000DD8A460499401A401C01904FF00040C0
:1050E0000290200704D40198504501DBCDF80480DC
:1050F00000208DF84F0002980DF14F07B0F1004FDE
:1051000025D02B200E9002984FF0020800280CDAD0
:10511000404202902D200E9007E00A210298FBF7F2
:10512000B9FA3031029007F8011DB8F10001A8F179
:105130000108F2DC02980028EFD1791E0E98087061
:10514000307800F0200040F0450007F8020D12A86A
:10515000C01B00F107081498007800B1012000EB93
:105160000A01019801EBE07105984144401A401E84
:105170000590E00306D45B462146179A059800F097
:105180005DF805441498007818B15A46179990476D
:105190006D1CE00324D55B462146179A059800F064
:1051A0004DF805441CE00498002807DBDDE9030105
:1051B000884203DD0098405C179901E01799302080
:1051C0005A469047049805F10105401C0490019847
:1051D000401E019004D12E205A46179990476D1C0D
:1051E000BAF10001AAF1010ADDDC05E017F8010BB4
:1051F0005A46179990476D1CB8F10001A8F10108B3
:10520000F4DC5B462146179A0598ABE62D000000BA
:105210002B000000200000002DE9F041044600258D
:105220001E461746880404D405E039462020B047BE
:105230006D1C641EF9D52846BDE8F0812DE9F041CA
:10524000044600251E469046C80301D5302700E0DD
:105250002027880404D505E041463846B0476D1C38
:10526000641EF9D52846BDE8F0810A68531C0B601E
:105270001070704738B54FF4FA650020F94908708E
:10528000F948006800280ED0F74800688069F7499F
:105290000968884208D80020F349086001F028FF17
:1052A0000120F0490870BBE0EF480068006BEF494F
:1052B0000968884249D3EC480068816BEC48006873
:1052C000FCF738FDE8490968C96E0844E9490860F7
:1052D00000BFE5480068406E0968884204D2E24891
:1052E0000068406EE349086000BFE2480068E24998
:1052F0000968884203D9DF480068DF490860DD4952
:10530000098888B200F0BEFA0546D94800682844EA
:10531000D7490860D948007878B1D9480078002882
:105320007ED0D1480068B0F84000D649096888426C
:1053300076D00020D449086072E0D1480078002877
:105340006ED00020D04908606AE0C7480068406B12
:10535000C649096888424CD2C3480068816BCB4873
:105360000068FCF7E7FC0446C248006884420CD29F
:10537000C0480068041B00BFBB480068006FA04223
:1053800002D9B9480068046F02E0B7480068046FAA
:10539000A0B200F077FA0546BC4800682844BB4933
:1053A0000860B6480078E8B1AF480068406BAF4984
:1053B000096888420AD2B2480078C8B1AA48006891
:1053C000B0F84000AF490968884211D000BF002002
:1053D000AD49086000BFA4480068B0F84000A94982
:1053E000086005E0A648007810B10020A6490860D2
:1053F00016E0A348007868B19B480068B0F8400008
:10540000A0490968884205D000BF00209E49086075
:1054100000BF00BF9E4805889E4800789E490870DE
:105420009148006800287DD101F07AFE8E4908601D
:1054300008460068002876D017E000208A490860F6
:1054400001F056FE01F06CFE8749086008460068CE
:1054500058B99248008830B99048408818B99048A7
:10546000007803F05BF9284638BD7F480068007873
:1054700000F020000028E0D17B480068C1697A482C
:105480000068006A08448749086077480068C16975
:1054900075480068006A081A8249486072480068C6
:1054A000406A886070480068806AC8606E4800681A
:1054B000C06A08616C48006890F83E007A4908703C
:1054C0006948006890F83F006C4908700846007809
:1054D000B8B165480068B0F8440074490880624873
:1054E0000068B0F842007249088000BF0020664999
:1054F000086000BF5C480068B0F84000614908607F
:1055000003E04FF0FF305F49086000205F4908600A
:105510005749086054490968B1F8641088B200F02E
:10552000B1F901E0F5E0E8E0594908805A4800780F
:10553000584908704C480068C06E4E4908604A4996
:105540000968B1F86C1088B200F09CF9054646482D
:10555000006890F83C00574908704348006890F88C
:105560007C404E48008810B95348007808B144F098
:1055700008044A48408810B94F48407808B144F0C0
:105580001004204603F0CAF83748006840680090CD
:105590004848007800F001033348006882693248C7
:1055A000006890F87B0008B9012000E00020014667
:1055B000002003F005F92C480068806800902A4814
:1055C000006882692848006890F87B00012800D1B3
:1055D00000E00020014637480078C0F34003012076
:1055E00003F0EEF820480068C06800901E4800688C
:1055F00082691D48006890F87B00022801D10120D3
:1056000000E0002001462B480078C0F38003022010
:1056100003F0D6F81448006800690090124800684A
:1056200082691148006890F87B00032801D10120AD
:1056300000E0002001461F480078C0F3C0030320AB
:1056400003F0BEF80848006840690090064800680A
:1056500082690548006890F87B0004282ED101205B
:105660002DE00000DE0200206402002094020020F1
:1056700098020020A0020020D8020020C6020020CC
:10568000C4020020B8020020B40200209C020020C6
:10569000AA020020A9020020A80200203204002053
:1056A00036040020945D0020AF020020C0020020DC
:1056B000C202002090020020610400200020014668
:1056C00015480078C0F30013042003F079F813485C
:1056D000006880694042124908601048006800690B
:1056E0004000104908600D480068806940000E497C
:1056F000086000200D4908600BE00D48008830B9B3
:105700000B48408818B90B48007803F007F8284682
:10571000AAE62846A8E600009002002064020020C5
:10572000C8020020CC020020D002002094020020F9
:1057300032040020360400201FB5FCF709FB0121CC
:105740000820FCF7A3FB294800682949B0FBF1F0C9
:10575000401E84B240F2CF70ADF80400ADF80040B6
:105760000020ADF80600ADF8020069462148FCF7BC
:1057700001FF012211461F48FCF7D2FE01211D48FE
:10578000FCF7D7FE1B48006840F00100194908608B
:1057900001211020FCF77AFB144800681649B0FB81
:1057A000F1F0401E84B29B20ADF80400ADF800403B
:1057B0000020ADF80600ADF8020069460F48FCF77E
:1057C000D9FE012211460D48FCF7AAFE01210B4823
:1057D000FCF7AFFE0948006840F001000749086087
:1057E000FCF7A2FA0120064908701FBD88040020BA
:1057F00000093D00000C004080841E0000100040A5
:10580000B001002070B5002408E00020194941F8DB
:10581000340001EBC4010871601CC4B2042CF4DB39
:105820000420FCF7BBFC144800683222B0FBF2F104
:10583000481EB0F1807F00D31BE0481E4FF0E022ED
:10584000506150170F22002804DB13071D0E0B4B6D
:105850001D5406E013071E0E094B00F00F052D1F07
:105860005E5500BF00204FF0E022906107201061DC
:1058700000BF70BD7C1300208804002000E400E01D
:1058800018ED00E001460120034A10700348B0FB08
:10589000F1F080B270470000A802002080841E0052
:1058A0002DE9F0472DED088B0446F0EE408AB0EE6E
:1058B000609A0120FFF736F894ED190AB8EE400A15
:1058C00020EE280A10EE101A0846FAF783FE41EC83
:1058D0001B0BB0EE4B0AF0EE6B0AFEF71DFEB0EEAE
:1058E00040AAF0EE60AA51EC1A0BFAF75AFE0546F0
:1058F00094ED190AB8EE400A20EE090A10EE101ACB
:105900000846FAF767FE41EC1B0BB0EE4B0AF0EECF
:105910006B0AFEF701FEB0EE40AAF0EE60AA51EC71
:105920001A0BFAF73EFE0646782D00D27825782E1F
:1059300000D27826676F94ED190AB8EE400AF0EEAF
:10594000400A00EE107AB8EEC01A00EE105AB8EE17
:10595000400A00F035F9B0EE408AFEF769FEBCEE71
:10596000C00A10EE108AD4ED190AF8EE600AB0EE03
:10597000600A784200EE900AB8EEE01A00EE906AF3
:10598000F8EE600A00F01CF9B0EE408AFEF790FED7
:10599000BCEEC00A10EE109AA069A0EB0800A0EBC4
:1059A000090ABAF1000F54DA02EE105AF8EE420A70
:1059B00002EE106AB8EE421A02EE107AB8EEC20A8F
:1059C00094ED062AF8EE421AB5EEC00AF1EE10FA8E
:1059D00002D1DFED282A0FE0B0EE002A20EE022AE5
:1059E00022EE212A00EEE02A01EE012AF1EE002A41
:1059F00020EE223AC2EE032AF0EE629AB0EE690A75
:105A0000FEF716FEB0EE408AB5EEC08AF1EE10FA4F
:105A100002DDB0EE480A01E09FED160ABCEEC00AB6
:105A200010EE100AA16988420CD2B5EEC08AF1EEE0
:105A300010FA02DDB0EE480A01E09FED0E0ABCEE5E
:105A4000C00A01E094ED060A10EE108A4FF0000A39
:105A500000BF0120FEF766FFC4F8308008EB0A00A3
:105A60006063E56626670020FEF75CFFBDEC088BEF
:105A7000BDE8F08700000000094908700978012995
:105A800002DD0021064A117005490978012903D178
:105A90000449054A116002E00449034A1160704755
:105AA0006C040020D05D002068040020BC5D002054
:105AB00000200549088005490880054908800549F6
:105AC00008700549087070472E0000203000002043
:105AD000320000204600002075000020F0B587B09D
