:020000040801F1
:1000000090740020AD0101084F1D0108451B010837
:10001000251D0108E9110108D52C01080000000088
:1000200000000000000000000000000005200108A2
:100030004D14010800000000C3010108B3210108AC
:10004000C7010108C7010108C7010108C70101086C
:10005000C7010108C7010108C7010108C70101085C
:10006000C7010108C7010108C7010108C70101084C
:10007000C7010108C7010108ED110108C701010806
:10008000C7010108C7010108C7010108C70101082C
:10009000C7010108C7010108C7010108C70101081C
:1000A000C7010108C7010108C7010108C70101080C
:1000B000C7010108C7010108C7010108C7010108FC
:1000C000C7010108C7010108C7010108C7010108EC
:1000D000C70101080128010885280108B529010880
:1000E00051140108C7010108C7010108C70101082F
:1000F000C7010108C7010108C7010108C7010108BC
:10010000C7010108C7010108D9240108C701010876
:10011000C7010108C7010108F9240108C701010846
:10012000C7010108C7010108C7010108C70101088B
:10013000C7010108C7010108C7010108C70101087B
:10014000C7010108C7010108C7010108C70101086B
:10015000C7010108C7010108C7010108C70101085B
:10016000C7010108C7010108C7010108D12601081C
:10017000C7010108C7010108C7010108C70101083B
:10018000C7010108C7010108C7010108C70101082B
:10019000C7010108C7010108DFF80CD000F0E4FC3A
:1001A00000480047695D01089074002006488047B8
:1001B00006480047FEE7FEE7FEE7FEE7FEE7FEE74C
:1001C000FEE7FEE7FEE7FEE72924010899010108A2
:1001D00040EA01039B0703D009E008C9121F08C0C9
:1001E000042AFAD203E011F8013B00F8013B521E49
:1001F000F9D27047D2B201E000F8012B491EFBD2C0
:1002000070470022F6E710B513460A460446194621
:10021000FFF7F0FF204610BDCAB2401E10F8011FC4
:100220008A4202D00029F9D100207047421C10F800
:10023000011B0029FBD1801A70472DE9FE4F804633
:1002400081EA0300C00F0C46009021F0004123F02A
:100250000045B8EB0200A94105D240462146904630
:100260001C460B46024623F00040104347D0270DA2
:10027000C7F30A00C3F30A510290401A01904028C4
:100280006BDAC3F3130040F4801B0098924620B150
:100290000023D2EB030A63EB0B0B01985946C0F124
:1002A0004002504600F03DFA06460D46504659467B
:1002B000019A00F055FA10EB08006141002487EA2A
:1002C000115284EAE7731A4340D0009A62B3019A4C
:1002D000012A4FEA075215DC001B61EB02014FF0C7
:1002E000004202EA0752CDE90042001C41F58011AC
:1002F00032462B4600F0E8FA03B0BDE8F08F4046E6
:100300002146F9E7001B61EB0201001C41F5801357
:1003100000185B412018A2F5001747EB030140EAE3
:10032000D570B6196D4111E06D084FEA360645EA01
:10033000C0754FEA0752001B61EB0201001C41F53A
:10034000801149084FEA30000019514132462B46CE
:1003500003B0BDE8F04F00F0A8BA009801224000B9
:100360000023D0EB020263EBE073009821464FEAD2
:10037000E074B8EB000061EB0401E9E783F00043AF
:100380005BE781F0004158E72DE9FE4F81EA030465
:1003900004F0004421F0004100944FF0000B23F0E2
:1003A000004350EA01045ED052EA03045BD0C3F379
:1003B0000A54C1F30A552C44A4F2F3340194A0FB6F
:1003C0000254C1F3130141F48011C3F3130343F446
:1003D000801301FB024400FB034E840A970A44EA9F
:1003E000815447EA8357A4FB076802958D0A05FBF1
:1003F00007854FEA932C04FB0C542705029D4FEA16
:10040000065847EA1637B5EB08056EEB070C870E62
:10041000920E47EA811742EA8312A7FB0201B6EB6C
:100420000B0164EB00042B0D43EA0C335E1844EB24
:100430001C50DA465146E7FB0201C5F313044FEAAC
:100440000B3343EA14534FEA0432019C43EA060398
:10045000A4F10C040294009CCDE900B400F034FA3D
:1004600003B0BDE8F08F00200146F9E72DE9F04D1B
:1004700081EA030404F0004B21F0004514464FF0DC
:10048000000A23F0004150EA050220D054EA01029C
:100490001DD0C5F30A570246C5F31303C1F3130079
:1004A000C1F30A5640F4801543F48013A7EB060805
:1004B000101BD64608F2FD3873EB050002D308F195
:1004C000010801E092185B41B8F1000F03DA002047
:1004D0000146BDE8F08D00204FF4801106468446A9
:1004E0000EE0171B73EB050705D3121B63EB050327
:1004F00006434CEA010C49084FEA300092185B4170
:1005000050EA0107EDD152EA030012D082EA04005A
:1005100083EA0501084305D0101BAB4106D2012236
:10052000002306E000224FF0004302E06FF00102DA
:1005300053101AEB06004CEB085110EB0A0041EB8C
:100540000B01BDE8F04D00F0B0B90EB540F23341FB
:1005500002910021CDE900110A460B4600F0B4F9E2
:1005600003B000BD70B5C1F30A5201F0004500248C
:10057000C1F3130140F2FF3341F480119A4201DAD2
:10058000002070BD40F233439A42A2F2334203DCB2
:10059000524200F0D5F800E090402C43F1D04042A8
:1005A00070BDC1F30A5210B5C1F3130140F2FF331D
:1005B00041F480119A4201DA002010BD40F2334329
:1005C0009A42A2F2334203DC524200F0B9F810BD65
:1005D000904010BD00F0004230F000400AD0C10D44
:1005E00001F56071C0F3160042EA0151C2084007EC
:1005F00011437047002001467047000030B5041ECB
:1006000071F1000404DB4FF00044404264EB01014F
:10061000141E73F1000405DB1C464FF000435242E8
:1006200063EB04038B4208BF824230BD30B5041E29
:1006300071F1000404DB4FF00044404264EB01011F
:10064000141E73F1000405DB1C464FF000435242B8
:1006500063EB0403994208BF904230BD01F00043B0
:1006600030B421F0004150EA010206D00A0DA2F593
:100670006072C1F31301002A02DC30BC0020704715
:10068000440F44EAC104C100E01830BC00EBC25082
:1006900000F0D4B830B50B460146002020220124DA
:1006A00009E021FA02F59D4205D303FA02F5491B40
:1006B00004FA02F52844151EA2F10102F1DC30BD56
:1006C0002DE9F05F0546002092469B468846064687
:1006D000814640241BE0284641464746224600F01A
:1006E0002FF853465A46C01A914110D31146184666
:1006F000224600F016F82D1A67EB01084F462246F5
:100700000120002100F00DF817EB00094E41201EDA
:10071000A4F10104DFDC484631462A464346BDE8E1
:10072000F09F202A04DB203A00FA02F100207047F3
:100730009140C2F1200320FA03F31943904070471F
:10074000202A04DB203A21FA02F00021704721FA26
:1007500002F3D040C2F1200291400843194670478D
:10076000202A06DBCB17203A41FA02F043EAE07375
:1007700006E041FA02F3D040C2F120029140084362
:100780001946704700487047A09E010810B50446FE
:10079000FFF7F8FF0068005D00F0010010BD0000E9
:1007A0000FB4002300B589B00CA900910B996FF02C
:1007B0000042CB601E4B06931E4B07930423CDE9EA
:1007C00001321D4A089202466B46002000F072FA80
:1007D00009B05DF814FB70B586B006464FF0FF30E7
:1007E0000091CDE90101002015460C4604903246E7
:1007F000694604A8FFF7D4FF02460498211825B1E2
:1008000008B1084600E020462860049800280DD072
:10081000002A02DD0098884208D0081B0094CDE928
:1008200001043246694604A8FFF7BAFF06B070BD5E
:10083000ED0E01080B0F01088D0701080029A8BF64
:100840007047401C490008BF20F00100704710B4F9
:10085000B0FA80FC00FA0CF050EA010404BF10BCAE
:10086000704749B1CCF1200421FA04F411FA0CF1DB
:1008700018BF012121430843A3EB0C01CB1D4FEA14
:1008800000614FEA102042BF002010BC704700EB0F
:10089000C35010440029A4BF10BC7047401C49003D
:1008A00008BF20F0010010BC704710B5141E73F192
:1008B000000408DA401C41F1000192185B411A4320
:1008C00001D120F0010010BD2DE9F04D92469B466C
:1008D00011B1B1FA81F202E0B0FA80F22032904612
:1008E000FFF71FFF04460F4640EA0A0041EA0B01EA
:1008F00053465A46084313D0114653EA010019D013
:10090000C8F140025046FFF71BFF05460E46504611
:1009100059464246FFF705FF084305D0012004E091
:1009200020463946BDE8F08D0020054346EAE076D2
:100930002C4337430A986305E40AA0EB0800002221
:10094000FD0A44EA47540A3002D500200146E9E78F
:10095000010510196941DDE9084500196941BDE843
:10096000F04DA2E72DE9F04D00231A461B1A8A41EB
:1009700003DB00200146BDE8F08DC1F30A52C1F34C
:10098000130141F480154FF0000BD10702D100187C
:100990006D41521E0027044640F2FF11384601EB1C
:1009A000620A3E468046024600204FF48011FFF75F
:1009B000C7FEC2197141BB1846EB0100B4EB030C32
:1009C00075EB000C04D3E41A65EB000517460E46E0
:1009D000241908F101006D4180463428E3DDF9193E
:1009E00046EB0600091BA84103D24FF0FF32134625
:1009F00001E0002213461BEB070046EB0A51BDE85D
:100A0000F04DFFF752BF00002DE9F041054621F0FF
:100A100000400C46284309D0C4F30A5040F2334149
:100A2000884205DD28462146BDE8F0812846FBE7DF
:100A300040F2FE31884210DC0CDB4FEA043040EA21
:100A4000155050EA053105D0104804F0004101432B
:100A50000020E9E700200146E6E7A0F233404642E5
:100A6000C6F1400228462146FFF75BFE074688464E
:100A7000284621463246FFF763FE43463A46FFF7D3
:100A800014FF3246BDE8F041FFF74BBE0000F03FD7
:100A9000C1F30A52C1F3130140F2FF3341F4801154
:100AA0009A4202DA00200146704740F233439A42EC
:100AB000A2F2334202DC5242FFF742BEFFF731BEE0
:100AC0002DE9F047C1F30A5401F00048054600271C
:100AD000C1F3130140F2FF3041F4801684421ADA68
:100AE000B4F57F7F00DC841EA4F213446242924678
:100AF00028463146FFF724FE04465246FFF711FE12
:100B000045404E40354301D0012000E0002044EA3A
:100B1000000100201BE040F2334084421ADCA4F2C2
:100B2000F33228463146FFF7FCFD0A467840514033
:100B3000084301D0012000E0002040EA020AA4F2AC
:100B40003344624228463146FFF7FAFD5146FFF72B
:100B500075FE03E0A4F2334405FA04F057EA0807EF
:100B600000D04042BDE8F087064C074D06E0E06843
:100B700040F0010394E8070098471034AC42F6D3E4
:100B8000FFF70EFB3C9F01085C9F01082DE9FF4F1A
:100B9000087883B09946FF2805D0491C2D2804D039
:100BA0000024002008E000200BE00124F9E700EB1E
:100BB000800003EB4000491C0B78FF2BF7D104B1F8
:100BC000404200230293147819461D462D2C01D073
:100BD0002B2C04D1521C2D2C13D000240294AA4695
:100BE0001478FF2C0FD00A25A3FB057801FB0581A3
:100BF0004FF0000C03FB0C11521CE3194AEB0101EE
:100C0000EEE70124EAE7814453EA010002D019F536
:100C1000C87F06DA03980021C0E9001107B0BDE8DB
:100C2000F08F0025AE4E2F46DFF8B882184600F050
:100C30007DF9CDE90001B9F1000002DAC9F1000443
:100C400000E004460023A74A1AEB030B42EB045AC8
:100C500012E0E00707D02A46334638464146FFF700
:100C600093FB074688462A46334610461946FFF747
:100C70008BFB05460E466410002CEAD1DDE900012D
:100C8000B9F1000F5A46534606DAFFF7EFFB3A4632
:100C90004346FFF7EBFB05E0FFF776FB3A4643469A
:100CA000FFF772FB029A0AB181F00041039AC2E990
:100CB0000001B3E72DE9FF4F1F468DB0D7E901468C
:100CC0004FF0FF382E2045464FF000090B90B969D0
:100CD0006D1C0E988847396A824688470028F6D1ED
:100CE000BAF1FF3F0AD024F4D064002E11DDBAF12E
:100CF0002B0F08D0BAF12D0F0BD102E0404611B0F6
:100D00008DE744F48064B9696D1C0E98884782466B
:100D1000761E6946600501D52D2000E02B208DF858
:100D2000000001F1010B0DF1200809E0B9696D1C0B
:100D30000E98884782460F9844F40074761E05602A
:100D4000002E02DDBAF1300FF0D00B998A453ED16A
:100D500044F0800406E00F99681CA9F1010944F4ED
:100D600000740860B9696D1C761E0E98884782462B
:100D70003028F0D02BE00B998A4505D1200603D40A
:100D800044F08004761E18E0504603F04BFE08B392
:100D90000DF11301761E44F400748B4508D2AAF1BC
:100DA00030000BF8010B200607D5A9F1010003E084
:100DB000200602D409F101008146A00502D50F9951
:100DC000681C0860B9696D1C0E9888478246002E21
:100DD000D1DC53E0002E51DDBAF1650F02D0BAF13B
:100DE000450F4BD1A00549D5B9696D1C24F4407459
:100DF000761E0E9888478246002E0CDD2B2804D0E4
:100E0000BAF12D0F07D144F48074B9696D1C0E98A6
:100E100088478246761EE00501D52D2100E02B2172
:100E200008F8011BCDF82C8021E00DF12901761E78
:100E300044F4007488450CD2AAF1300010F0FF0091
:100E400088F8000002D10B99884509D908F10108FA
:100E500006E0E00501D5244801E042F20F7081462A
:100E6000B9696D1C0E98884782460F980560002E60
:100E700004DD504603F0D6FD0028D6D1F9690E985E
:100E80008847FF208BF8000088F8000000200690BB
:100E900007904B466A4608A906A8FFF777FEA0050B
:100EA00002D46FF001002AE714F0240F0AD0E00703
:100EB00014D1DDE906123868031D3B600068C0E903
:100EC00000120BE0DDE90601FFF7C8FB0146E00771
:100ED00004D13868021D3A600068016028460EE7B8
:100EE000000014400000F03FF1D8FFFF426842B11B
:100EF000016811F8013B23B1521EC0E900121846E7
:100F000070470121C160881E704742685AB1C368AA
:100F1000016843B983688B4205D0491E521CC0E961
:100F20000012002070474FF0FF3070470EB540F2BE
:100F3000334202920022CDE900221346FFF7C4FC9F
:100F400003B000BD70B58C1810F8015B15F00703F5
:100F500001D110F8013B2A1106D110F8012B03E052
:100F600010F8016B01F8016B5B1EF9D12B0705D45A
:100F70000023521E0DD401F8013BFAE710F8013BA3
:100F8000CB1A921C03E013F8015B01F8015B521EBF
:100F9000F9D5A142D8D3002070BD02688A4302600F
:100FA000704770B505460C4645B900214FF4807076
:100FB00000F04AFF204600F03BFF06E001212046FA
:100FC00000F042FF002000F033FF70BDF0B5044692
:100FD000154600200022122905D1E06D20F00700FF
:100FE0001843E06520E0092911DDE068A1F10A0657
:100FF00006EB4607072606FA07F29043A1F10A0618
:1010000006EB460603FA06F21043E0600CE02069A6
:1010100001EB4107072606FA07F2904301EB410670
:1010200003FA06F210432061072D0FDA606B6E1E83
:1010300006EB86071F2606FA07F290436E1E06EBA4
:10104000860601FA06F21043606322E00D2D0FDAE6
:10105000206BEE1F06EB86071F2606FA07F2904369
:10106000EE1F06EB860601FA06F21043206310E03D
:10107000E06AA5F10D0606EB86071F2606FA07F2C1
:101080009043A5F10D0606EB860601FA06F2104321
:10109000E062F0BD21B1826842F00102826003E0AB
:1010A000826822F001028260704721B1826842F4B6
:1010B000A002826003E0826822F4A002826070478E
:1010C000014600208A6802F004020AB1012000E013
:1010D000002070470146C86C80B2704770B5044666
:1010E0000D460723012229462046FFF76FFF012105
:1010F0002046FFF7DAFF00BF0221204600F010F87B
:101100000028F9D002212046FFF747FF1021204692
:10111000FFF743FF2046FFF7DDFF0646304670BD70
:101120000246002013680B400BB1012000E00020B4
:10113000704702460020936D0B400BB1012000E088
:101140000020704730B502460020002350680F4C45
:1011500020400D790C6844EA0524204350609068D3
:101160000B4C2040D1E902542C434D7944EA45040C
:1011700020439060D06A20F470000C7C641EE4B2BE
:10118000234340EA0350D06230BD0000FFFEF0FF71
:10119000FDF7F1FF816841F00401816070470000B4
:1011A00010B500244FF4E06000F02AFE02F0E2FFE8
:1011B00006F022FC00F03AFC03F07AF801F0EEFCB5
:1011C000064800F001FD064800F0FEFC00F0BCFC03
:1011D00000200449086004F0A7FD10BD0044004051
:1011E000005401400001002000BFFEE710B509498E
:1011F0004FF4005000F014F800210648443000F08D
:10120000F5F80020044908704FF40061034800F02D
:10121000B7FB10BD0000024006010020000801409D
:10122000486070471AB103680B43036002E003682B
:101230008B4303607047000001684FF6FE72114057
:1012400001600021016041608160C16065498842A0
:1012500008D164490839496841F00F01614A083AE8
:101260005160BEE05F491431884208D15D490839B8
:10127000496841F0F0015B4A083A5160B1E05949D0
:101280002831884208D157490839496841F47061CA
:10129000544A083A5160A4E052493C31884208D18E
:1012A00050490839496841F470414E4A083A516042
:1012B00097E04C495031884208D14A490839496879
:1012C00041F47021474A083A51608AE04549643147
:1012D000884208D143490839496841F47001414ABC
:1012E000083A51607DE03F497831884208D13D4954
:1012F0000839496841F070613A4A083A516070E033
:1013000038498C31884208D136490839496841F05A
:101310007041344A083A516063E03349884206D14B
:10132000011F096841F00F01021F116059E02E49A9
:101330001431884208D12C49091F096841F0F00195
:10134000294A121F11604CE027492831884208D1F0
:101350002549091F096841F47061234A121F116071
:101360003FE021493C31884208D11F49091F0968E3
:1013700041F470411C4A121F116032E01A49503189
:10138000884208D11849091F096841F47021164A9A
:10139000121F116025E014496431884208D11249B6
:1013A000091F096841F470010F4A121F116018E00B
:1013B0000D497831884208D10B49091F096841F06D
:1013C0007061094A121F11600BE007498C31884295
:1013D00007D10549091F096841F07041024A121FEF
:1013E00011607047080002400804024021B1026801
:1013F00042F00102026004E002684FF6FE731A40F8
:10140000026070470146486880B2704710B50022FC
:10141000026847F6F0739A430C6A8B6823430C69A1
:1014200023434C6923438C692343CC6923434C6A8F
:1014300023438C6A23431A430260CB6843600B68E2
:1014400083604B68C36010BD416070477047000007
:1014500010B54FF4006000F011F830B14FF40060A7
:1014600000F006F801200149087010BDFC000020C2
:101470000149086070470000140401400146002043
:101480000022074B1B6803EA0102054B14331B685B
:101490000B4013B10AB1012000E0002070470000AA
:1014A000000401400249C9680143014AD160704704
:1014B0000020024030B5044606257C20FFF7F2FFED
:1014C0004FF4302000F08CF80546062D17D10D485A
:1014D000006940F002000B49086108464461006958
:1014E00040F0400008614FF4302000F079F80546E4
:1014F0000448006943F6FD71084002490861284626
:1015000030BD00000020024006201249C96801F0E9
:10151000010109B101201CE00E49C96801F0040174
:1015200009B1032015E00B49C96801F0080109B1B0
:1015300004200EE00749C96801F0100109B1052037
:1015400007E00449C96801F0400109B1072000E043
:1015500006207047002002400348006940F08000E8
:1015600001490861704700000020024078B5044638
:101570000D4606260020009004F0030010B1092655
:10158000304678BD7C20FFF78DFF4FF4005000F00F
:1015900027F80646062E12D10A48006940F00100DD
:1015A0000849086125604FF4005000F019F806461C
:1015B0000448006943F6FE7108400249086130465C
:1015C000DFE700000020024002480349486003486A
:1015D000486070472301674500200240AB89EFCD8A
:1015E00000B502460623FFF78FFF034603E0FFF72F
:1015F0008BFF0346521E012B01D1002AF7D102B9FD
:101600000A23184600BD0000F0B50C460023002652
:1016100000220025002100F00047B7F1004F02D161
:101620008B4FFA6919E000F08047B7F1804F02D183
:10163000874F3A6A11E000F00057B7F1005F02D11E
:10164000834F7A6A09E000F08057B7F1805F02D1DA
:101650007F4FBA6A01E07E4F7A68C0F3034583B2D8
:101660007C4F0740B7F5401F0AD122F07062784FD7
:101670007F6827F07067DFF8D8C1CCF80470BDE050
:1016800000F48017B7F5801F13D100F40017B7F5E9
:10169000001F03D10327AF403E0402E0032707FAEF
:1016A00005F6B24300F0E047002FE8D142F0706247
:1016B000A4E000F08077B7F1807F47D100F0040705
:1016C000042F29D100F00077B7F1007F16D1C0F3C5
:1016D00040573F0103FA07F7BA433CB15C4F7968C2
:1016E00041F0010141F07061796087E0584F7968FD
:1016F00021F0010141F0706179607FE0C0F3405753
:101700003F0103FA07F7BA43514F796821F001010D
:1017100041F07061796071E043F00407C0F3405C10
:101720004FEA0C1C07FA0CF7BA433CB1484F7968F2
:1017300041F0010141F0706179605FE0444F7968E8
:1017400021F0010141F07061796057E000F080679D
:10175000B7F1806F47D100F00807082F29D100F0BA
:101760000077B7F1007F16D1C0F340573F0103FA6D
:1017700007F7BA433CB1364F796841F0080141F0B0
:10178000706179603AE0324F796821F0080141F0E8
:101790007061796032E0C0F340573F0103FA07F708
:1017A000BA432B4F796821F0080141F070617960EC
:1017B00024E043F00807C0F3405C4FEA0C1C07FA32
:1017C0000CF7BA433CB1224F796841F0080141F06F
:1017D0007061796012E01E4F796821F0080141F0D4
:1017E000706179600AE0C0F340573F0103FA07F7E0
:1017F000BA4300F0E0470FB942F070622CB1C0F379
:1018000040573F0103FA07F73A4300F00047B7F1AA
:10181000004F02D10E4FFA6119E000F08047B7F196
:10182000804F02D10A4F3A6211E000F00057B7F141
:10183000005F02D1064F7A6209E000F08057B7F1ED
:10184000805F02D1024FBA6201E0014F7A60F0BDC1
:1018500000000140000030702DE9F04102460025F3
:101860000026002000230024002791F803C00CF07C
:101870000F0591F803C00CF0100CBCF1000F03D061
:1018800091F802C04CEA050591F800C0BCF1000FC8
:1018900031D0146800202BE04FF0010C0CFA00F35B
:1018A000B1F800C00CEA03069E4220D183004FF03D
:1018B0000F0C0CFA03F7BC4305FA03FC4CEA0404D2
:1018C00091F803C0BCF1280F06D14FF0010C0CFABF
:1018D00000FCC2F814C00AE091F803C0BCF1480F44
:1018E00005D14FF0010C0CFA00FCC2F810C0401CEE
:1018F0000828D1D31460B1F800C0BCF1FF0F34DD6B
:10190000546800202EE000F1080C4FF0010808FA9E
:101910000CF3B1F800C00CEA03069E4221D183000B
:101920004FF00F0C0CFA03F7BC4305FA03FC4CEA2A
:10193000040491F803C0BCF1280F05D100F1080C94
:1019400008FA0CF8C2F8148091F803C0BCF1480FF3
:1019500007D100F1080C4FF0010808FA0CF8C2F8A2
:101960001080401C0828CED35460BDE8F0810246A8
:10197000002093680B400BB1012000E0002070476D
:10198000416170470161704770B505460C46A1B2D0
:10199000284600F09BFE284600F0D8FDA04203D95F
:1019A0000121284600F0D0FD70BD000008B50121DE
:1019B000042000F07BFA2020ADF8000010208DF804
:1019C000030003208DF8020069461748FFF744FF23
:1019D00020211548FFF7D6FF0121042000F066FA08
:1019E0000220ADF8000010208DF8030003208DF8D0
:1019F000020069460C48FFF72FFF02210A48FFF753
:101A0000BFFF0121042000F051FA0120ADF80000D1
:101A100010208DF8030003208DF80200694602486B
:101A2000FFF71AFF08BD00000008014000B587B0AD
:101A30000121182000F03AFA01214FF4604000F033
:101A400015FA07210020FFF7ACFA4FF460514FF46C
:101A5000003000F0DFF94FF47040ADF818000020BE
:101A60008DF81B0006A93248FFF7F6FE0F20ADF8EF
:101A7000180000208DF81B0006A92E48FFF7ECFE89
:101A8000002001908DF808008DF809004FF46020C7
:101A900003900020049001208DF8140001A926482D
:101AA000FFF750FB01A92548FFF74CFB01A924488B
:101AB000FFF748FB01212048FFF7ECFA00BF202187
:101AC0001D48FFF736FB0028F9D01B48FFF762FBE3
:101AD00000BF1948FFF7F4FA0028FAD1012117488E
:101AE000FFF7D8FA00BF20211448FFF722FB002897
:101AF000F9D01248FFF74EFB00BF1048FFF7E0FA9D
:101B00000028FAD101210E48FFF7C4FA00BF2021B6
:101B10000B48FFF70EFB0028F9D00948FFF73AFB06
:101B200000BF0748FFF7CCFA0028FAD107B000BD84
:101B3000000C014000100140000C0240001802405F
:101B4000001C024000BFFEE708B50121082000F09C
:101B5000ADF92020ADF8000010208DF8030003201F
:101B60008DF8020069460E48FFF776FE0121082035
:101B700000F09CF94020ADF8000010208DF8030023
:101B800003208DF8020069460548FFF765FE202115
:101B90000348FFF7F7FE40210148FFF7F1FE08BDBB
:101BA000000C014000B54FF48031C80200F002F88B
:101BB00000BD0000024A0A400243024B1A6070470F
:101BC00080FFFF1F08ED00E010B504461F48844267
:101BD00006D14FF4EE720021204608F03CF808E0F0
:101BE0001B48844205D14FF4EE720021204608F0D4
:101BF00032F81648844205D1164A1021204608F0D2
:101C00002AF807E01248844204D1124A10212046E3
:101C100008F021F880221121204608F01CF80B481A
:101C2000844205D10C4A6C21204608F014F807E0E4
:101C30000748844204D1084A6C21204608F00BF87A
:101C4000064A7021204608F006F810BD0044004006
:101C50000054014000090A00C38200154B170DC84B
:101C600010B504F08BFB03F09FFE4FF4F0610248C7
:101C7000FEF7C7FA10BD00008804002000203CE0F9
:101C80000021244A1154244A1154032801DB012263
:101C900000E0002200EB4001204B03EB011181F832
:101CA0002020002200EB400103EB01114A620122D7
:101CB00000EB400103EB011181F82120002200EB31
:101CC000400103EB011181F82220002100EB4002CA
:101CD00003EB02121176002200EB400103EB01112D
:101CE000CA6100EB400103EB01118A6200EB400185
:101CF00003EB0111CA62411CC8B20528C0DB0020F9
:101D000005E00021064A22F81010411CC8B2022842
:101D1000F7DB704720040020250400209C5C002095
:101D20002A04002000BFFEE710B500F0DFF9FFF73E
:101D30003DFE10BD30B50246A2FB01304FF4000558
:101D40005B1940F10000040244EA136030BD7047A3
:101D500008B532208DF8000000208DF80100042025
:101D60008DF8020001208DF80300684600F010F89D
:101D700036208DF8000000208DF8010005208DF838
:101D8000020001208DF80300684600F001F808BD4C
:101D900070B5002100230F22C47804B3154C2468C9
:101DA00004F4E064C4F5E064210AC1F10403CA400C
:101DB000447804FA03F184781440214309010E4C5D
:101DC0000678A155047804F01F050124AC4005787D
:101DD0006D11AD0005F1E025C5F8004109E004787A
:101DE00004F01F050124AC40044D0678761145F837
:101DF000264070BD0CED00E000E400E080E100E072
:101E000002490143024A1160704700000000FA05D0
:101E10000CED00E002460020044BD86A20F48060FC
:101E200020F4784010430843D86270470010024005
:101E300001460020034AD06A20F00F000843D06218
:101E4000704700000010024002460020064BD86A8E
:101E500020F4F87009B1104302E0104320F48070C0
:101E6000014BD862704700000010024029B1064AB9
:101E700052690243044B5A6104E0034A52698243A7
:101E8000014B5A61704700000010024029B1064A18
:101E9000D2690243044BDA6104E0034AD269824307
:101EA000014BDA61704700000010024029B1064A78
:101EB00092690243044B9A6104E0034A92698243A7
:101EC000014B9A617047000000100240F0B50021FC
:101ED00000BF002200250024384E7668384F06EAFD
:101EE0000702364E766806F4803502F000661EB9A9
:101EF000022606EB924204E04FF4F876C6EB9246D7
:101F0000721C1DB92F4E02FB06F30BE02B4E7668B8
:101F100006F400361EB12C4E02FB06F302E02B4EF7
:101F200002FB06F3254E766806F00C0121B1042968
:101F300005D0082908D105E0254E066007E0234EAC
:101F4000066004E0036002E0214E066000BF00BFAF
:101F50001A4E766806F0F00109091E4E745C066898
:101F6000E6404660154E766806F4E061090A194EAF
:101F7000745C4668E6408660104E766806F46051F0
:101F8000C90A144E745C4668E640C6600B4EF66A99
:101F900006F00F01104E745C4668B6FBF4F646611D
:101FA000064EF66A06F4F871090901F00F060B4FA8
:101FB00037F81640B3FBF4F60661F0BD001002409E
:101FC00000003C0800093D00808D5B00001BB7004D
:101FD00000127A00DC9D0108EC9D0108FC9D0108BF
:101FE00070B504460D46FFF7EFFA3520FFF75AFAB1
:101FF0002046FFF75FFA29462046FFF7B7FAFFF7BA
:10200000ABFA70BD7047000010B50020002100221F
:10201000304B1B6843F480332E4C236000BF2D4BA4
:102020001B68C3F34041521C19B94FF6FF739A4223
:10203000F5D1284B1B68C3F3404119B9264B274CF7
:10204000236010BD264B1B6823F00303244C236040
:1020500023461B6843F0040323601E4B5B681D4C42
:10206000636023465B6843F40053636023465B6808
:1020700043F4A063636023465B681A4C2340154C0D
:1020800063602346586840F4803040F40030164BBB
:102090001843234658601B6843F08073236000BFD9
:1020A0000C4B1B6803F00073002BF9D0094B5B68E5
:1020B00023F00303074C636023465B6843F002038D
:1020C000636000BF034B5B6803F00C03082BF9D17E
:1020D00000BFB6E70010024000127A008004002022
:1020E00000200240FFFFC0F700001C0808B50121D6
:1020F0000820FFF7DBFE4FF40070ADF80000482029
:102100008DF8030003208DF8020069462148FFF78F
:10211000A3FB01210820FFF7C9FE0220ADF8000053
:1021200010208DF8030003208DF80200694619483D
:10213000FFF792FB01210420FFF7B8FE8020ADF8E5
:10214000000010208DF8030003208DF8020069467E
:102150001148FFF781FB01210420FFF7A7FE402073
:10216000ADF8000010208DF8030003208DF8020068
:1021700069460948FFF770FB02210648FFF702FC99
:1021800080210548FFF7FCFB40210348FFF7F8FBDF
:1021900008BD0000000C014000080140042807D1E0
:1021A0004FF0E021096941F004014FF0E022116194
:1021B000704710B500F002F810BD0000924800789A
:1021C000312841DC914800888F490978904A22F8EB
:1021D00011008D480078114631F810000988401A26
:1021E000002807DD88480078114631F8100009887A
:1021F000401A07E08648008883490978844A32F803
:102200001110401A0F2812DB012082490870824801
:102210000068401C804908600846006810F1100FF3
:1022200001D30020086031207749087006E0764825
:102230000078312802D10020764908707248007871
:10224000401C7149087002E000206F4908706E4818
:102250004078312841DC6D4840886B4949786F4AA5
:1022600022F8110068484078114631F810000988BA
:10227000401A002807DD64484078114631F8100004
:102280000988401A07E0654800885F494978634A31
:1022900032F81110401A0F2812DB01205D494870F6
:1022A0005D484068401C5C4948600846406810F141
:1022B000100F01D30020486031205349487006E0D8
:1022C00051484078312802D10020524948704E4888
:1022D0004078401C4C49487002E000204A49487050
:1022E00049488078312841DC4848808846498978C7
:1022F0004B4A22F8110044488078114631F810000A
:102300000988401A002807DD3F488078114631F8D7
:1023100010000988401A07E0414800883A49897846
:102320003F4A32F81110401A0F2812DB01203949B8
:10233000887039488068401C374988600846806842
:1023400010F1100F01D30020886031202E498870D1
:1023500006E02D488078312802D100202D49887070
:1023600029488078401C2849887002E000202649CE
:1023700088702548C078312841DC2448C08822492B
:10238000C978284A22F811001F48C078114631F850
:1023900010000988401A002807DD1B48C078114644
:1023A00031F810000988401A07E01E4800881649D5
:1023B000C9781C4A32F81110401A0F2812DB01208C
:1023C0001449C8701448C068401C1349C8600846C6
:1023D000C06810F1100F01D30020C86031200A49F5
:1023E000C87006E00848C078312802D100200949A9
:1023F000C8700548C078401C0349C87002E000203E
:102400000149C870704700001C02002044010020F0
:1024100094130020D901002024150020F813002077
:102420005C140020C014002010B52448006840F45B
:102430007000224908602248006840F001002049ED
:102440000860084640681F4908401D494860084622
:1024500000681D4908401A4908600846006820F4D1
:1024600080200860084640681849084014494860C0
:102470000020C86208634FF41F0088600846C069E6
:1024800040F08050C8611248C06840F00100104917
:10249000C8600B48C06920F080500949C8610D48E8
:1024A000006840F090000B490860FFF7ADFD4FF069
:1024B000006002498039086010BD000088ED00E02E
:1024C0000010024000C0FFF8FFFFF6FEFFFF00F71C
:1024D000007000400020024010B50121054800F0C6
:1024E00038F828B10121034800F016F803F0BEFACD
:1024F00010BD0000000C004010B50121054800F09F
:1025000028F828B10121034800F006F806F0E2FCA3
:1025100010BD00000010004002698A43026170474C
:102520001AB183890B43838102E083898B438381C2
:10253000704721B1026842F00102026003E00268C4
:1025400022F0010202607047818270470146888C48
:10255000704730B50246002000230024156905EAC3
:102560000103958905EA010413B10CB1012000E0D3
:10257000002030BD0A46002101684D4B98420ED024
:102580004C4B98420BD0B0F1804F08D04A4B984248
:1025900005D04A4B984202D0494B984203D121F0D2
:1025A000700153881943474B984206D0464B9842D6
:1025B00003D021F44071D388194301609388838547
:1025C000138803853A4B984202D03A4B984201D186
:1025D000137A0386012383820168354B98420ED01B
:1025E000344B98420BD0B0F1804F08D0324B984218
:1025F00005D0324B984202D0314B984206D1537AE3
:1026000013B141F4006101E021F40061B0F1804FA9
:1026100008D0294B984205D0284B984202D0284B2D
:1026200098420DD1937A13B141F4805101E021F425
:102630008051D37A13B141F4005101E021F40051EB
:10264000B0F1804F05D01C4B984202D01B4B9842F2
:1026500006D1137B13B141F4804101E021F48041A4
:10266000134B98420BD0134B984208D0B0F1804FD7
:1026700005D0114B984202D0104B984206D1537BA3
:1026800013B141F4004101E021F4004101604168CF
:10269000B0F1804F02D0094B984206D1937B13B121
:1026A00041F4807101E021F48071416070470000C5
:1026B000002C0140003401400004004000080040AC
:1026C000000C00400010004000140040818570475D
:1026D00070B50025002440F22441404800F0D0F9B4
:1026E00000287AD000213E48FEF780FE3C48FEF7E5
:1026F00089FEC0F11400C5B2002D61DDFF2039490B
:10270000887100BF05E03848005D36490855601CF7
:10271000C4B2AC42F7DB33488079A0B93148C07904
:10272000324908702F48007A48702E48407A8870E5
:102730002C48807AC8700846C078DC283CD001203C
:102740002B49087038E02748807901280DD12548A9
:10275000C079284908702348007A48702148407A97
:1027600088702048807AC87026E01E4880796C28DE
:102770000DD11C48C079204908701A48007A487069
:102780001848407A88701748807AC87014E0154855
:102790008079722810D0134880796F280CD11148A5
:1027A000C079164908700F48007A48700D48407A81
:1027B00088700C48807AC87014210B48FDF721FD01
:1027C00014210748FEF740FE044800880348001D16
:1027D000008801210248FEF709FE70BD0054014047
:1027E0006C040240701500205C15002034020020AB
:1027F00058020020380200203C0200203002002055
:1028000070B500250024002640F22441194800F04C
:1028100037F968B300211848FEF7E8FD1648FEF7BF
:10282000F1FDC0F1C800C5B2022D10DD00BF07E008
:102830001248065D3146124802F01EF8601CC4B210
:10284000AC42F5DBC8210D48FDF7DBFC03E0C821F5
:102850000A48FDF7D6FCC8210748FEF7F5FD0548F4
:1028600000880448001D008801210348FEF7BEFDD2
:1028700070BD000000380140580002409C0E00204E
:10288000DC5D002070B50025002440F22441404862
:1028900000F0F6F800287AD000213E48FEF7A6FDA9
:1028A0003C48FEF7AFFDC0F11400C5B2002D61DD5C
:1028B000FF203949887100BF05E03848005D36497E
:1028C0000855601CC4B2AC42F7DB33488079A0B92C
:1028D0003148C079324908702F48007A48702E4834
:1028E000407A88702C48807AC8700846C078DC2806
:1028F0003CD001202B49087038E027488079012816
:102900000DD12548C079284908702348007A4870BD
:102910002148407A88702048807AC87026E01E4896
:1029200080796C280DD11C48C079204908701A485C
:10293000007A48701848407A88701748807AC870C2
:1029400014E015488079722810D0134880796F28D8
:102950000CD11148C079164908700F48007A4870A8
:102960000D48407A88700C48807AC87014210B4852
:10297000FDF747FC14210748FEF766FD0448008870
:102980000348001D008801210248FEF72FFD70BD9D
:10299000004400406C00024048150020341500201F
:1029A0002402002058020020280200202C020020CF
:1029B0002002002010B540F22551064800F060F8D2
:1029C00038B1044800F0E0F80349087001200349D9
:1029D000087010BD004800408201002083010020E3
:1029E00001F40072B2F5007F00D100BFCA4302803B
:1029F0007047F0B50346002400260025002040F66D
:102A00006A17B94200D100BF1846C1F3421401F061
:102A10001F06012707FA06F5012C01D10C3004E04E
:102A2000022C01D1103000E014301AB107682F4396
:102A3000076002E00768AF430760F0BD21B18289FB
:102A400042F40052828104E082894DF6FF731A40FD
:102A5000828170471AB1838A0B43838202E0838AA2
:102A60008B438382704702460020B1F5007F00D17E
:102A700000BF13880B400BB1012000E0002070471D
:102A800070B50246002400230025002040F66A1697
:102A9000B14200D100BFC1F3421501F01F0301266E
:102AA00006FA03F3012D02D19689334006E0022D88
:102AB00002D1168A334001E0968A33400C12012677
:102AC00006FA04F41688344013B10CB1012000E07A
:102AD000002070BD2DE9F04786B005460F46002462
:102AE000A24600BF00BF0026B88900B100BF2E4635
:102AF0002C8A4CF6FF700440F88804432C82AC8981
:102B00004EF6F3100440B8883989084379890843A0
:102B10000443AC81AC8A4FF6FF400440B8890443BB
:102B2000AC826846FFF7D2F91448864205D01448B3
:102B3000864202D01348864202D1DDF80CA001E0A3
:102B4000DDF808A00AEBCA0000EB0A10396889001A
:102B5000B0FBF1F86420B8FBF0F004012009642117
:102B600001FB1089322000EB0910B0FBF1F000F0FE
:102B70000F0004432C8106B0BDE8F0870038014007
:102B8000005001400054014001468888C0F308000D
:102B90007047C1F3080282807047000010B592B000
:102BA000002401218804FFF781F901211020FFF79B
:102BB0007DF901210846FFF779F91020ADF84400AE
:102BC00018208DF8470003208DF8460011A93D48D4
:102BD000FEF742FE2020ADF8440048208DF8470063
:102BE00011A93848FEF738FE4FF416500D9000201A
:102BF000ADF83800ADF83A00ADF83C00ADF8400053
:102C00000C20ADF83E000DA92F48FFF763FF00220E
:102C100040F226612C48FFF7ECFE002240F22551DD
:102C20002948FFF7E6FE002240F227712648FFF709
:102C3000E0FE012240F224412348FFF7DAFE0121A1
:102C40002148FFF7FBFE40211F48FFF7C9FE4B203C
:102C50008DF8300000208DF8310004208DF832000E
:102C600001208DF833000CA8FFF792F80121022013
:102C7000FFF7FCF81548FEF7DFFA1348001D019036
:102C80001348029000200390142004900020059027
:102C900080200690002007900890202009900002D4
:102CA0000A9000200B9001A90848FEF7AFFB012213
:102CB00040210548FFF7CEFE01210448FEF796FBB0
:102CC00012B010BD00100140005401406C040240DD
:102CD0005C15002000BFFEE700B58BB0012108465F
:102CE000FFF7C4F82A48FEF7A7FA2A4800902A48B6
:102CF000019010200290C8200390002004908020B2
:102D0000059000200690079008904FF4005009901D
:102D100000200A9069461E48FEF778FB0122022136
:102D20001B48FEF77FFA012280211A48001FFFF797
:102D300091FE00211648FEF759FB15481430FEF7A6
:102D40007BFA144800901548019000200290C8209A
:102D500003900020049080200590002006900790AA
:102D6000202008900002099000200A906946084837
:102D70001430FEF74BFB012240210648001FFFF7ED
:102D800069FE012102481430FEF730FB0BB000BD94
:102D90004400024004380140D40D00209C0E002065
:102DA00000B5B1B04621FA48FDF736FA002801F027
:102DB00097814621F648FDF72FFAF6490860084644
:102DC0000068F349401A401C08440021079001F0B4
:102DD000FFFC8DED080B9DED080B51EC100BFDF782
:102DE000C1FB27287ED022DCA0F10A001C2881F03C
:102DF0007581DFE810F04A00FE00B601DB02310306
:102E00004803730973095C03680371037A039D0324
:102E1000A8031304730973097309730973097A0406
:102E2000730973097309730973097309A3043328B8
:102E300000F02F8710DCA0F128000B28D7D2DFE8A4
:102E400010F024063B065606CC06D706F2064D09BE
:102E50004D094D094D090D073D2800F086870ADC14
:102E6000342800F03187352800F049873C2841F0AC
:102E7000358100F05FBF3E2801F0EC803F2801F073
:102E800004817028F3D101F01BB94C21C048FDF733
:102E9000C3F9C04908600846006898B10846006850
:102EA000BB49401A401C08440021079001F090FCE7
:102EB0008DED080B9DED080B51EC100BFDF7CEFBD3
:102EC000B54908605321B248FDF7A6F9B149086039
:102ED00008460068A8B108460068AD49401A401C81
:102EE000084400E0EFE30021079001F071FC8DED54
:102EF000080B9DED080B51EC100BFDF7AFFBA7493C
:102F000008604321A248FDF787F9A24908600846F6
:102F10000068002863D0084600689D49401A401C9C
:102F200008440021079001F053FC8DED080B9DED46
:102F3000080B51EC100BFDF715FB994908709948E7
:102F40000078052843D10846007801280AD10A20D4
:102F50009449087094A10BA801F046FA0BA806F05A
:102F600013FF43E08E48007802280AD115208D49CE
:102F7000087096A10BA801F037FA0BA806F004FF21
:102F800034E08748007803280AD12020854908705A
:102F900097A10BA801F028FA0BA806F0F5FE25E092
:102FA0007F48007804280AD12B207E49087099A117
:102FB0000BA801F019FA0BA806F0E6FE16E09EA198
:102FC0000BA801F011FA0BA806F0DEFE0EE0A3A19B
:102FD0000BA801F009FA0BA806F0D6FE06E0A6A1A0
:102FE0000BA801F001FA0BA806F0CEFE012031B0CB
:102FF00000BD4C216648FDF70FF966490860084698
:103000000068D0B1084600686149401A401C084475
:103010000021079001F0DCFB8DED080B9DED080B06
:1030200051EC100BFDF71AFB9B490860084690ED28
:10303000000AB1EE400A80ED000A53215448FDF722
:10304000EBF8544908600846006898B108460068E3
:103050004F49401A401C08440021079001F0B8FB7A
:103060008DED080B9DED080B51EC100BFDF7F6FAFA
:103070008A49086043214648FDF7CEF84549086073
:1030800008460068002863D0084600684049401A96
:10309000401C08440021079001F09AFB8DED080BBD
:1030A0009DED080B51EC100BFDF75CFA3C490870E4
:1030B0003C480078052843D10846007801280AD109
:1030C0000E203849087076A10BA801F08DF90BA8E5
:1030D00006F05AFE43E03248007802280AD119204F
:1030E0003049087077A10BA801F07EF90BA806F013
:1030F0004BFE34E02A48007803280AD124202949CD
:10310000087079A10BA801F06FF90BA806F03CFE3E
:1031100025E02348007804280AD12F20214908708F
:103120007AA10BA801F060F90BA806F02DFE16E0BD
:103130007FA10BA801F058F90BA806F025FE0EE0C0
:1031400084A10BA801F050F90BA806F01DFE06E0C3
:1031500087A10BA801F048F90BA806F015FE012085
:1031600045E78B48C0788A498978CDE900108848BE
:1031700040780A90864800780990024685A10BA8FD
:103180000A9B01F031F90BA806F0FEFD01202EE7A5
:10319000140D0020CC000020E4000020EC000020F2
:1031A000F0000020B0010020463130206F6B2E204F
:1031B000464653206368616E6E656C2031206665FB
:1031C0006564696E672E200D0A00000046313020CC
:1031D0006F6B2E20464653206368616E6E656C20CF
:1031E000322066656564696E672E200D0A00000056
:1031F000463130206F6B2E20464653206368616E47
:103200006E656C20332066656564696E672E200DDF
:103210000A000000463130206F6B2E2046465320B6
:103220006368616E6E656C20342066656564696EE6
:10323000672E200D0A000000463130206F6B2E20D3
:10324000464653206368616E6E656C206E6F742015
:1032500065786973742E200D0A0000004631302015
:103260006F6B2E20464653206E6F7420726561642A
:10327000792E200D0A000000463130206F6B2E2081
:103280004E6F206368616E6E656C2073656C65635C
:103290007465642E200D0A00E0000020E800002084
:1032A000463131206F6B2E20464653206368616E95
:1032B0006E656C20312065786974696E672E200D0B
:1032C0000A000000463131206F6B2E204646532005
:1032D0006368616E6E656C20322065786974696E12
:1032E000672E200D0A000000463131206F6B2E2022
:1032F000464653206368616E6E656C2033206578A6
:103300006974696E672E200D0A0000004631312075
:103310006F6B2E20464653206368616E6E656C208D
:10332000342065786974696E672E200D0A000000EC
:10333000463131206F6B2E20464653206368616E04
:103340006E656C206E6F742065786973742E200D25
:103350000A000000463131206F6B2E204646532074
:103360006E6F742072656164792E200D0A00000072
:10337000463131206F6B2E204E6F206368616E6E78
:10338000656C2073656C65637465642E200D0A009E
:10339000BF010020463132206F6B2E20256420258E
:1033A000642025642025640A200D00000021F848CF
:1033B00006F0CEFB0021F74806F0CAFBF648C078BD
:1033C000C000F549897840EA8100F349497840EA2C
:1033D0004100F14909780843F0490870F048C07885
:1033E000C000EF49897840EA8100ED49497840EA18
:1033F0004100EB4909780843EA490870EA48C07877
:10340000E9498978E84A5278E74B1B78CDE90732D9
:10341000CDE90910E548C078E4498978E34A527853
:10342000E24B1B78CDE90332CDE90510DD48007889
:10343000DF490978DF4A1278CDE900210290D748A8
:103440000378DD480278DD490BA800F0CDFF0BA81A
:1034500006F09AFC0120CAE5D148C078D0498978A5
:10346000CDE90010CE4840780A90CD480078099008
:103470000246D3A10BA80A9B00F0B6FF0BA806F0EA
:1034800083FC0120B3E52021D548FEF77BFA4021DB
:10349000D348FEF775FA0520C7490870D1A10BA8DB
:1034A00000F0A2FF0BA806F06FFC01209FE50120B1
:1034B000C1490870CEA10BA800F096FF0BA806F03A
:1034C00063FC012093E5CDA10BA800F08DFF0BA8B4
:1034D00006F05AFC01208AE5D2A10BA800F084FF77
:1034E0000BA806F051FC012081E5D148C088D049E5
:1034F0008988CF4A5288CE4B1B88CDE90232CDE96C
:103500000410CC48C088CB498988CDE90010C9484F
:1035100040880A90C748008809900246C6A10BA8B7
:103520000A9B00F061FF0BA806F02EFC01205EE56F
:103530009F480278CEA10BA800F056FF0BA806F01A
:1035400023FC012053E54321D248FCF765FED24914
:10355000086008460068002857D008460068CD4932
:10356000401A401C08440021079001F031F98DED0C
:10357000080B9DED080B51EC100BFCF7F3FF8D4988
:1035800008700846007801280AD18948007800F0C0
:10359000FE0087490870C1A10BA800F025FF30E0AC
:1035A0008448007802280AD18148007800F0FD00A4
:1035B0007F490870BEA10BA800F016FF21E07D48EE
:1035C000007803280AD17A48007800F0FB00784997
:1035D0000870BCA10BA800F007FF12E07548007846
:1035E00004280AD17248007800F0F700704908708A
:1035F000B9A10BA800F0F8FE03E0BCA10BA800F0F5
:10360000F3FE0BA806F0C0FB06E0B8A10BA800F083
:10361000EBFE0BA806F0B8FB0120E8E443219D482F
:10362000FCF7FAFD9C49086008460068002853D062
:10363000084600689749401A401C0844002107903A
:1036400001F0C6F88DED080B9DED080B51EC100B49
:10365000FCF788FF5749087008460078012808D110
:10366000A749087054490870A6A10BA800F0BCFE39
:103670002EE050480078022809D1A14908700120A5
:103680004D490870A4A10BA800F0AEFE20E0494807
:103690000078032809D19A4908700120464908702A
:1036A000A2A10BA800F0A0FE12E042480078042876
:1036B0000AD19349087001203F490870A0A10BA8C6
:1036C00000F092FE04E075E1A2A10BA800F08CFED0
:1036D0000BA806F059FB06E0A7A10BA800F084FE9A
:1036E0000BA806F051FB012081E444216948FCF756
:1036F00093FD6949086008460068B0B10846006853
:103700006449401A401C08440021079001F060F809
:103710008DED080B9DED080B51EC100BFCF722FF13
:103720009D4908608020244908709CA10BA800F0E6
:103730005BFE0BA806F028FB012058E44FF0FF3198
:103740009948FEF74DFC01200A900A9880F31388EF
:1037500000BF00BF00BF00BF00BF00BFBFF34F8F5F
:1037600000BF00BF00BF9148006800F4E0609049CE
:103770000843001D8D49086000BF00BF00BFBFF3B4
:103780004F8F00BF00BF00BF00BF00BFFDE70000BC
:103790000044004000540140BF010020D900002037
:1037A000D9010020DA000020340200202402002089
:1037B000D0010020F0000020B0010020A49E0108EC
:1037C000463134206F6B2E207374616C6C3A202567
:1037D00064202564202564202564200D0A00000053
:1037E000000C0140463135206F6B2E200D0A000081
:1037F000463138206F6B200D0A0000004631392019
:103800006F6B2E20666F757220636F6C6F722E2047
:1038100076657273696F6E3A20332E302E31200D2B
:103820000A000000463230206F6B2E200D0A000087
:103830004401002034010020463231206F6B2E20DD
:103840000D0A2073696C6B3A2025642025642025BD
:1038500064202564200D0A207374616C6C3A202565
:1038600064202564202564202564200D0A000000C2
:10387000463232206F6B2E206666735F6368616E1E
:103880006E656C735F696E736572743A202564208F
:103890000D0A0000140D0020CC0000204632332019
:1038A0006F6B2E206368616E20312E200D0A0000A0
:1038B000463233206F6B2E206368616E20322E20DB
:1038C0000D0A0000463233206F6B2E206368616E54
:1038D00020332E200D0A0000463233206F6B2E203D
:1038E0006368616E20342E200D0A000046323320BA
:1038F0006F6B2E206E6F206368616E2E200D0A00A4
:103900001B020020463234206F6B2E206368616EEC
:1039100020312E200D0A0000463234206F6B2E20FD
:103920006368616E20322E200D0A0000463234207A
:103930006F6B2E206368616E20332E200D0A00000D
:10394000463234206F6B2E206368616E20342E2047
:103950000D0A0000463234206F6B2E20464653205D
:103960006368616E6E656C206E6F74206578697334
:10397000742E200D0A000000463234206F6B2E207A
:103980004E6F206368616E6E656C2073656C656355
:103990007465642E200D0A00DC00002046333020C0
:1039A0006F6B2E200D0A000000D000080CED00E027
:1039B0000000FA054321F648FCF72EFCF5490860A3
:1039C00008460068002857D008460068F049401AA9
:1039D000401C08440021079000F0FAFE8DED080B12
:1039E0009DED080B51EC100BFCF7BCFDEA4908708B
:1039F0000846007801280AD10C20E8490870E8A19F
:103A00000BA800F0F1FC0BA806F0BEF93BE0E24881
:103A1000007802280AD11720E0490870E9A10BA814
:103A200000F0E2FC0BA806F0AFF92CE0DA480078D1
:103A300003280AD12220D9490870EBA10BA800F075
:103A4000D3FC0BA806F0A0F91DE0D34800780428A9
:103A50000AD12D20D1490870ECA10BA800F0C4FCBC
:103A60000BA806F091F90EE0F1A10BA800F0BCFC48
:103A70000BA806F089F906E0F6A10BA800F0B4FC4B
:103A80000BA806F081F90120E5E4FA48C068F9497D
:103A90008968CDE90010F74840680A90F548006849
:103AA00009900246F4A10BA80A9B00F09DFC0BA80C
:103AB00006F06AF90120CEE40021FC4806F048F83F
:103AC000FB48C078FA498978CDE90010F848407879
:103AD0000A90F748007809900246F6A10BA80A9BC5
:103AE00000F082FC0BA806F04FF90120B3E454214A
:103AF000A748FCF791FBA74908600846006898B101
:103B000008460068A249401A401C0844002107905A
:103B100000F05EFE8DED080B9DED080B51EC100BD7
:103B2000FCF720FDEC49087049219948FCF774FB2B
:103B3000984908600846006888B3084600689449B8
:103B4000401A401C08440021079000F041FE8DED12
:103B5000080B9DED080B51EC100BFCF703FDDF4942
:103B6000087008460078002802DC0020087006E093
:103B7000DA4800781F2802DB1F20D8490870D64891
:103B8000007801280CD1D54800784FF4202141EA73
:103B90000020024610210A90C44806F05CF80FE0AD
:103BA000CD48007802280BD1CC4800784FF4202172
:103BB00041EA0020024610210A90C94806F04BF85D
:103BC000C6480378C4480278C6A10BA800F00CFCD4
:103BD0000BA806F0D9F801203DE4B448FDF7F4FF46
:103BE000BF48FDF7F1FFCCA006F0CEF8012032E48B
:103BF0006F21AE4805F0ACFFCA48C078C949897842
:103C0000CDE90010C74840780A90C648007809906E
:103C10000246C5A10BA80A9B00F0E6FB0BA806F024
:103C2000B3F8012017E40121A04805F091FFC8482E
:103C3000C078C7498978CDE90010C54840780A9016
:103C4000C348007809900246C2A10BA80A9B00F065
:103C5000CBFB0BA806F098F8012013E40021934851
:103C600005F076FF9248C07891498978CDE9001037
:103C70008F4840780A908E48007809900246BEA18D
:103C80000BA80A9B00F0B0FB0BA806F07DF8012002
:103C90000CE40121854805F05BFFAD48C078AC49D4
:103CA0008978CDE90010AA4840780A90A8480078A1
:103CB00009900246B9A10BA80A9B00F095FB0BA83E
:103CC00006F062F8012006E46C21784805F040FF18
:103CD000BB48C078BA498978CDE90010B848407827
:103CE0000A90B748007809900246B6A10BA80A9B33
:103CF00000F07AFB0BA806F047F8012017E46F21CB
:103D00006A4805F025FF8748C07886498978CDE95B
:103D10000010844840780A90824800780990024652
:103D2000B2A10BA80A9B00F05FFB0BA806F02CF8D1
:103D3000012007E400216A4805F00AFFB548C07871
:103D4000B4498978CDE90010B24840780A90B1486A
:103D5000007809900246B0A10BA80A9B00F044FB32
:103D60000BA806F011F8012057E401215C4805F08A
:103D7000EFFEB248C078B1498978CDE90010AF486C
:103D800040780A90AD4800780990024658E100005A
:103D9000140D0020CC000020F0000020B001002015
:103DA000463339206F6B2E20464653206368616E80
:103DB0006E656C20312072656C656173652E200D17
:103DC0000A000000463339206F6B2E2046465320F0
:103DD0006368616E6E656C20322072656C6561731C
:103DE000652E200D0A000000463339206F6B2E200F
:103DF000464653206368616E6E656C2033207265A1
:103E00006C656173652E200D0A0000004633392071
:103E10006F6B2E20464653206368616E6E656C2082
:103E2000342072656C656173652E200D0A000000F8
:103E3000463339206F6B2E20464653206368616EEF
:103E40006E656C206E6F742065786973742E200D1A
:103E50000A000000463339206F6B2E204E6F20631E
:103E600068616E6E656C2073656C65637465642E45
:103E7000200D0A0024150020463430206F6B2E736D
:103E800074616C6C20636F756E743A2043313A2014
:103E900025642043323A2025642043333A202564A8
:103EA0002043343A202564200D0A000000440040DD
:103EB00024020020463431206F6B2E47434F4E467C
:103EC0003A20253032782530327825303278253046
:103ED0003278200D0A000000F1000020F2000020DE
:103EE00000540140463432206F6B2E73746570703D
:103EF00065725F6D6F746F723A202564207374650C
:103F0000707065725F6D6F746F725F6972756E3A13
:103F1000202564200D0A0000463433206F6B2E20CC
:103F20000D0A000020020020463434206F6B2E441E
:103F300052565F5354415455533A20253032782518
:103F40003032782530327825303278200D0A000062
:103F500028020020463435206F6B2E4753544154BD
:103F60003A202530327825303278253032782530A5
:103F70003278200D0A000000463530206F6B2E4746
:103F8000434F4E463A20253032782530327825305E
:103F9000327825303278200D0A0000004635312075
:103FA0006F6B2E47535441543A20253032782530D8
:103FB00032782530327825303278200D0A00000022
:103FC0002C020020463532206F6B2E43484F504361
:103FD0004F4E463A2025303278253032782530321F
:103FE0007825303278200D0A000000004635332055
:103FF0006F6B2E4452565F5354415455533A20250B
:1040000030327825303278253032782530327820B9
:104010000D0A000034020020463630206F6B2E4718
:10402000434F4E463A2025303278253032782530BD
:10403000327825303278200D0A0000003802002046
:1040400028A10BA80A9B00F0CFF90BA805F09CFE55
:10405000012019E56C212C4805F07AFD2B48C07829
:104060002A498978CDE90010284840780A902748E5
:1040700000780990024626A10BA80A9B00F0B4F92B
:104080000BA805F081FE0120FEE46F211E4805F01B
:104090005FFD2948C07828498978CDE90010264875
:1040A00040780A90244800780990024623A10BA882
:1040B0000A9B00F099F90BA805F066FE0120E3E4E5
:1040C00001F096FD05202749087027A10BA800F0F4
:1040D0008BF90BA805F058FE0120D5E40120D3E4AC
:1040E0000120D1E4463631206F6B2E4753544154A2
:1040F0003A20253032782530327825303278253014
:104100003278200D0A000000005401403C020020DB
:10411000463632206F6B2E43484F50434F4E463A3F
:1041200020253032782530327825303278253032EB
:1041300078200D0A000000003002002046363320AF
:104140006F6B2E4452565F5354415455533A2025B9
:104150003032782530327825303278253032782068
:104160000D0A0000B001002046313132206F6B2E65
:10417000200D0A0010B500F003F8FEF7ADFD10BDEC
:1041800000B587B001218803FDF790FE01210420CE
:10419000FDF78CFE01210420FDF788FE4FF48060BE
:1041A000ADF8180003208DF81A0048208DF81B0088
:1041B00006A93D48FDF750FB4FF40070ADF818001C
:1041C00003208DF81A0018208DF81B0006A9364828
:1041D000FDF742FB01210420FDF768FE4FF400606B
:1041E000ADF8180003208DF81A0010208DF81B0080
:1041F00006A92D48FDF730FB4FF400612A48FDF772
:10420000BFFB4FF4E13002900020ADF80C00ADF898
:104210000E00ADF81000ADF814000C20ADF812003F
:1042200002A92248FEF756FC002240F226611F48F0
:10423000FEF7DFFB002240F225511C48FEF7D9FBB8
:10424000002240F227711948FEF7D3FB012240F209
:1042500024411648FEF7CDFB01211448FEF7EEFB82
:1042600040211248FEF7BCFB25208DF804000020F9
:104270008DF8050001208DF806008DF8070001A8D3
:10428000FDF786FD0E208DF8040000208DF8050056
:1042900002208DF8060001208DF8070001A8FDF727
:1042A00077FD07B000BD0000000801400038014064
:1042B00010B592B0002401214804FDF7E7FD01216B
:1042C0000420FDF7F3FD01210846FDF7EFFD042072
:1042D000ADF8440018208DF8470003208DF8460003
:1042E00011A93D48FDF7B8FA0820ADF84400482070
:1042F0008DF8470011A93848FDF7AEFA4FF4165073
:104300000D900020ADF83800ADF83A00ADF83C0053
:10431000ADF840000C20ADF83E000DA92F48FEF787
:10432000D9FB002240F226612C48FEF762FB0022F6
:1043300040F225512948FEF75CFB002240F227712C
:104340002648FEF756FB012240F224412348FEF79F
:1043500050FB01212148FEF771FB40211F48FEF769
:104360003FFB26208DF8300000208DF8310003201F
:104370008DF8320001208DF833000CA8FDF708FD00
:1043800001210846FDF772FD1548FCF755FF13485B
:10439000001D019013480290002003901420049007
:1043A0000020059080200690002007900890202093
:1043B000099000020A9000200B9001A90848FDF71F
:1043C00025F8012240210548FEF744FB012104485D
:1043D000FDF70CF812B010BD000801400044004089
:1043E0006C000240341500200FB4084B10B504A92E
:1043F00002AA039800F01EFB044602A9002000F068
:10440000B0FE204610BC5DF814FB000063510108AB
:104410002DE9F0412DED020B9FED3D0B2DED028BB3
:104420009FED3D8BDDE90254C4F30A50A0F2FF3644
:10443000142E37DA002E18DA53EC102B9DED020BF8
:1044400051EC100BFBF7F9FE53EC182BFCF7EEF8D0
:1044500057D2002CBCBF4FF00044002551DB54EA7A
:10446000050018BF2E4C1BD14BE02E4820FA06F752
:1044700004EA070028431FD053EC102B9DED020BDC
:1044800051EC100BFBF7D9FE53EC182BFCF7CEF8D0
:1044900037D2002C03DD4FF48010F0400444BC43BD
:1044A00000252EE0332E07DCA6F114004FF0FF317B
:1044B00021FA00F73D4206D19DED020BBDEC028BC7
:1044C00002B0BDE8F08153EC102B9DED020B51ECD6
:1044D000100BFBF756FF53EC182BFCF7A7F810D284
:1044E000002C0DDD142E08BF641C09D0C6F1340069
:1044F000012101FA00F02844A84238BF641C054697
:10450000BD43CDE902549DED020BD7E7000000004A
:104510009C7500883CE4377E00000000000000002D
:104520000000F03FFFFF0F0010EE100AC0F3C7516C
:104530007F391729A8BF7047DFED140A002970EEF4
:10454000200A0CDAF5EEC00AF1EE10FA1ADD0028A6
:10455000C8BF4FF07E50B8BF4FF0004012E00C4A89
:1045600022FA01F2104208BF7047F5EEC00AF1EEE0
:1045700010FA07DD002804DD4FF4000323FA01F1EF
:104580000844904300EE100A70470000CAF24971D7
:10459000FFFF7F002DED020B019820F000400190FD
:1045A0009DED000B02B0704710EE100AC0F3C7512A
:1045B0007F391729A8BF7047DFED140A002970EE74
:1045C000200A0DDAF5EEC00AF1EE10FA1ADD002825
:1045D000A8BF002016DAB0F1004F18BF0C4811E058
:1045E0000C4ACA40104208BF7047F5EEC00AF1EE0F
:1045F00010FA07DD002804DA4FF4000323FA01F172
:104600000844904300EE100A70470000CAF2497156
:10461000000080BFFFFF7F0010B52DED020B2DEDD8
:10462000088B9DED080B51EC100BFCF7EDF941ECFC
:10463000180B9DED080B53EC182B51EC100BFBF7EE
:104640009DFE41EC190B09989FED2D0B10F0004FCA
:1046500053EC102B51EC190B9FED25AB9FED26BBB6
:104660000DD0FBF7CBFF0DD953EC1B2B51EC190BE5
:10467000FBF7DCFF1BD213E041EC180B17E0FBF754
:10468000BDFF06D253EC1A2B51EC180BFBF776FE4C
:10469000F2E753EC1B2B51EC190BFBF7C7FF06D8C5
:1046A00053EC1A2B51EC180BFBF7C7FDE4E79FED19
:1046B000160B51EC180B53EC102BFBF7B7FF08D37C
:1046C00051EC180B9FED120B53EC102BFBF796FFE0
:1046D00002D2012000F0A8F851EC180BBDEC088BB9
:1046E00002B0BDE81040FCF7EBB90000000000008C
:1046F000000000000000F03F000000000000E03F6C
:10470000000000000000E0BF0000C0FFFFFFDF412D
:10471000000000000000E0C100B52DED048BB0EEFC
:10472000409AF0EE609A83B051EC190BFCF71AF93D
:1047300041EC180B18EE100A18EE901A8DED008B54
:10474000002818BF0120084320F00040C0F17F601E
:1047500000F1E040C00F14D019EE101A19EE900AC3
:104760008DED009B002918BF0121084320F0004077
:10477000C0F17F6000F1E040C00F04BF012000F0F5
:1047800053F8B0EE480A03B0F0EE680ABDEC048BB3
:1047900000BD10B52DED028BB1EEC08A18EE100AE7
:1047A00020F00040C0F1FF40C00F0AD010EE100A08
:1047B00020F00040C0F1FF40C00F04BF012000F016
:1047C00033F8B0EE480ABDEC028B10BD00000000CB
:1047D00000B583B09FED060B0A4601468DED000B38
:1047E0006846FBF7F8FF9DED000B03B000BD00002D
:1047F000000000000000000002E008C8121F08C10D
:10480000002AFAD170477047002001E001C1121F51
:10481000002AFBD1704780F31088704780F310881E
:10482000704780F3108870470149086070470000A6
:1048300084040020014688890A6810444A68801A66
:104840008A8990FBF2F302FB1300704730B50246F1
:1048500010685468A04201D1002030BD5068401C4F
:10486000948990FBF4F504FB1503D2E90140005D47
:10487000087053600120F0E730B502461068401C14
:10488000948990FBF4F504FB15035068984201D11C
:10489000002030BD14689068015513600120F8E7CE
:1048A0002DE9FF5F82B00021DDE90430020DDDF863
:1048B00040B0034318D044F61050A2F2FF324243F6
:1048C0001514119801281FD0A5EB0B00401C5FEABE
:1048D000000A4FF000064E4FDFF83891B0465046C0
:1048E00015D5CAF1000413E0119801244AA3012848
:1048F00001D16FEA0B010298119AC0E90031C0E9B9
:10490000024206B0BDE8F09FCBF10000DFE70446AD
:104910000021404A491842EB0450CDE9001012E052
:10492000E00707D032463B4640464946FBF72CFDA0
:104930008046894632463B4610461946FBF724FD21
:1049400006460F466410002CEAD1DDE90401DDE9DA
:104950000023BAF1000F06DAFBF716FD42464B467C
:10496000FBF712FD05E0FBF781FD42464B46FBF7E6
:104970007DFD04460E460022284BFBF757FE03D868
:104980004FF0FF30014607E00022254B204631461C
:10499000FBF753FCFCF77CF8102409E0002C0ADB41
:1049A0000A220023FBF78CFE039B30321A55641E4B
:1049B00050EA0102F2D1641C039AC4F111031444B9
:1049C000119A012A03D0012208430DD10AE00843BD
:1049D00004D000204FF0110B119072E7A3EB0B05F0
:1049E0006D1E0DE05B4504DD4FF0000205F1010591
:1049F00004E003DA4FF00002A5F10105002AECD033
:104A000002981199C0E90231C0E9004579E7000038
:104A1000000014400000F03F300000000000F043B0
:104A20000000E03F30380A2801D201207047002002
:104A3000704700002DE9FF4F95B09B46894606461A
:104A400000250FE2252877D100242746F84A0121C6
:104A5000059400E0044316F8013F203B01FA03F0FF
:104A60001042F7D130782A2811D06FF02F03307818
:104A7000A0F13002092A16D8059A44F0020402EB8C
:104A8000820203EB42021044761C0590EFE759F8CE
:104A9000042B0592002A03DA504244F40054059096
:104AA00044F00204761C30782E2816D116F8010F37
:104AB00044F004042A280DD06FF02F023078A0F1C2
:104AC0003003092B09D807EB870302EB4303C71810
:104AD000761CF3E759F8047B761C30786C280FD0ED
:104AE00006DC4C2817D068280DD06A2814D104E0C1
:104AF000742810D07A280FD10DE044F400140AE095
:104B000044F4801401E044F440147278824202D1EB
:104B100004F58014761C761C307866280BD013DCE4
:104B2000582877D009DC002875D04528F6D04628CB
:104B3000F4D047281AD19DE118E0632835D06428C5
:104B400079D0652812D195E1702873D008DC6728E8
:104B5000F1D069286FD06E280DD06F2806D1B5E04E
:104B600073282CD0752875D0782874D05A46179998
:104B700090476D1C75E1C4F30250022809D0032848
:104B80000DD0D9F8001004280DD00D6009F10409EA
:104B900067E1D9F80010EA17C1E90052F6E7D9F841
:104BA00000100D80F2E70D70F0E719F8041B8DF886
:104BB000001000208DF80100EA46012003E059F8BA
:104BC00004AB4FF0FF3061074FF0000102D40DE05D
:104BD00008F101018846B9420FDA8045F8DB1AF87E
:104BE00008100029F4D108E008F10101884681424B
:104BF000FADB1AF808100029F6D105985B46A0EBFD
:104C0000080721463846179A00F094FA284400EB2A
:104C1000080507E04DE029E10DE01AF8010B5A46BE
:104C200017999047B8F10108F7D25B4621463846FC
:104C3000179A13E142E00A220092C4F302524FF0A5
:104C4000000A022A08D059F804CB032A4FEAEC7173
:104C50000AD00DE029E02AE009F1070121F007025E
:104C6000F2E802C1914609E00FFA8CFC4FEAEC71C0
:104C7000042A03D14FFA8CFC4FEAEC71002907DAC1
:104C80000A460021DCF1000C61EB02012D2202E05A
:104C9000220504D52B228DF80420012203E0E2072F
:104CA00001D02022F7E7904659E00A2102E01022C5
:104CB0000DE010214FF0000A00910BE010224FF0A0
:104CC000000A44F004040827009203E008224FF091
:104CD000000A0092C4F30252022A05D059F804CB0C
:104CE0000021032A08D009E009F1070121F0070299
:104CF000F2E802C1914605E01FFA8CFC042A01D1BA
:104D00000CF0FF0C4FF00008220728D5702806D0C1
:104D1000009B83F0100353EA0A0305D00EE0402203
:104D20008DF80420012208E05CEA010206D030225E
:104D30008DF804208DF8050002229046009B83F038
:104D4000080353EA0A030AD15CEA010201D16207AF
:104D500005D530228DF804204FF001087F1E582819
:104D600004D034A003900EA802900DE036A0F9E71D
:104D700053466046009AFBF7A3FC84460398825C86
:104D80000298401E029002705CEA0100F0D1029885
:104D900006A9081A00F1200A600702D524F480341D
:104DA00000E00127574502DDA7EB0A0000E00020E4
:104DB00000EB0A01009005984144401A0590E00379
:104DC00006D45B462146179A059800F0B3F90544CE
:104DD000002706E001A85A46C05D179990476D1C50
:104DE0007F1C4745F6DBE0030CD55B462146179A4E
:104DF000059800F09FF9054404E030205A461799C1
:104E000090476D1C0099481E00900029F5DC08E0D1
:104E1000029802995A460078491C029117999047C6
:104E20006D1CBAF10001AAF1010AF1DC65E1000094
:104E30000928010030313233343536373839616270
:104E40006364656600000000303132333435363734
:104E500038394142434445460000000000F058F90B
:104E60000544761C307800287FF4ECAD19B0284654
:104E7000BDE8F08F620700D4062709F1070222F08F
:104E8000070CFCE80223E14603F000485FEA080C47
:104E900002D00FF2702C0DE05FEA045C02D50FF235
:104EA000682C07E05FEAC47C02D00FF2602C01E0BE
:104EB000AFF2700C4FF0FF3823F00043CDF850C034
:104EC00065280CD006DC452809D046281DD0472887
:104ED0003DD13DE0662818D067287ED138E000211A
:104EE000112F01DB112000E0781CCDE9000106A99B
:104EF0000EA8FFF7D5FCDDE90F010E9A0391002102
:104F0000009207F1010A04914DE04FF00040009734
:104F1000CDE9011006A90EA8FFF7C2FCDDE90F02DA
:104F200003920E9B11990022DDF80CA000930492CD
:104F300011B9791C00EB010AB7EB0A0004D4C0F1E7
:104F4000FF3007F1010A0490AAEB0700019044E04A
:104F5000012F00DA01270021112F01DD112000E0CF
:104F60003846CDE9000106A90EA8FFF799FCDDE956
:104F70000F010E9A0391002104910092BA46210775
:104F80000CD40399514500DA8A46BAF1010F05DDC8
:104F9000009AAAF10101515C302908D0B84202DA26
:104FA00010F1040F06DA0121CDE9011015E0AAF194
:104FB0000101E9E7002805DC049901440491AAEB0A
:104FC000000102E0411C514500DD8A460499401A67
:104FD000401C01904FF000400290200704D401983B
:104FE000504501DBCDF8048000208DF84F00029879
:104FF0000DF14F07B0F1004F25D02B200E900298F5
:105000004FF0020800280CDA404202902D200E904A
:1050100007E00A210298FBF73DFB3031029007F8C8
:10502000011DB8F10001A8F10108F2DC0298002886
:10503000EFD1791E0E980870307800F0200040F013
:10504000450007F8020D12A8C01B00F107081498CC
:10505000007800B1012000EB0A01019801EBE0713A
:1050600005984144401A401E0590E00306D45B4673
:105070002146179A059800F05DF8054414980078C9
:1050800018B15A46179990476D1CE00324D55B462A
:105090002146179A059800F04DF805441CE0049845
:1050A000002807DBDDE90301884203DD0098405C4E
:1050B000179901E0179930205A469047049805F156
:1050C0000105401C04900198401E019004D12E203F
:1050D0005A46179990476D1CBAF10001AAF1010ACE
:1050E000DDDC05E017F8010B5A46179990476D1C57
:1050F000B8F10001A8F10108F4DC5B462146179ADB
:105100000598ABE62D0000002B00000020000000F9
:105110002DE9F041044600251E461746880404D4B4
:1051200005E039462020B0476D1C641EF9D528469D
:10513000BDE8F0812DE9F041044600251E46904669
:10514000C80301D5302700E02027880404D505E0F6
:1051500041463846B0476D1C641EF9D52846BDE867
:10516000F0810A68531C0B601070704738B54FF41B
:10517000FA650020F9490870F948006800280ED047
:10518000F74800688069F7490968884208D8002014
:10519000F349086001F028FF0120F0490870BBE0E6
:1051A000EF480068006BEF490968884249D3EC4832
:1051B0000068816BEC480068FCF7BCFDE8490968B1
:1051C000C96E0844E949086000BFE5480068406EC0
:1051D0000968884204D2E2480068406EE3490860EA
:1051E00000BFE2480068E2490968884203D9DF4805
:1051F0000068DF490860DD49098888B200F0BEFA1E
:105200000546D94800682844D7490860D94800783D
:1052100078B1D948007800287ED0D1480068B0F82D
:105220004000D6490968884276D00020D4490860F9
:1052300072E0D148007800286ED00020D049086084
:105240006AE0C7480068406BC649096888424CD28A
:10525000C3480068816BCB480068FCF76BFD0446CF
:10526000C248006884420CD2C0480068041B00BFDA
:10527000BB480068006FA04202D9B9480068046FBB
:1052800002E0B7480068046FA0B200F077FA054664
:10529000BC4800682844BB490860B6480078E8B1BB
:1052A000AF480068406BAF49096888420AD2B248EB
:1052B0000078C8B1AA480068B0F84000AF49096852
:1052C000884211D000BF0020AD49086000BFA4484B
:1052D0000068B0F84000A949086005E0A6480078D9
:1052E00010B10020A649086016E0A348007868B114
:1052F0009B480068B0F84000A0490968884205D082
:1053000000BF00209E49086000BF00BF9E4805887E
:105310009E4800789E4908709148006800287DD119
:1053200001F07AFE8E49086008460068002876D0B1
:1053300017E000208A49086001F056FE01F06CFE7B
:10534000874908600846006858B99248008830B913
:105350009048408818B99048007803F05BF92846D7
:1053600038BD7F480068007800F020000028E0D1B8
:105370007B480068C1697A480068006A0844874928
:10538000086077480068C16975480068006A081AB3
:105390008249486072480068406A886070480068C6
:1053A000806AC8606E480068C06A08616C4800681E
:1053B00090F83E007A4908706948006890F83F000C
:1053C0006C49087008460078B8B165480068B0F8C4
:1053D00044007449088062480068B0F8420072498D
:1053E000088000BF00206649086000BF5C48006874
:1053F000B0F840006149086003E04FF0FF305F49BA
:10540000086000205F4908605749086054490968EE
:10541000B1F8641088B200F0B1F901E0F5E0E8E01D
:10542000594908805A480078584908704C48006823
:10543000C06E4E4908604A490968B1F86C1088B2DC
:1054400000F09CF905464648006890F83C00574932
:1054500008704348006890F87C404E48008810B9B6
:105460005348007808B144F008044A48408810B90D
:105470004F48407808B144F01004204603F0CAF8C1
:1054800037480068406800904848007800F0010301
:105490003348006882693248006890F87B0008B998
:1054A000012000E000200146002003F005F92C480F
:1054B0000068806800902A4800688269284800686F
:1054C00090F87B00012800D100E000200146374819
:1054D0000078C0F34003012003F0EEF82048006894
:1054E000C06800901E48006882691D48006890F8F6
:1054F0007B00022801D1012000E0002001462B485A
:105500000078C0F38003022003F0D6F81448006846
:10551000006900901248006882691148006890F89C
:105520007B00032801D1012000E0002001461F4834
:105530000078C0F3C003032003F0BEF808480068F9
:10554000406900900648006882690548006890F844
:105550007B0004282ED101202DE00000D60200207F
:105560005C0200208C0200209002002098020020A3
:10557000D0020020BE020020BC020020B0020020A9
:10558000AC02002094020020A2020020A102002010
:10559000A00200202A0400202E0400208C5D0020A0
:1055A000A7020020B8020020BA02002088020020D2
:1055B000590400200020014615480078C0F300136C
:1055C000042003F079F813480068806940421249CA
:1055D00008601048006800694000104908600D48E4
:1055E0000068806940000E49086000200D4908608D
:1055F0000BE00D48008830B90B48408818B90B48BB
:10560000007803F007F82846AAE62846A8E6000036
:10561000880200205C020020C0020020C40200209A
:10562000C80200208C0200202A0400202E04002042
:105630001FB5FCF78DFB01210820FCF727FC29484A
:1056400000682949B0FBF1F0401E84B240F2CF70EF
:10565000ADF80400ADF800400020ADF80600ADF84C
:10566000020069462148FCF785FF012211461F48C8
:10567000FCF756FF01211D48FCF75BFF1B48006843
:1056800040F001001949086001211020FCF7FEFBE1
:10569000144800681649B0FBF1F0401E84B29B200C
:1056A000ADF80400ADF800400020ADF80600ADF8FC
:1056B000020069460F48FCF75DFF012211460D48C4
:1056C000FCF72EFF01210B48FCF733FF0948006867
:1056D00040F0010007490860FCF726FB012006495D
:1056E00008701FBD8004002000093D00000C004030
:1056F00080841E0000100040B001002070B500241E
:1057000008E00020194941F8340001EBC401087198
:10571000601CC4B2042CF4DB0420FCF73FFD1448E9
:1057200000683222B0FBF2F1481EB0F1807F00D356
:105730001BE0481E4FF0E022506150170F22002856
:1057400004DB13071D0E0B4B1D5406E013071E0E42
:10575000094B00F00F052D1F5E5500BF00204FF0D4
:10576000E02290610720106100BF70BD741300201B
:105770008004002000E400E018ED00E00146012074
:10578000034A10700348B0FBF1F080B2704700008C
:10579000A002002080841E002DE9F0472DED088B2B
:1057A0000446F0EE408AB0EE609A0120FFF736F82A
:1057B00094ED190AB8EE400A20EE280A10EE101AED
:1057C0000846FAF707FF41EC1B0BB0EE4B0AF0EE70
:1057D0006B0AFEF71DFEB0EE40AAF0EE60AA51EC97
:1057E0001A0BFAF7DEFE054694ED190AB8EE400AE8
:1057F00020EE090A10EE101A0846FAF7EBFE41EC0B
:105800001B0BB0EE4B0AF0EE6B0AFEF701FEB0EE9A
:1058100040AAF0EE60AA51EC1A0BFAF7C2FE064657
:10582000782D00D27825782E00D27826676F94EDF7
:10583000190AB8EE400AF0EE400A00EE107AB8EE0F
:10584000C01A00EE105AB8EE400A00F035F9B0EE7A
:10585000408AFEF769FEBCEEC00A10EE108AD4ED55
:10586000190AF8EE600AB0EE600A784200EE900A7B
:10587000B8EEE01A00EE906AF8EE600A00F01CF94B
:10588000B0EE408AFEF790FEBCEEC00A10EE109A11
:10589000A069A0EB0800A0EB090ABAF1000F54DAE6
:1058A00002EE105AF8EE420A02EE106AB8EE421A00
:1058B00002EE107AB8EEC20A94ED062AF8EE421A09
:1058C000B5EEC00AF1EE10FA02D1DFED282A0FE0A2
:1058D000B0EE002A20EE022A22EE212A00EEE02A73
:1058E00001EE012AF1EE002A20EE223AC2EE032A4E
:1058F000F0EE629AB0EE690AFEF716FEB0EE408A4C
:10590000B5EEC08AF1EE10FA02DDB0EE480A01E011
:105910009FED160ABCEEC00A10EE100AA16988427B
:105920000CD2B5EEC08AF1EE10FA02DDB0EE480AF4
:1059300001E09FED0E0ABCEEC00A01E094ED060AFC
:1059400010EE108A4FF0000A00BF0120FEF766FF3C
:10595000C4F8308008EB0A006063E5662667002023
:10596000FEF75CFFBDEC088BBDE8F087000000008F
:10597000094908700978012902DD0021064A1170E1
:1059800005490978012903D10449054A116002E05B
:105990000449034A1160704764040020C85D002078
:1059A00060040020B45D00200020054908800549FE
:1059B0000880054908800549087005490870704746
:1059C0002E00002030000020320000204600002081
:1059D00075000020F0B587B005460E46002419E09A
:1059E000012004EB4401164A02EB0111487356B939
:1059F00055F824001349096851F82410084402A9F5
:105A000041F8240004E055F8240002A941F82400DC
:105A1000601CC4B2052CE3DB0698009002A80FC8F6
:105A200001F0AAFB002407E002A850F82400064970
:105A300041F82400601CC4B2052CF5DB07B0F0BDB2
:105A40009C5C0020600400207416002010B5044601
:105A50000549097811B10CB1012100E00021084687
:105A600002F0B8FA10BD00005604002010B502F094
:105A7000C9FA10BD70B504460D4601200B490870E7
:105A8000C8210B48FAF7BDFB2A4621460848FAF719
:105A90009FFB00210748FBF7A9FC29460548FBF7B7
:105AA000D3FC01210348FBF7A1FC70BD06010020D7
:105AB000D40D002044000240F0EE401AB5EEC01AAA
:105AC000F1EE10FA02D19FED080A704720EEA00A0D
:105AD00001EEE10AB0EE002A61EE022A80EE222AEF
